:020000040800F2
:10000000B8040020010100088B200008CF1500086B
:100010008920000831050008712400080000000054
:100020000000000000000000000000007D2100082A
:1000300059050008000000008D2000087F210008FD
:100040001B0100081B0100081B0100081B01000820
:100050001B0100081B0100081B0100081B01000810
:100060001B0100081B0100081B0100081B01000800
:100070001B0100081B0100081B0100081B010008F0
:100080001B0100081B0100081B0100081B010008E0
:100090001B0100081B0100081B0100081B010008D0
:1000A0001B0100081B0100081B0100081B010008C0
:1000B0001B0100081B0100081B0100081B010008B0
:1000C0001B0100081B0100081B0100081B010008A0
:1000D0001B010008652400081B0100081B01000823
:1000E0001B0100081B0100081B010008DFF80CD0F1
:1000F00000F00CFA0048004775250008B8040020FD
:100100000648804706480047FEE7FEE7FEE7FEE7B1
:10011000FEE7FEE7FEE7FEE7FEE7FEE7E121000877
:10012000ED000008202A04DB203A21FA02F0002129
:10013000704721FA02F3D040C2F1200291400843F7
:1001400019467047D2B201E000F8012B491EFBD2DC
:1001500070470022F6E710B513460A4604461946D2
:10016000FFF7F0FF204610BD80EA010210B502F053
:100170000043400022D04A001FD0010E01EB126163
:10018000C0F35600C2F3560240F4000042F40002ED
:10019000A0FB022000047F39140400D0401C50EA68
:1001A000124001D44000491EC2B20C0604EBD0102C
:1001B000401C4008802A02D003E0002010BD20F03F
:1001C0000100002900DA0020184310BD2DE9FE4F80
:1001D000804681EA0300C00F0C46009021F00041E8
:1001E00023F00045B8EB0200A94105D24046214664
:1001F00090461C460B46024623F00040104347D071
:10020000270DC7F30A00C3F30A510290401A019068
:1002100040286BDAC3F3130040F4801B0098924629
:1002200020B10023D2EB030A63EB0B0B0198594674
:10023000C0F14002504600F0B3F806460D46504665
:100240005946019A00F0BBF810EB08006141002408
:1002500087EA115284EAE7731A4340D0009A62B3E6
:10026000019A012A4FEA075215DC001B61EB0201DB
:100270004FF0004202EA0752CDE90042001C41F56E
:10028000801132462B4600F0F2F803B0BDE8F08F43
:1002900040462146F9E7001B61EB0201001C41F5D5
:1002A000801300185B412018A2F5001747EB0301EB
:1002B00040EAD570B6196D4111E06D084FEA360677
:1002C00045EAC0754FEA0752001B61EB0201001CB2
:1002D00041F5801149084FEA30000019514132467A
:1002E0002B4603B0BDE8F04F00F0B2B800980122F1
:1002F00040000023D0EB020263EBE073009821463C
:100300004FEAE074B8EB000061EB0401E9E783F029
:1003100000435BE781F0004158E720F00040C10D49
:10032000C0F3160040F400007F2901DA0020704776
:10033000962903DCC1F19601C84070479639884080
:10034000704700F0004230F000400AD0C10D01F5C6
:100350006071C0F3160042EA0151C2084007114320
:10036000704700200146704701F0004330B421F08F
:10037000004150EA010206D00A0DA2F56072C1F3F5
:100380001301002A02DC30BC00207047440F44EA0D
:10039000C104C100E01830BC00EBC25000F021B82D
:1003A000202A04DB203A00FA02F100207047914035
:1003B000C2F1200320FA03F3194390407047202A2A
:1003C00006DBCB17203A41FA02F043EAE07306E07D
:1003D00041FA02F3D040C2F120029140084319468D
:1003E00070470029A8BF7047401C490008BF20F093
:1003F0000100704710B4B0FA80FC00FA0CF050EA2B
:10040000010404BF10BC704749B1CCF1200421FAAB
:1004100004F411FA0CF118BF012121430843A3EBA6
:100420000C01CB1D4FEA00614FEA102042BF0020B3
:1004300010BC704700EBC35010440029A4BF10BC8F
:100440007047401C490008BF20F0010010BC7047F5
:1004500010B5141E73F1000408DA401C41F10001CC
:1004600092185B411A4301D120F0010010BD2DE923
:10047000F04D92469B4611B1B1FA81F202E0B0FA1A
:1004800080F220329046FFF78BFF04460F4640EA89
:100490000A0041EA0B0153465A46084313D011465D
:1004A00053EA010019D0C8F140025046FFF73AFE66
:1004B00005460E46504659464246FFF771FF08432F
:1004C00005D0012004E020463946BDE8F08D00202B
:1004D000054346EAE0762C4337430A986305E40A6D
:1004E000A0EB08000022FD0A44EA47540A3002D576
:1004F00000200146E9E7010510196941DDE90845D9
:1005000000196941BDE8F04DA2E70000064C074D17
:1005100006E0E06840F0010394E8070098471034D3
:10052000AC42F6D3FFF7E6FDDC6C0008FC6C00087B
:10053000FEE700000648016841F08071016005484F
:1005400000214160016841F0010101607047000035
:10055000FCED00E0001000E0704772B6FEE710B559
:1005600090F821100022022905D00421816380F82F
:100570002020012010BD01680B6823F00E030B60E2
:1005800001680B6823F001030B6090F84030C46BE6
:10059000012101FA03F3636080F8211080F8202024
:1005A000104610BD10B590F821100024022903D088
:1005B0000421816301243DE001680A6822F00E02F3
:1005C0000A6001680A6822F001020A601A4A01689A
:1005D000914201D1012121E0174A1432914201D107
:1005E00010211BE0144A2832914201D1891515E0EF
:1005F000114A3C32914201D189140FE00E4A503227
:10060000914202D14FF4803108E00B4A64329142AA
:1006100002D14FF4801101E04FF08071064A083A90
:100620005160012180F82110002180F82010416BD9
:1006300001B18847204610BD0800024070B504464D
:1006400000F004F90546601C02D004480078044418
:1006500000F0FCF8401BA042FAD370BD040000205B
:100660002DE9F84FDFF8B8910024A9F1040B2346D7
:100670000F2709F1040AABF1040EC9E00125A540DA
:100680002A40AA427DD1674ED1F804C0ACEB0608DF
:10069000B44532D014DCBCF1030F3AD009DCBCF114
:1006A000000F2AD0BCF1010F1CD0BCF1020F31D1D8
:1006B0001DE0BCF1110F17D0BCF1120F2AD119E0C7
:1006C000B8F5881F19D006DCB8F5803F15D0B8F50D
:1006D000801F1FD111E0B8F5001F0ED0B8F5041F20
:1006E00018D10AE0CB6815E0CB681B1D12E0CB687F
:1006F00008330FE0CB680C330CE08B682BB1012B77
:100700004FF0080303D0456104E0042302E00561D3
:1007100000E00023FF2A01D8064601E000F10406AC
:100720004FEA840501D9A5F12005D6F8008007FA23
:1007300005FC28EA0C0803FA05F548EA0508C6F89E
:1007400000804D68ED0062D5374DAE6946F0010678
:10075000AE61AD6924F0030605F001050095334D47
:1007600006EB050CDCF80850A607360F07FA06F86A
:1007700025EA0805DFF8B880404503D14FF00008AE
:1007800017E044E0DFF8AC80404502D14FF00108AB
:100790000FE0DFF8A480404502D14FF0020808E0E6
:1007A000DFF89880404502D14FF0030801E04FF098
:1007B000040808FA06F848EA0508CCF808804D68ED
:1007C000D9F80060ED024D4601D5164300E096438E
:1007D0002E604D68DAF80060AD02554601D516432B
:1007E00000E096432E604D68DBF80060AD035D4687
:1007F00001D5164300E096432E604D68DEF8006098
:10080000ED03754601D5164300E096432E60641C47
:100810000D682A46E5407FF431AFBDE8F88F00004F
:1008200008040140000011100010024000000140C7
:1008300000080140000C014000100140001401407C
:100840000AB1016170470904FBE7000001488068B4
:1008500070470000040000200248816802781144BB
:100860008160704704000020074810B5016841F01E
:1008700010010160032000F075F80F2000F006F869
:1008800000F024F8002010BD0020024070B50D4D8E
:1008900004464FF47A712878B1FBF0F00A490968F0
:1008A000B1FBF0F000F066FC48B9102C07D2002232
:1008B0002146501E00F036F800206C6070BD01200B
:1008C00070BD000004000020100000200C4808B596
:1008D000816941F001018161816901F001010091AB
:1008E000C16941F08051C161C06900F08050009041
:1008F0000448416821F0E06141F00071416008BDA9
:100900000010024000000140002809DB00F01F0237
:10091000012191404009800000F1E020C0F8001161
:1009200070470000F0B40E4B1B680C46C3F3022363
:10093000C3F10705042D00D90425191D072901D28B
:10094000002300E0DB1E012606FA05F1491E2140C6
:1009500099409E40761E16403143F0BC01F092BD96
:100960000CED00E0064900F0070208684FF6FF03AF
:10097000184040EA0220034A104308607047000014
:100980000CED00E00000FA052DE9F0470F460500E8
:1009900061D0434E306800F00700B84209D2306899
:1009A00020F0070038433060306800F00700B8429C
:1009B00051D128683B4C810712D5400703D56068A8
:1009C00040F4E06060602878000703D5606840F478
:1009D000605060606068A96820F0F00008436060C3
:1009E0002878C00728D06868012810D0216802281C
:1009F00010D0890700292EDA616821F00301014334
:100A00006160FFF723FF804641F288390DE02168DD
:100A10008903EFE78901EDE7FFF718FFA0EB080175
:100A2000494502D90320BDE8F0876068696800F095
:100A30000C00B0EB810FEFD1306800F00700B84236
:100A40000BD9306820F0070038433060306800F080
:100A50000700B84201D00120E5E72878400705D516
:100A60006068E96820F4E060084360602878000767
:100A700006D56068296920F4605040EAC1006060D2
:100A800000F038F86168084AC1F30311515CC840AE
:100A90000649086006480068FFF7F8FE0020C2E734
:100AA0000020024000100240A63300081000002081
:100AB000080000200448054900684968044AC1F359
:100AC0000221515CC8407047100000200010024015
:100AD000B63300080448054900684968044AC1F370
:100AE000C221515CC8407047100000200010024035
:100AF000B63300080E4A51680E4801F00C03042B6F
:100B000011D0082B0FD10C48C1F38343C903C05C3B
:100B10000AD55168084AC1F34041921E515C054A0A
:100B20005043B0FBF1F07047044948437047000060
:100B30000010024000127A009633000800093D00C0
:100B40002DE9F84F040070D02078C04DC00749D07F
:100B50006868C0F38100012807D06868C0F381008D
:100B6000022809D16868C00306D52868800339D5F2
:100B700060680028E7D035E06068B0F5803F0BD0B2
:100B800010B1B0F5A02F11D0286820F48030286073
:100B9000286820F4802002E0286840F48030286033
:100BA000606890B1FFF752FE06460AE0286840F4FC
:100BB00080202860F0E700BFFFF748FE801B642814
:100BC00073D828688003F7D50CE0FFF73FFE064690
:100BD00005E000BFFFF73AFE801B6428F0D82868C4
:100BE0008003F7D420789A4E80074FF001094FF028
:100BF000000839D5686810F00C0F07D06868C0F39A
:100C00008100022809D16868C00306D428688007DB
:100C100014D52069012808D110E02069B0B1C6F8C8
:100C20000090FFF713FE074605E00AE1FFF70EFE0E
:100C3000C01B0228C4D828688007F7D528686169D6
:100C400020F0F80040EAC10028600DE0C6F80080FE
:100C5000FFF7FCFD074604E0FFF7F8FDC01B022884
:100C600023D828688007F7D4207800072CD5794846
:100C7000A169D9B1C0F80090FFF7E8FD074604E08C
:100C8000FFF7E4FDC01B02280FD8686A8007F7D57C
:100C900071484FF4FA510068B0FBF1F0009000BFCA
:100CA0000098411E0091FAD20EE080E0C0F800806A
:100CB000FFF7CCFD074604E0FFF7C8FDC01B022884
:100CC00075D8686A8007F7D42078400760D5E8694E
:100CD0000027C00008D4E86940F08050E861E86966
:100CE000012700F0805000905C480168C90513D4CA
:100CF0000168834641F480710160FFF7A7FD8246D9
:100D000006E000BFFFF7A2FDA0EB0A0064284ED862
:100D1000DBF80000C005F5D5E06801280AD008B16D
:100D2000052813D0286A20F001002862286A20F0E4
:100D3000040002E0286A40F001002862E06841F205
:100D4000883B98B1FFF782FD82460BE0286A40F0AD
:100D500004002862EEE700BFFFF778FDA0EB0A0170
:100D600059455AD8286A8007F6D50CE0FFF76EFD82
:100D7000824605E0FFF76AFDA0EB0A0159454CD811
:100D8000286A8007F6D41FB1E86920F08050E86136
:100D9000E06988B36968C1F38101022944D002285F
:100DA000C6F8608004D0FFF751FD044638E034E017
:100DB000FFF74CFD074604E0FFF748FDC01B022883
:100DC0002BD828688001F7D4206AB0F5803F05D180
:100DD0006868A16820F4003008436860D4E908011D
:100DE0000843696821F4741108436860C6F860908C
:100DF000FFF72CFD044606E025E000BFFFF726FDC7
:100E0000001B022809D828688001F7D51BE000BF25
:100E1000FFF71CFD001B022802D90320BDE8F88F54
:100E200028688001F4D40EE00128F7D06868226AAF
:100E300000F48031914204D1616A00F4701088425C
:100E400001D00120EAE70020E8E70000001002409E
:100E50000000424280044242100000200070004026
:100E600070B5040009D0606A002540B12561656154
:100E7000A56294F8510040B10CE0012070BD60689B
:100E8000B0F5827FF4D0E561F2E784F85050204657
:100E900000F040F8022084F851002068016821F039
:100EA00040010160A088218900F4827001F40441AE
:100EB0000843A18901F400610843217C01F002018B
:100EC0000843217D01F001010843218B01F40071E9
:100ED0000843217F01F03801084394F8201001F005
:100EE00080010843218D01F4005108432168086006
:100EF000A069042101EA1040216848602068C169A6
:100F000021F40061C1616565012084F85100002071
:100F100070BD000030B585B00024009401940294A7
:100F2000039400681449884223D11448816941F42C
:100F300080518161816901F480510491816941F09E
:100F40000401816180690E4D00F004000490A0202E
:100F50000090022001900320039069462846FFF785
:100F60007FFB4020CDE90004694628460294FFF744
:100F700077FB05B030BD000000300140001002409A
:100F8000000801402DE9FF4F81B01D4693460446FD
:100F90004FF001090E9EFFF759FC074694F85100E7
:100FA0006168012806D0B1F5827F3CD1A168C9BB38
:100FB000042838D10298002871D0BBF1000FFBD073
:100FC000002DF9D094F8500001282CD04FF0010AE0
:100FD00084F850A094F85100042802D0052084F829
:100FE00051004FF00008C4F85480C4F838B0E587C9
:100FF000A58702992163E586A586C4F84080C4F8D8
:10100000448020680168490603D4016841F040012A
:101010000160E068B0F5006F606808D0F0B3012DA2
:1010200049D081E0FFE7022005B0BDE8F08F08B1AC
:10103000012D39D1206B21680088C860206B801C8D
:101040002063E08E401EE0862EE0206881688907DC
:101050000FD5E18E69B1B9F1010F0AD1216B098871
:10106000C160206B801C2063E08E401EE0864FF044
:10107000000920688168C9070CD0E18F51B1C068B0
:10108000A16B0880A06B801CA063E08F401EE087EE
:101090004FF00109FFF7DAFBC01B01E00BE067E04E
:1010A000B04201D3701C50D1E08E0028CDD1E08F2A
:1010B0000028CAD13EE0206B216800780873206BBD
:1010C000401C2063E08E401EE0862DE02068816891
:1010D00089070FD5E18E69B1B9F1010F0AD1216BF2
:1010E00009780173206B401C2063E08E401EE0866F
:1010F0004FF0000920688168C9070CD0E18F51B119
:10110000C068A16B0870A06B401CA063E08F401EFC
:10111000E0874FF00109FFF799FBC01BB04202D3F3
:10112000701C01D011E086B1E08E0028CED1E08F96
:101130000028CBD13A463146204600F0A8FF50B1F6
:101140002020606584F8508012E084F851A084F873
:101150005080032068E7A06818B92068C1688068DB
:10116000009084F851A084F85080606D0028F1D080
:10117000012059E710B5401EB0F1807F01D3012056
:1011800010BD4FF0E02460610F21601701F07AF983
:101190000020A06107202061002010BD704770472B
:1011A000F8B5016804460868CA684B6910F00F0F6B
:1011B0004FF0000559D003F0010602F49077374351
:1011C00065D0C10705D0D10503D5616C41F001019F
:1011D0006164410705D5D90703D0616C41F0020174
:1011E0006164810705D5D90703D0616C41F0040122
:1011F0006164010707D502F02001314303D0616C1F
:1012000041F008016164616C00293AD0800604D580
:10121000900602D5204601F013F820684069616C01
:10122000C0F38010090700D460B3204600F0E1FF4E
:1012300020684069400621D52068143050E8001F1E
:1012400021F0400140E80012002AF5D1E06BA8B17E
:101250006D494163E06BFFF7A5F9002811D0E06B01
:10126000416B01B0BDE8F040084783060FD59306F7
:101270000DD52046BDE8F84000F0E2BF2046FFF75C
:101280008EFFF8BD2046FFF78AFF6564F8BD266B28
:101290002023012E7CD1C6067AD5D60678D50868DB
:1012A0004868009048694FF00206400640D5E16B5F
:1012B000086840680004000CE8D0A28D8242E5D99D
:1012C000E085886920282DD020680C3050E8001F68
:1012D00021F4807140E80012002AF5D12068143012
:1012E00050E8001F21F0010140E80012002AF5D16A
:1012F0002068143050E8001F21F0400140E800123F
:10130000002AF5D184F84230256320680C3050E87B
:10131000001F21F0100140E80012002AF5D1E06B17
:10132000FFF71DF96663A08DE18D401A81B22AE0B6
:10133000A08DE18D401A81B2E08D0028A6D0002951
:10134000A4D022680C3252E8000F20F4907042E8DA
:101350000007002FF5D12068143050E8002F22F04C
:10136000010240E80027002FF5D184F842302563C0
:1013700020680C3050E8002F22F0100240E80023D3
:10138000002BF5D166632046FFF708FFF8BDFFE7A5
:1013900005062BD5150629D594F841002128F5D14D
:1013A000A068B0F5805F01D12069B0B1206A411C0E
:1013B0002162216800784860E08C401E0004000C27
:1013C000E084E3D12068C16821F08001C160206819
:1013D000C16841F04001C160D8E7206A0088C0F3CD
:1013E00008004860206A801C2062E5E74006CDD5F1
:1013F0005006CBD5CA68204622F04002CA6084F865
:10140000413000F0E3F8C1E7E321000870B50400C3
:1014100004D094F84100002510B106E0012070BD11
:1014200084F84050204600F023F8242084F841003E
:101430002068C16821F40051C160204600F062FFBD
:101440002068016921F4904101612068416921F01F
:101450002A0141612068C16841F40051C16065649E
:10146000202084F8410084F842006563002070BDAC
:1014700030B585B000240094019402940394006870
:10148000184988422CD11848816941F48041816112
:10149000816901F480410491816941F00401816115
:1014A0008069124D00F0040004904FF40070009029
:1014B000022001900320039069462846FFF7D0F8E8
:1014C0002815CDE90004694628460294FFF7C8F8BC
:1014D000002201212520FFF725FA2520FFF714FA25
:1014E00005B030BD00380140001002400008014046
:1014F00090F84230202B01D00220704721B11AB160
:101500000023036300F05ABF0120704700680449BC
:10151000884204D1012203490348FFF7E9BF70471D
:101520000038014000000020700000202DE9F84341
:10153000044690F84100984616460D46202802D0F1
:101540000220BDE8F88385B17EB1002060642120CF
:1015500084F84100FFF77AF9A6848146E684A06802
:101560002027B0F5805F02D003E00120E9E7206981
:1015700010B12E4600250EE000260CE0802120460A
:1015800000F037FFA8B9C6B116F8010B2168486012
:10159000E08C401EE084E08C4B464FF00002CDF81A
:1015A00000800028EAD14FF04001204600F021FFE2
:1015B00040B184F841700320C3E735F8020BC0F353
:1015C0000800E3E784F841700020BAE77047FEE7BF
:1015D0002DE9F04104461D4616460F462A2000F02C
:1015E000B2FC204600F098FC304600F095FC2B2021
:1015F00000F0A9FC384600F08FFC284600F08CFC77
:10160000BDE8F0412C2000F09EBC10B514460B46FE
:101610000246FFF7DDFF2046BDE8104000F07CBC2D
:101620002DE9F04780461F46581E83B21646501ECD
:1016300082B20C464046DDF82090FFF7C9FF0AE071
:10164000454604E0484600F067FC6D1CADB2B5426B
:10165000F8D3641CA4B2BC42F2D3BDE8F08710B545
:10166000002000F04BFF002000F076FF3220FEF754
:10167000E5FF012000F070FF3220FEF7DFFF0120C0
:1016800000F03CFF112000F05EFC0A20FEF7D6FFC0
:10169000362000F058FC002000F04BFC3A2000F00F
:1016A00052FC052000F045FCB22000F04CFC0C2060
:1016B00000F03FFC0C2000F03CFC002000F039FC66
:1016C000332000F036FC332000F033FCB72000F06C
:1016D0003AFC352000F02DFCBB2000F034FC352016
:1016E00000F027FCC02000F02EFC2C2000F021FC94
:1016F000C22000F028FC012000F01BFCC32000F0F9
:1017000022FC132000F015FCC42000F01CFC20205B
:1017100000F00FFCC62000F016FC0F2000F009FCC2
:10172000D02000F010FCA42000F003FCA12000F069
:1017300000FCD62000F007FCA12000F0FAFBE0201E
:1017400000F001FCF02000F0F4FB002000F0F1FBC1
:10175000042000F0EEFB042000F0EBFB042000F07E
:10176000E8FB052000F0E5FB292000F0E2FB332038
:1017700000F0DFFB3E2000F0DCFB382000F0D9FB5E
:10178000122000F0D6FB122000F0D3FB282000F03E
:10179000D0FB302000F0CDFBE12000F0D4FBF020A6
:1017A00000F0C7FB072000F0C4FB0A2000F0C1FBDB
:1017B0000D2000F0BEFB0B2000F0BBFB072000F06B
:1017C000B8FB282000F0B5FB332000F0B2FB3E2030
:1017D00000F0AFFB362000F0ACFB142000F0A9FBBA
:1017E000142000F0A6FB292000F0A3FB322000F01B
:1017F000A0FB212000F0A7FB112000F0A4FB782023
:10180000FEF71CFFBDE81040292000F09CBB000043
:101810002DE9FF4F81B00446DDF83C9000904FEA7F
:1018200059074FF00008780700D0012000EBD700DF
:1018300000FB09FB203AD0B2039002980299484479
:10184000401E83B2E019401E82B22046FFF7C0FE60
:10185000002553E0B9F10C0F2AD0B9F1100F2ED0AA
:10186000B9F1180F2ED0B9F1200F49D127490398AB
:1018700001EB8010002610F805A0109800284FF00A
:10188000010000FA06F000EA0A0022D020B120464A
:10189000049A0299FFF7B9FE641C0098A4B2201ABA
:1018A000B84225D10298009C401C80B2029023E0EF
:1018B0000398174900EB400001EB8000DAE7154977
:1018C000039803E00398144900EB400001EB00107B
:1018D000D0E708B1049800E00E9800F01DFB08F175
:1018E0000100C0B2B0FBF7F1804607FB118050B198
:1018F000761CF6B2082EC0D36D1CADB25D45A9D3DF
:1019000005B0BDE8F08F4FF00008F5E7F24F000892
:10191000BE33000832380008223E00082DE9FE4F91
:101920009946DDE90D4615468A460746DDF83080C2
:1019300014E00C2C17D0102C20D0182C29D0202CDF
:101940000FD1CDF80080CDE901464B462A465146DD
:10195000384600F09BF9381987B2AD1C287800286A
:10196000E7D1BDE8FE8FCDF80080CDE901464B46BA
:101970002A465146384600F017F8ECE7CDF80080CB
:10198000CDE901464B462A465146384600F088F8D4
:10199000E1E7CDF80080CDE901464B462A465146A5
:1019A000384600F0F7F8D6E72DE9FF4F83B08046C0
:1019B000119D00904FF00009680700D0012000EB56
:1019C000D50000FB05FB05200026029006EB8600F3
:1019D00000EBC6013148059A10F811301278934295
:1019E00051D100EB41000190417805984078814247
:1019F00049D1049804992844401E83B208EB05009D
:101A0000401E82B24046FFF7E3FD002739E001980F
:101A1000002400EB070A12989AF8021000284FF0F1
:101A2000010000FA04F001EA000115D021B140469E
:101A3000069A0499FFF7E9FD08F101001FFA80F802
:101A40000098A8EB0000A84215D10498DDF80080AA
:101A5000401C80B2049012E009B1069800E0109892
:101A600000F05AFA09F10100C0B2B0FBF5F181466D
:101A700005FB119078B1641CE4B2082CCBD37F1C19
:101A8000FFB25F45C3D3761C0298B6B286429DD39F
:101A900007B0BDE8F08F4FF00009F0E7B26700082B
:101AA0002DE9FF4F83B08046119D00904FF0000953
:101AB000680700D0012000EBD50000FB05FB0520E6
:101AC000002602903248059A06EB061110F81130F4
:101AD0001278934250D100EB410001904178059873
:101AE0004078814248D1049804992844401E83B22A
:101AF00008EB0500401E82B24046FFF769FD002753
:101B000038E00198002400EB070A12989AF80210B6
:101B100000284FF0010000FA04F001EA000114D09F
:101B200021B14046069A0499FFF76FFD08F10100C4
:101B300000991FFA80F8A8EB0100A84214D104987C
:101B40008846401C80B2049012E009B1069800E07B
:101B5000109800F0E1F909F10100C0B2B0FBF5F115
:101B6000814605FB119078B1641CE4B2082CCCD3FB
:101B70007F1CFFB25F45C4D3761C0298B6B2864282
:101B8000A0D307B0BDE8F08F4FF00009F0E70000E8
:101B9000346800082DE9FF4F83B08046119D009006
:101BA0004FF00009680700D0012000EBD50000FBD2
:101BB00005FB05200026029006EB860000EB46118F
:101BC0003148059A10F811301278934251D100EB48
:101BD00041000190417805984078814249D10498AC
:101BE00004992844401E83B208EB0500401E82B2CF
:101BF0004046FFF7EDFC002739E00198002400EB98
:101C0000070A12989AF8021000284FF0010000FA13
:101C100004F001EA000115D021B14046069A04996A
:101C2000FFF7F3FC08F101001FFA80F80098A8EB19
:101C30000000A84215D10498DDF80080401C80B255
:101C4000049012E009B1069800E0109800F064F9E1
:101C500009F10100C0B2B0FBF5F1814605FB11901E
:101C600078B1641CE4B2082CCBD37F1CFFB25F4573
:101C7000C3D3761C0298B6B286429DD307B0BDE8A6
:101C8000F08F4FF00009F0E7DE6800082DE9FF4F04
:101C900083B08046119D00904FF00009680700D086
:101CA000012000EBD50000FB05FB0520002602907B
:101CB0003248059A06EB861110F8113012789342DB
:101CC00050D100EB41000190417805984078814265
:101CD00048D1049804992844401E83B208EB0500BB
:101CE000401E82B24046FFF773FC002738E001989F
:101CF000002400EB070A12989AF8021000284FF00F
:101D0000010000FA04F001EA000114D021B14046BC
:101D1000069A0499FFF779FC08F1010000991FFA6F
:101D200080F8A8EB0100A84214D104988846401C12
:101D300080B2049012E009B1069800E0109800F01B
:101D4000EBF809F10100C0B2B0FBF5F1814605FBEB
:101D5000119078B1641CE4B2082CCCD37F1CFFB284
:101D60005F45C4D3761C0298B6B28642A0D307B0B2
:101D7000BDE8F08F4FF00009F0E70000506A00085E
:101D80002DE9FF4F83B08346129F1D467E081F49F1
:101D90001046FEF7E9F9FEF7C0FA00241FFA80F9B1
:101DA000A2462DE0281B401EC1B20A2000F0AAFC6A
:101DB000B9FBF0F00A21B0FBF1F201FB1208A81EFA
:101DC00084420ED1119A00FB06B08DE8840480B2E3
:101DD0002E22109B0499FFF71BFD641C6D1CE4B2BE
:101DE000EDB2119908F130008DE88204C2B204FB13
:101DF00006B080B2109B0499FFF70AFD641CE4B2A0
:101E0000AC42CFD307B0BDE8F08F00000000C8425D
:101E10002DE9FF4F83B00026DDE911B81D4682464B
:101E20004FEA58073446B1462CE0281B401EC1B289
:101E30000A2000F067FC0599B1FBF0F00A21B0FB25
:101E4000F1F201FB120026B9691E8C4201DA58B189
:101E500001263030C2B204FB07A0CDF800B0CDE9B6
:101E6000018980B2109B08E0CDF800B004FB07A008
:101E7000CDE90189109B80B220220499FFF7C8FCAC
:101E8000641CE4B2AC42D0D307B0BDE8F08F2DE9BA
:101E9000F0471F469046CA19521E93B200EB080243
:101EA000521E002592B2DDF82090FFF791FB00262C
:101EB00011E000240BE019F8150000F03AF809EBE6
:101EC0004500407800F035F8641CA4B26D1CBC429B
:101ED000F1D3761CB6B24645EBD3BDE8F0872DE9C9
:101EE000FE4F9946DDE90D6714468A460546DDF842
:101EF00030800CE0CDF800804B4651462846CDE9B5
:101F00000167FFF785FC05EB560085B2641C22785B
:101F1000002AEFD1BDE8FE8F10B50446012000F085
:101F2000FDFA200A00F01CF8E0B2BDE8104000F015
:101F300017B810B50446012000F0F0FA2046BDE8BD
:101F4000104000F00DB810B50446002000F0E6FA8D
:101F5000204600F005F8BDE81040012000F0DEBA90
:101F600000F0EABAF0B585B0002000900190029030
:101F700003902248816941F010018161816901F07B
:101F800010010491816941F020018161816901F0B2
:101F900020010491816941F004018161816901F0AE
:101FA00004010491816941F0080181618069012285
:101FB00000F00800124E5403049021463046FEF70C
:101FC0003FFC104F40F20345012229463846FEF7F8
:101FD00037FC00940124019402946946304603942E
:101FE000FEF73EFB0320CDE90240CDE900546946EF
:101FF0003846FEF735FB05B0F0BD0000001002408A
:1020000000100140000C0140104810B50E4901605D
:102010004FF482714160002102228160C0E9031205
:102020001202C0E905120822C0E90721416281625B
:102030000A21C162FEF714FF002803D0BDE810405A
:10204000FEF78BBA10BD00000030014018000020E0
:102050000C4810B50A4901604FF4E131416000219C
:1020600081600C22C160C0E904128161C161FFF787
:10207000CDF9002803D0BDE81040FEF76EBA10BDC0
:102080000038014070000020FEE7FEE77047F8B519
:1020900015460E460B46009204460122022100F02E
:1020A00011F840B93346002280212046009500F007
:1020B00009F8002804D0606D40F02000606503201E
:1020C000F8BD00002DE9F8431E46914688460446B7
:1020D000089DFEF7BBFB401B351AFEF7B7FB074612
:1020E00025480068C0F3CB30684338E0701C37D017
:1020F000FEF7ACFBC01BA84203D215B1009860B339
:102100002CE02068416821F0E00141606068B0F592
:10211000827F0BD1A068B0F5004F02D0B0F5806F80
:1021200004D12068016821F040010160A06AB0F587
:10213000005F09D12068016821F400510160206826
:10214000016841F400510160012084F85100002031
:1021500084F850000320BDE8F8830025401E00905D
:102160002068816838EA010004D000214945BDD1CA
:102170000020F0E70121F9E7100000207047FEF78A
:102180006BBB30B58FB028216846FDF7E2FF142104
:102190000AA8FDF7DEFF01210804CDE900100024A4
:1021A000029402250491CDE907504FF4E010099004
:1021B0006846FEF7C5FC08B172B6FEE70F20CDE910
:1021C0000A054FF48060CDE90C4002210AA80E9464
:1021D000FEF7DAFB002801D072B6FEE70FB030BD83
:1021E000704710B5406A0021C185C184FEF7D7FF52
:1021F00010BD01680C3151E8002F22F4907241E8C3
:102200000023002BF5D10168143151E8002F22F092
:10221000010241E80023002BF5D1016B012909D10E
:1022200001680C3151E8002F22F0100241E8002330
:10223000002BF5D1202180F8421000210163704766
:1022400008B590F84210222901D0022008BD82680A
:102250004FF480539A4201D1016921B1816A9A42B7
:102260001BD04AB10AE00268816A5268C2F30802D0
:102270000A80816A891C08E0026972B102685268AA
:1022800002F07F020A70816A491C8162C18D491E79
:102290000904090CC18503D01BE002685268F1E70C
:1022A0000168CA6822F02002CA600168CA6822F484
:1022B0008072CA6001684A6922F001024A612021E5
:1022C00080F8421000214163026B012A03D0FFF71E
:1022D0001DF9002008BD016301680C3151E8002F91
:1022E00022F0100241E80023002BF5D101680A68B2
:1022F000D20602D50A6849680091818DFEF74EFF2B
:10230000E7E7000070B5044600680169E26821F45F
:102310004051114301612169A06808436169084384
:102320002168CA6841F20C639A430243CA6020687C
:102330004169A26921F44071114341611E4920683D
:10234000884202D1FEF7C6FB01E0FEF7B3FB00EBCB
:10235000C00101EB0012606864218000B2FBF0F361
:10236000B3FBF1F36FF018067343B2FBF0F5B2FB69
:10237000F0F605EB8305322303EB0515B5FBF1F50C
:10238000B6FBF1F605F0F00505EB0615B2FBF0F62D
:10239000B2FBF0F0B0FBF1F06FF01802504306EB27
:1023A000800003EB0010B0FBF1F0216800F00F009B
:1023B0002844886070BD0000003801408162828539
:1023C000C28500214164222180F84210016921B1B7
:1023D0000168CA6842F48072CA6001684A6942F0C2
:1023E00001024A610068C16841F02001C16000201B
:1023F00070472DE9F843984617460D460446089E57
:1024000024E0701C22D0FEF721FAA0EB0800B042B5
:102410001AD8CEB12068C168490717D5802D15D0CC
:10242000402D13D00168C94309070FD40168002566
:10243000406800902046FFF7DCFE0820606484F8C6
:1024400040500120BDE8F8830320FBE720680068C6
:1024500035EA000004D00020B842D2D00020F1E7D5
:102460000120F9E70148FEF79BBE00007000002044
:10247000FEE70000014A024900F023B8E524000805
:10248000140000200907090E002804DB00F1E020F9
:1024900080F80014704700F00F0000F1E02080F891
:1024A000141D704702E008C8121F08C1002AFAD1A3
:1024B00070477047002001E001C1121F002AFBD1C4
:1024C00070472DE9F04116460F460446002503E00B
:1024D0003946B047641C6D1C20780028F8D1284686
:1024E000BDE8F08113B54FF0FF3301226946024881
:1024F000FFF71CF800981CBD70000020064B4FF43D
:10250000806128B1012805D101221846FEF798B94B
:102510000022FAE770470000000C0140054B30B183
:10252000012806D1012202211846FEF789B90022AE
:10253000F9E77047000C014001B582B064200090BB
:10254000012301AA02A90348FEF71CFD9DF804001F
:102550000EBD000018000020054B30B1012806D147
:10256000012201211846FEF76BB90022F9E77047F6
:10257000000C01400EB54FF00009FEF775F9FFF7AA
:1025800000FEFFF7EFFCFFF763FDFFF73DFDFDF7F2
:10259000D1FF46480068C16841F02001C1600122B6
:1025A00043494248FEF7A4FFFFF759F84FF6FF747E
:1025B000F02300211A4608460094FFF731F83DA0A9
:1025C000FFF758FF4FF0000BA2464FF0780820208D
:1025D000CDE900A04FF4784700215E4654463B46C3
:1025E00039A2CDF808B00846FFF798F910258DE814
:1025F00070003B4637A228210020FFF770FC0097AF
:102600000323F02228213020CDE90145FFF700FC0B
:102610008DE870003B4631A228215020FFF75FFC77
:1026200000970323F02228218020CDE90145FFF700
:10263000EFFB8DE870003B4628A228215020FFF7D1
:102640004EFC8DE870003B4626A246210020FFF795
:1026500046FC009704234A4646218020CDE90145E7
:10266000FFF78EFB4846FDF76CFE234A234BFDF730
:10267000ADFDFDF779FE224F8146002505EB850172
:10268000002408EBC10604EB840028233146C00077
:102690001A460097FFF7FBFB641CE4B2062CF2D34A
:1026A0006D1CEDB2032DE9D391E70000700000200E
:1026B00000000020696E69742066696E6973686540
:1026C00064210D0A00000000D6D0BEB0D4B0B5E73A
:1026D000D7D300004C43445F573A00004C43445F5B
:1026E000483A0000496E637265617365696E6720E0
:1026F0004E756E3A00000000295C8FC2F528BC3F81
:10270000142700080246012000E05043491EC9B2C8
:10271000FBD27047FFFFFFFFFFFFFFFFFFFFFFFF41
:10272000FFFFFFFFFFFFFFFFFFFFFFFFFFFFFFFFB9
:10273000FFFFF7BEFFFFFFDEC6388C926B8E6B6E1D
:102740007C10AD96E73CFFFFFFFFFFFFFFFFFFFFA1
:10275000FFFFFFFFFFFFFFFFFFFFFFFFFFFFFFFF89
:10276000FFFFFFFFFFFFFFFFFFFFFFFFFFFFFFFF79
:10277000FFFFFFFFFFFFFFFFFFFFFFFFFFFFFFFF69
:10278000FFFFEF5D9D15634F426C320A29881946A1
:102790001925214531E86B8EC638FFFFFFFFFFFF8B
:1027A000FFFFFFFFFFFFFFFFFFFFFFFFFFFFFFFF39
:1027B000FFFFFFFFFFFFFFFFFFFFFFFFFFFFFFFF29
:1027C000FFFFFFFFFFFFFFFFFFFFFFFFFFFFFFFF19
:1027D000A53653104B1053514B0F3A6C31E921671A
:1027E000192510E408A30062088352CBD69AFFFF94
:1027F000FFFFFFFFFFFFFFFFFFFFFFFFFFFFFFFFE9
:10280000FFFFFFFFFFFFFFFFFFFFFFFFFFFFFFFFD8
:10281000FFFFFFFFFFFFFFFFFFFFFFFFE73C6370CE
:1028200063B37CB863F54311324D29EA2188192638
:10283000190519051104110410E4008308A38C7212
:10284000FFFFFFFFFFFFFFFFFFFFFFFFFFFFFFFF98
:10285000FFFFFFFFFFFFFFFFFFFFFFFFFFFFFFFF88
:10286000FFFFFFFFFFFFFFFFFFFFDEDB3A4B42F002
:102870006C354B5432B12A2E21EB21A91967190569
:1028800011041104110411041104190510E400428B
:1028900073AFFFFFFFFFFFFFFFFFFFFFFFFFFFFF24
:1028A000FFFFFFFFFFFFFFFFFFFFFFFFFFFFFFFF38
:1028B000FFFFFFFFFFFFFFFFEF5D3209324C4B10C0
:1028C000328F2A4F2A2E19CC1989218919471905C7
:1028D0001104110410C410C411041104110410E4F3
:1028E00000428431FFFFFFFFFFFFFFFFFFFFFFFFFD
:1028F000FFFFFFFFFFFFFFFFFFFFFFFFFFFFFFFFE8
:10290000FFFFFFFFFFFFFFFF52EC1947324C2A0B7E
:1029100021EC21EC220C5B914AEE110619261904D8
:1029200010E410E429A7216608A319051104110475
:1029300010E40082BDF7FFFFFFFFFFFFFFFFFFFF77
:10294000FFFFFFFFFFFFFFFFFFFFFFFFFFFFFFFF97
:10295000FFFFFFFFFFFFA53508832188218821891C
:1029600021AA218A426B8C71FFFF8C7208831104AB
:1029700008C44229DEFBEF5D5AEC08831104110400
:102980001104088331E8FFDFFFFFFFFFFFFFFFFFB8
:10299000FFFFFFFFFFFFFFFFFFFFFFFFFFFFFFFF47
:1029A000FFFFFFFFF7BE31C710C4192519261947CD
:1029B000194729A8528A4A28AD55FFFF31E808A3D4
:1029C00019056B4D6B4DFFFFEF7D214510C41104C0
:1029D000110411040062AD76FFFFFFFFFFFFFFFF50
:1029E000FFFFFFFFFFFFFFFFFFFFFFFFFFFFFFFFF7
:1029F000FFFFFFFFB59600621104190411051905C8
:102A000008C44A8BB5B6EF5DBDF7FFFF6B8E006261
:102A100042295AAA4208FFFFFFFF52CC0883110443
:102A20001104110408A352ADFFFFFFFFFFFFFFFFDA
:102A3000FFFFFFFFFFFFFFFFFFFFE71CFFFFFFFFA1
:102A4000FFFFFFFF634E006211041104110410E444
:102A50000062638EFFFFFFFFFFFFFFFF73CF0001E8
:102A60009CF3632CB596FFFFFFFF5B2D00831104E1
:102A70001104110410E42167EF3DFFFFFFFFFFFF8A
:102A8000FFFFFFFFBDF8B5B7EF9E52CB94B3FFFF3A
:102A9000FFFFFFDF31E808A3110411041104110442
:102AA00008A34249F7FFF7FFFFFFFFFF4A6A000153
:102AB0008472FFFFFFFFF7FFEFDF3A0908A311045D
:102AC0001104110411041105BE18FFFFFFFFFFFFE1
:102AD000FFFFFFFF7BF0006231E831C70041A53501
:102AE000FFFFEF5D214610C411041104110411040D
:102AF00010E408A39D76F7FFFFFFADB708A308A376
:102B000031C7E79EF7FFF7FFA57608A310E411048D
:102B10001104110411051105A535FFFFFFFFFFFF8B
:102B2000FFFFFFFFDEDB29A7008310C410C410C421
:102B3000E71CEF9E110510E41104110411041104A7
:102B4000190408C410E56BD16BD108C5006408A551
:102B50000043322B9D7784B3192510C4110411044E
:102B600011041104192509269D35FFFFFFFFFFFF02
:102B7000FFFFFFFFFFFF73AF00621904190500821A
:102B80005B0D9B8E1062110511041104190410E4F1
:102B90000085110539C45A817B409C22AC43A403B3
:102BA0009B837282498218C200A400C510E41904F4
:102BB00011041905194711675AECFFBEFFFFFFFF0B
:102BC000FFFFFFFFFFDFDEDB10C410E4110411057F
:102BD00018A4C001888300E41905190408C521441C
:102BE0008343D523FE42FEE4FF27FF07FEA4FE64D5
:102BF000FE03FDA3FCE2EC42B383622410E508C4AB
:102C00001904192619A821879000BCD3FFFFFFFFE4
:102C1000FFFFFFFFFFDFFFFF7C10004219051105DA
:102C20002883D001F84448A300E408C55A44ED02C3
:102C3000FDE2FE02FE66FF74FFB8FF73F6E7F6A63C
:102C4000F645F5A4FCC3FC62FCC2FCC2CBE349C45C
:102C500011061988018790A4F8019AECFFFFFFFF85
:102C6000FFFFFFFFFFFFFFFFF7BE31E8008309050D
:102C70004082C001F823F08548A300A45A44FD0215
:102C8000CC23DCC2FE04FE28F648F646F624F5E422
:102C9000FD64FCE3FC62FCC2E402DC02FCE27AA418
:102CA0000148016778C4F824F802B084E77DFFFF8B
:102CB000FFFFFFFFFFFFFFFFFFFFDEDB192500A384
:102CC00038C4E002D822F844F8A678A4006321436F
:102CD000728339839B82F521FD61FD22FCE2FCA217
:102CE000FC42FC42FC42AB22418392C352040126C7
:102CF000192598A4F844F823F802D0A4EF9EFFFF0A
:102D0000FFFFFFFFFFFFFFFFFFFFFFFFD69A2987AF
:102D100000A5B843F822E023F865F8E8C90748831E
:102D2000004200A3008429637AA2B362CBA2D362DB
:102D3000BB028A82398300A400E500E508E560C48F
:102D4000D864F844F824F823F8028883C6DBFFFF30
:102D5000FFFFFFFFFFFFFFFFFFFFFFFFFFFFE73D5D
:102D60005B503108E823F843F044F865F909F9AB02
:102D7000D189890648A318420002004200610082FE
:102D800000620062008320A350C488A5D885F8653E
:102D9000F844F844F823F823D003108229C7EF5DE4
:102DA000FFFFFFFFFFFFFFFFFFFFFFFFFFFFFFFF33
:102DB000FFFF326C38A5D802F823F865F866F8A74B
:102DC000F94AFA0CFA4DEA4CD20BB9A9B168A947F5
:102DD000B127B907D107E8E7F8C7F8A7F865F8659C
:102DE000F844F823F803D00228A3090508C45AECD4
:102DF000FFFFFFFFFFFFFFFFFFFFFFFFFFFFFFFFE3
:102E0000DEFB190500C441A7C0E6F803F886F8A761
:102E1000F887F886F8C7F929F98AF9ABF9ABF98B85
:102E2000F96AF929F908F8C7F8A6F886F865F86488
:102E3000F823F002B106292500E410E4192519252C
:102E40009D14FFFFFFFFFFFFFFFFFFFFFFFFFFFFDF
:102E5000AD96006208829535CEBAA28BD044F82593
:102E6000F887F8A7F8C7F8A7F887F886F886F886ED
:102E7000F887F8A7F8A7F8A6F885F865F864F024AD
:102E8000B864930DB6BB63CF0883110410E42166C8
:102E90003A49EF5DFFFFFFFFFFFFFFFFFFFFFFFF6F
:102EA00094D3004210E4CEBBFFFFE7BEB576AACCB8
:102EB000C107E045F845F846F866F886F886F886D2
:102EC000F886F865F845F865E865D044A8438801B8
:102ED0009082D73CEFFF9555088311041104190522
:102EE000194694B3FFFFFFFFFFFFFFFFFFFFFFFF48
:102EF00094B300412186DF5DFFFFFFFFFFFFE7DFA7
:102F0000C67AB4D3B34EC22AD168E0E6E8A6E8A5F3
:102F1000E8A5D8E6C988A906A822A802A000C8008A
:102F2000D800E5F7E7FFADF810C410E4110410E491
:102F300011054A8BFFFFFFFFFFFFFFFFFFFFFFFFB2
:102F4000A555004129A7DF5DF7FFFFFFFFFFFFFF4A
:102F5000FFFFFFFFEFFFDF7DCEDBCE59CDF8CDD7F2
:102F6000C5F7CE79BEFBA2ABF003F845D042E843EB
:102F7000F000D472DFFFAE3910E410E4110410E465
:102F800011052987FFFFFFFFFFFFFFFFFFFFFFFF87
:102F9000CE5908832146D71CF7FFFFFFFFFFFFFF35
:102FA000FFFFFFFFFFFFFFFFFFFFFFFFFFFFFFFF31
:102FB000FFFFFFFFEFFFBA8BF804F845E062F04433
:102FC000F800DB8EDFFFA5F810C410E410E4110454
:102FD00010E41925FFFFFFFFFFFFFFFFFFFFFFFFCB
:102FE000F7BE29870883B639F7FFF7DFFFFFFFFF3A
:102FF000FFFFFFFFFFFFFFFFFFFFFFFFFFFFFFFFE1
:10300000FFFFFFFFE7BEBA4AF803F845F864F8444B
:10301000F800E36ED7FF8CF40883110410E410E489
:1030200010E41905FFFFFFFFFFFFFFFFFFFFFFFF9A
:10303000FFFF73EF00008472EFFFEFBEFFDFFFFFC3
:10304000FFFFFFFFFFFFFFFFFFFFFFFFFFFFFFFF90
:10305000FFFFFFFFE7DFBA8BF803F845F845F823D9
:10306000F800D4D3D7FF5B4E00213A29A555088339
:1030700010C41925FFFFFFFFFFFFFFFFFFFFFFFF4A
:10308000FFFFDEFB08A331E8DF9EE79EEFBFFFFFF7
:10309000FFFFFFFFFFFFFFFFFFFFFFFFFFFFFFFF40
:1030A000FFFFFFFFF7FFBC51E002F803F003E0432E
:1030B000C2ECCF7EBEFC2146002194D3FFFF845199
:1030C00000002987FFFFFFFFFFFFFFFFFFFFFFFF5C
:1030D000FFFFFFFF845100008CF4EFFFE79EEFBF7E
:1030E000FFDFFFFFFFFFFFFFFFFFFFFFFFFFFFFF10
:1030F000FFFFFFFFFFFFDF3DBD55BC52BC72B5B700
:10310000C75DDFFF6BF000003A09F7BFFFFFFFFF6D
:103110009D14A555FFFFFFFFFFFFFFFFFFFFFFFF10
:10312000FFFFFFFFFFFF4AAC08A4BEBBE7DFE77E5F
:10313000EFBEF7DFFFDFFFFFFFFFFFFFFFFFFFFF38
:10314000FFFFFFFFFFDFF7DFEFFFDFDFD7BFD79E18
:10315000DFDFA5D808831126D6DBFFFFFFFFFFFFC7
:10316000FFFFFFFFFFFFFFFFFFFFFFFFFFFFFFFF6F
:10317000FFFFFFFFEE79DC8B312121A9CF3DDFBFBF
:10318000DF7EE79EEFBEEFBFF7DFF7DFF7DFF7DFAA
:10319000F7DFEFBFEFBEE79EDF7ED75ED75EDFDFF4
:1031A000B69A19260842A3EDFFBFFFFFFFFFFFFFFE
:1031B000FFFFFFFFFFFFFFFFFFFFFFFFFFFFFFFF1F
:1031C000FFFFDD74DBC0FE00EE4242022189B67BC8
:1031D000DFDFD77EDF7EDF7EE79EE79EE79EE79E0E
:1031E000E79EDF7EDF7ED75DD75DDF9EE7FFA5F838
:1031F000110718E3C502FD60D3E6EEDBFFFFFFFF1A
:10320000FFFFFFFFFFFFFFFFFFFFFFFFFFFFFFFFCE
:10321000F79EBA84FCC1FE42FE82FEA28381214554
:103220007474C75EDFDFD77ED75ED75DD75ED75EAB
:10323000D75DD75DD75EDF9EE7FFC73D63F10884AA
:103240005242E626FF29FE86F3E0C36AFFFFFFFF36
:10325000FFFFFFFFFFFFFFFFFFFFFFFFFFFFFFFF7E
:10326000DE18D2C1FDA2FE22FE42FE42FE62D4E280
:103270006A4142497453A63BC73ED7BFD7BFD7BFA9
:10328000DFBFD7BFC73EA61A63F229A74182B42287
:10329000FE62FE83FEAAFF0FFD67BA63EF3CFFFFED
:1032A000FFFFFFFFFFFFFFFFFFFFFFFFFFFFFFFF2E
:1032B000E69AD280FD21FDC2F5E2F5C2F582FD82DB
:1032C000FD62DC619B216A846AE9632C63AF74113F
:1032D000636E632C5A8952047A81CBC2FCE2FD6290
:1032E000FD82FDC2FDC2FDE4FD24CA62E71CFFFFB2
:1032F000FFFFFFFFFFFFFFFFFFFFFFFFFFFFFFFFDE
:10330000FFFFCCB1D281F3C0FCC1FD02FD02FCE2A3
:10331000FCC2FCC2FC81FB80C9C081A4AD35CE5982
:103320009C718121DA00FBA1FC82FCA2FC82FCA240
:10333000FD02FD22FCE2FC00DA60CC90FFFFFFFF03
:10334000FFFFFFFFFFFFFFFFFFFFFFFFFFFFFFFF8D
:10335000FFFFFFFFDE59C40DCB06D2E4DB03DB0326
:10336000DAE3D2C3C2A4B309BCD2F79EFFFFFFFFCA
:10337000FFFFE6FBB40EBAA6D283E2E3EB02EB2238
:10338000E322DB03D2E4C36AD5B6FFFFFFFFFFFFF2
:10339000FFFFFFFF010202030405060708090A0BED
:1033A0000C0D0E0F101000000000000000000102C4
:1033B00003040607080900000000010203040000DE
:1033C00000000000000000000000000004040404ED
:1033D00004000004000014140A00000000000000B3
:1033E000000000000A0A1F0A0A1F0A0A000000045F
:1033F0000E1505060C14150E0400000012150D150F
:103400002E2C2A1200000000040A0A36151529166F
:10341000000002020100000000000000000010088F
:10342000080404040404080810000204040808083E
:1034300008080404020000000004150E0E15040024
:10344000000000000008083E08080000000000001E
:103450000000000000000202010000000000003F28
:10346000000000000000000000000000000000025A
:1034700000000020101008080404020201000000EF
:103480000E1111111111110E0000000004060404A8
:103490000404040E000000000E1111080402011FB4
:1034A000000000000E11100C1010110E00000000A2
:1034B000080C0C0A091F081C000000001F01010F66
:1034C0001110110E000000000C12010D1311110E4D
:1034D000000000001E10080804040404000000009E
:1034E0000E11110E1111110E000000000E11111914
:1034F000161009060000000000000400000000048F
:1035000000000000000000040000000404000000AF
:1035100010080402020408100000000000003F0030
:103520003F00000000000000020408101008040220
:10353000000000000E111108040400040000000047
:103540001C22292D2D1D221C0000000004040C0A41
:103550000A1E1233000000000F12120E1212120F78
:10356000000000001E1101010101110E0000000009
:103570000F1212121212120F000000001F120A0E78
:103580000A02121F000000001F120A0E0A020207A0
:10359000000000001C1201013911120C0000000093
:1035A0003312121E12121233000000001F04040412
:1035B0000404041F000000003E080808080808086A
:1035C0000907000037120A060A121237000000002D
:1035D000070202020202223F000000003B1B1B1BED
:1035E00015151535000000003B1216161A1A121791
:1035F000000000000E1111111111110E0000000049
:103600000F12120E02020207000000000E1111112B
:103610001117190E180000000F12120E0A1212379D
:10362000000000001E1101060810110F000000002C
:103630001F1504040404040E0000000033121212CB
:103640001212120C000000003312120A0A0C0404B9
:1036500000000000151515150E0A0A0A00000000EA
:103660001B0A0A04040A0A1B000000001B0A0A0ABB
:103670000404040E000000001F0908040402121FC5
:1036800000001C0404040404040404041C000002DC
:10369000020404040808081010000E0808080808AE
:1036A000080808080E00040A0000000000000000DE
:1036B000000000000000000000000000003F0204C5
:1036C0000000000000000000000000000000000CEE
:1036D000121C123C000000030202020E1212120E13
:1036E000000000000000001C1202120C0000001874
:1036F0001010101C1212123C000000000000000C00
:10370000121E021C000000182404041E0404041EDF
:10371000000000000000003C120C021C221C0003F0
:103720000202020E1212123700000004040000060A
:103730000404040E000000080800000C0808080833
:10374000080700030202021A0A060A130000000713
:10375000040404040404041F000000000000000F1F
:1037600015151515000000000000000F1212123789
:10377000000000000000000C1212120C00000000FB
:103780000000000F1212120E020700000000001CC1
:103790001212121C103800000000001B0602020763
:1037A000000000000000001E020C101E00000000BF
:1037B0000004041E0404041C000000000000001BA0
:1037C0001212123C000000000000001B0A0A040450
:1037D0000000000000000015150E0A0A000000009D
:1037E0000000001B0A040A1B000000000000003358
:1037F00012120C08040300000000001E0804041E3E
:10380000000018080808080C08080808180008082C
:10381000080808080808080808080604040404083A
:103820000404040406001609000000000000000063
:103830000000000000000000000000000000000088
:103840000000000000080808080808080000181810
:10385000000000486C24120000000000000000007E
:1038600000000000002424247F1212127F12121282
:1038700000000000081C2A2A0A0C1828282A2A1CE2
:10388000080800000022251515152A585454542202
:1038900000000000000C1212120A76252911916E08
:1038A0000000000606040300000000000000000005
:1038B0000000004020101008080808080810102018
:1038C000400000020408081010101010100808042E
:1038D00002000000000008086B1C1C6B08080000B8
:1038E000000000000000080808087F080808080019
:1038F00000000000000000000000000000000606BC
:1039000004030000000000000000FE0000000000B2
:10391000000000000000000000000000000006069B
:10392000000000008040402020101008080404021D
:10393000020000000018244242424242424224183F
:103940000000000000080E08080808080808083EE3
:1039500000000000003C4242422020100804427E49
:1039600000000000003C4242201820404042221C3F
:103970000000000000203028242422227E2020780D
:1039800000000000007E0202021A26404042221C73
:103990000000000000382402021A26424242241885
:1039A00000000000007E2222101008080808080805
:1039B00000000000003C4242422418244242423CA3
:1039C0000000000000182442424264584040241C79
:1039D0000000000000000000181800000000181887
:1039E00000000000000000000008000000000008C7
:1039F00008040000004020100804020408102040C1
:103A000000000000000000007F0000007F000000B8
:103A100000000000000204081020402010080402EA
:103A200000000000003C42424640201010001818E0
:103A300000000000001C225A555555552D42221CED
:103A400000000000000808181414243C224242E739
:103A500000000000001F2222221E22424242221F9A
:103A600000000000007C4242010101010142221CD1
:103A700000000000001F2242424242424242221FF6
:103A800000000000003F4212121E12120242423F8A
:103A900000000000003F4212121E12120202020732
:103AA00000000000003C2222010101712122221CA1
:103AB0000000000000E7424242427E42424242E7AA
:103AC00000000000003E0808080808080808083E32
:103AD00000000000007C10101010101010101010CA
:103AE000110F0000007722120A0E0A12122222770A
:103AF0000000000000070202020202020202427FEE
:103B0000000000000077363636362A2A2A2A2A6B29
:103B10000000000000E346464A4A525252626247A1
:103B200000000000001C2241414141414141221C52
:103B300000000000003F424242423E0202020207F1
:103B400000000000001C2241414141414D53321C04
:103B500060000000003F4242423E1212222242C751
:103B600000000000007C4242020418204042423E15
:103B700000000000007F4908080808080808081C21
:103B80000000000000E74242424242424242423CC0
:103B90000000000000E74242222424141418080800
:103BA00000000000006B4949494955553622222240
:103BB0000000000000E7422424181818242442E7DB
:103BC0000000000000772222141408080808081CCE
:103BD00000000000007E2120101008040442423F33
:103BE00000000078080808080808080808080808FD
:103BF00078000000020204040808081010202020A9
:103C00004040001E10101010101010101010101056
:103C10001E0000384400000000000000000000000A
:103C20000000000000000000000000000000000094
:103C300000FF000608000000000000000000000077
:103C40000000000000000000003C4278444242FCBA
:103C50000000000000030202021A26424242261A15
:103C60000000000000000000003844020202443856
:103C7000000000000060404040784442424264D866
:103C80000000000000000000003C427E0202423CB6
:103C90000000000000F08808087E08080808083EB8
:103CA0000000000000000000007C22221C023C42B8
:103CB000423C000000030202023A4642424242E70E
:103CC00000000000000C0C00000E08080808083E68
:103CD000000000000030300000382020202020208C
:103CE000221E0000000302020272120A161222773C
:103CF00000000000000E0808080808080808083E30
:103D00000000000000000000007F9292929292B7A3
:103D10000000000000000000003B4642424242E733
:103D20000000000000000000003C42424242423CD1
:103D30000000000000000000001B26424242221E3C
:103D4000020700000000000000784442424244782C
:103D500040E000000000000000774C040404041F51
:103D60000000000000000000007C42023C40423E97
:103D70000000000000000008083E0808080808309D
:103D8000000000000000000000634242424262DC8A
:103D9000000000000000000000E74224241408088E
:103DA000000000000000000000EB494955552222A8
:103DB0000000000000000000007624181818246E8F
:103DC000000000000000000000E74224241418084E
:103DD0000807000000000000007E22100808447E52
:103DE000000000C0202020202010202020202020A3
:103DF000C000101010101010101010101010101023
:103E00001010000608080808081008080808080824
:103E100006000C32C200000000000000000000009C
:103E20000000000000000000000000000000000092
:103E30000000000000000000000000000000000082
:103E40000000000000000000000000000000000072
:103E50000000000000000000000060006000600042
:103E60006000600060006000400020002000200032
:103E70000000000000006000600060000000000022
:103E80000000000000006006600630039801880012
:103E900044000000000000000000000000000000DE
:103EA0000000000000000000000000000000000012
:103EB00000000000000000000000100210021002CC
:103EC0001002FE07FE0708020801080108010801A8
:103ED000FE07FE07040104010401040100000000C4
:103EE000000000000000000040004000F001580306
:103EF0004C03CC034C0058007000E000C001C0012E
:103F000040034C035C034C034801F00040004000B8
:103F1000000000000000000000000E010A019100F6
:103F200091009100510051003A00AE03A0025004EC
:103F3000500448044804480484028403000000003C
:103F40000000000000000000000038006C006C0061
:103F50006C006C006C002C0098071C011A013301E6
:103F600033016301E300C308C6093C0700000000F9
:103F70000000000000000C001C00100010000800F1
:103F8000040000000000000000000000000000002D
:103F90000000000000000000000000000000000021
:103FA000000000000000000400020001800080000A
:103FB00040004000200020002000200020002000C1
:103FC000200040004000800080000001000200044A
:103FD00000000000000002000400080010001000B3
:103FE0002000200040004000400040004000400011
:103FF0004000200020001000100008000400020013
:104000000000000000000000000000000000400070
:10401000C0004000460C4E0FD001F0015E0F460C70
:1040200040004000400000000000000000000000D0
:104030000000000000000000000000000000000080
:1040400040004000400040004000FE0F40004000A3
:1040500040004000400000000000000000000000A0
:104060000000000000000000000000000000000050
:104070000000000000000000000000000000000040
:104080000000000000000C001C00100010000800E0
:10409000040000000000000000000000000000001C
:1040A00000000000000000000000FE07000000000B
:1040B0000000000000000000000000000000000000
:1040C00000000000000000000000000000000000F0
:1040D00000000000000000000000000000000000E0
:1040E0000000000000001C001C001C00000000007C
:1040F00000000000000000040006000200030001B0
:10410000000180008000400040006000200020008E
:1041100010001000080008000C0004000600020057
:10412000000000000000000000000000F000980106
:104130000C030C0306060606060606060606060619
:10414000060606060C030C039801F00000000000B0
:1041500000000000000000000000000040007C00A3
:10416000600060006000600060006000600060004F
:1041700060006000600060006000FC030000000060
:10418000000000000000000000000000F8008401B2
:10419000020306030603000300018001C000600063
:1041A00020001000080204020602FE0300000000C6
:1041B0000000000000000000000000007800C600C1
:1041C0008601860180018001C0007000800100012D
:1041D00000030003060306038601F8000000000048
:1041E00000000000000000000000000080018001CD
:1041F000C001A001A0019001880188018401820111
:10420000FE0F8001800180018001E00700000000B6
:10421000000000000000000000000000FC0304009B
:104220000400040004000400F4008C0104030003F3
:1042300000030603060382018401F8000000000069
:10424000000000000000000000000000E001180372
:104250000C030C0004000600E60116030E06060619
:104260000606060604060C021803F0000000000013
:10427000000000000000000000000000F8070C062D
:1042800004020401000100018000800040004000A1
:1042900040006000600060006000600000000000FE
:1042A000000000000000000000000000F8010C0306
:1042B0000606060606060C021C03F000C8010C03E5
:1042C00006060606060606060C03F00100000000BE
:1042D000000000000000000000000000F0000C01E1
:1042E0000C03060206060606060606078C06780676
:1042F0000006000300030C018C01780000000000A0
:1043000000000000000000000000000000000000AD
:10431000000000000000E000E000E00000000000FD
:10432000000000000000E000E000E00000000000ED
:10433000000000000000000000000000000000007D
:1043400000000000000060006000000000000000AD
:10435000000000000000000060006000400020003D
:104360002000000000000000000000040002000126
:104370008000400020001000080004000800100029
:104380002000400080000001000200040000000046
:10439000000000000000000000000000000000001D
:1043A000000000000000FE07000000000000FE0703
:1043B00000000000000000000000000000000000FD
:1043C00000000000000000000000040008001000D1
:1043D00020004000800000010002000400020001F3
:1043E00080004000200010000800040000000000D1
:1043F000000000000000000000000000E0031806BC
:10440000040C040C0C0C0C0C000780014000400054
:10441000400000000000E000E000E00000000000BC
:1044200000000000000000000000E00018030C0283
:10443000CC0564056605A605B604B604B604B60444
:10444000B602E4010C040C021803F00000000000A6
:10445000000000000000000000000000600060009C
:104460005000D00090009000880088010801F801F9
:10447000040304030402020202060F0F00000000FE
:10448000000000000000000000000000FE008C039F
:104490000C030C030C030C038C01FC000C030C023A
:1044A0000C060C060C060C060C03FE0100000000B6
:1044B000000000000000000000000000E0031803FE
:1044C0000C060C04040406000600060006000600A4
:1044D000060006040C040C021803F00000000000A3
:1044E0000000000000000000000000007F008C01C0
:1044F0000C030C030C060C060C060C060C060C0632
:104500000C060C060C030C038C017F00000000005D
:10451000000000000000000000000000FF03060390
:1045200006040604060086008600FE00860086005B
:1045300086000600060406040602FF0300000000D1
:10454000000000000000000000000000FF03060360
:1045500006040604060086008600FE00860086002B
:10456000860006000600060006001F00000000008E
:10457000000000000000000000000000F000180132
:104580000C020C0204020600060006000600C60F1C
:10459000060306030C030C031803F00000000000E0
:1045A0000000000000000000000000000F0F0606E1
:1045B00006060606060606060606FE0706060606A2
:1045C000060606060606060606060F0F0000000091
:1045D000000000000000000000000000FC0360007C
:1045E00060006000600060006000600060006000CB
:1045F00060006000600060006000FC0300000000DC
:10460000000000000000000000000000F807C000EB
:10461000C000C000C000C000C000C000C000C0009A
:10462000C000C000C000C000C000C000C6006600DE
:104630003C0000000000000000000000CF038601E5
:10464000C60046002600160036002E006E0046000A
:10465000C60086008601060106038F0700000000E1
:104660000000000000000000000000001F00060025
:10467000060006000600060006000600060006000A
:1046800006000600060406040602FF030000000000
:104690000000000000000000000000000707860383
:1046A00086038E038E034E034E034A035A035A03B6
:1046B0003A0332033203320312038707000000007B
:1046C0000000000000000000000000008E0F0C023F
:1046D0001C021C0234023402640264024402C4025A
:1046E000840284038403040304031F020000000007
:1046F000000000000000000000000000F000980131
:104700000C030C0206060606060606060606060644
:10471000060606060C020C039801F00000000000DB
:10472000000000000000000000000000FF00060381
:10473000060606060606060606068603FE000600B0
:10474000060006000600060006001F00000000002C
:10475000000000000000000000000000F0009801D0
:104760000C030C02060606060606060606060606E4
:10477000060676064C02CC039801F0008007000381
:10478000000000000000000000000000FF01060320
:1047900006060606060606060603FE004600C600D6
:1047A000860086010603060306060F0E00000000C1
:1047B000000000000000000000000000F8020C03F0
:1047C0000602060206000E003C00F800E00380032B
:1047D00000070206020606060C03F00100000000B6
:1047E000000000000000000000000000FE0762045E
:1047F00061086108600060006000600060006000A7
:1048000060006000600060006000F80100000000CF
:104810000000000000000000000000001E070C0265
:104820000C020C020C020C020C020C020C020C0218
:104830000C020C020C020C021801F0000000000037
:104840000000000000000000000000000F0706024A
:10485000040104010C010C018800880098009800F4
:1048600050005000700030002000200000000000C8
:10487000000000000000000000000000F70E6204CD
:1048800042044604460464026402E402E4029C0218
:104890009C019801980188018800880000000000B0
:1048A0000000000000000000000000009E070C0156
:1048B000080118019000B000600020006000600056
:1048C000D00090008801080104038E07000000005A
:1048D0000000000000000000000000000F0F0604B0
:1048E00004020C0208011801B800B000700060005A
:1048F00060006000600060006000F80100000000DF
:10490000000000000000000000000000FC070C0296
:1049100006030201800180004000400020002000CA
:104920001000180008040C040402FE03000000003C
:10493000000000000000E003200020002000200014
:104940002000200020002000200020002000200067
:104950002000200020002000200020002000E00394
:104960000000000000000000000004000400080037
:10497000080010001000100020002000400040003F
:10498000C00080008000000100010002000200025F
:104990000004000000007C00400040004000400097
:1049A0004000400040004000400040004000400007
:1049B00040004000400040004000400040007C00BB
:1049C00000000000600090000801000000000000EE
:1049D00000000000000000000000000000000000D7
:1049E00000000000000000000000000000000000C7
:1049F00000000000000000000000000000000000B7
:104A000000000000000000000000000000000000A6
:104A10000000000000000000000000000000000096
:104A2000FF0F000000001800600000000000000000
:104A30000000000000000000000000000000000076
:104A40000000000000000000000000000000000066
:104A50000000000000000000000000000000000056
:104A6000000000000000F0010C030C030003E00351
:104A70001C030E03060306038E0B7C0E00000000D1
:104A80000000000000000000000008000E000C0004
:104A90000C000C000C00CC013C031C060C060C06A0
:104AA0000C060C060C060C021C03E40100000000BE
:104AB00000000000000000000000000000000000F6
:104AC000000000000000F0008C018C01860106004F
:104AD0000600060006020C020C01F00000000000B7
:104AE000000000000000000000000002C0030003FE
:104AF00000030003000378038C030C030603060382
:104B000006030603060304038C0778010000000077
:104B10000000000000000000000000000000000095
:104B2000000000000000E001180308020C060C065B
:104B3000FC070C000C0018041802E0010000000043
:104B4000000000000000000000000000C00360063C
:104B5000300630003000FE01300030003000300000
:104B600030003000300030003000FC010000000058
:104B70000000000000000000000000000000000035
:104B8000000000000000F007D8068C018C018C01A9
:104B90009801F8000C00FC00CC03060306038E030A
:104BA000F800000000000000000008000E000C00EB
:104BB0000C000C000C00EC011C030C030C030C0398
:104BC0000C030C030C030C030C039E0700000000F5
:104BD0000000000000000000000000006000600015
:104BE0000000000040007C00600060006000600089
:104BF00060006000600060006000FC0300000000D6
:104C0000000000000000000000000000C001C00122
:104C1000000000000001F00180018001800180019E
:104C20008001800180018001800180018001CC0031
:104C30007C00000000000000000008000E000C00D6
:104C40000C000C000C008C038C008C004C006C00E1
:104C50005C008C008C010C010C039E07000000001E
:104C60000000000000000000000040007C00600028
:104C70006000600060006000600060006000600034
:104C800060006000600060006000FC030000000045
:104C90000000000000000000000000000000000014
:104CA0000000000000003707EE066606660666068E
:104CB00066066606660666066606FF0F00000000CA
:104CC00000000000000000000000000000000000E4
:104CD000000000000000EE011C030C030C030C0399
:104CE0000C030C030C030C030C039E0700000000D4
:104CF00000000000000000000000000000000000B4
:104D0000000000000000F00098010C0306060606F3
:104D10000606060606060C030C03F0000000000061
:104D20000000000000000000000000000000000083
:104D3000000000000000EE011C030C060C060C062F
:104D40000C060C060C060C031C03EC010C000C00FA
:104D50003E00000000000000000000000000000015
:104D600000000000000078028C030C030603060319
:104D700006030603060304038C0378030003000301
:104D8000C00700000000000000000000000000005C
:104D90000000000000009F035806380618001800A5
:104DA00018001800180018001800FF00000000008C
:104DB00000000000000000000000000000000000F3
:104DC000000000000000F0031C030C020C0238007D
:104DD000F000C003040304038C03FC010000000086
:104DE00000000000000000000000000000002000A3
:104DF000200030003000FE01300030003000300074
:104E000030003000300030023002E00100000000CD
:104E10000000000000000000000000000000000092
:104E20000000000008028E030C030C030C030C03AB
:104E30000C030C030C030C039C077801000000001A
:104E40000000000000000000000000000000000062
:104E50000000000000001E070C02080108011801F4
:104E60009000B000B0006000600020000000000072
:104E70000000000000000000000000000000000032
:104E8000000000000000F70E6204460464026402A1
:104E9000EC029C01980198019801080000000000B4
:104EA0000000000000000000000000000000000002
:104EB000000000000000BC0718011001B0006000F5
:104EC0006000E0009000080108039E070000000059
:104ED00000000000000000000000000000000000D2
:104EE0000000000000009E07080108010801900072
:104EF0009000B000600060006000200020002400EE
:104F00001C00000000000000000000000000000085
:104F1000000000000000FC018401C40044006000A7
:104F200020003000180208020C03FC010000000001
:104F3000000000000000000380008000800080006E
:104F40008000800080008000400020004000800041
:104F500080008000800080008000800080000003CE
:104F60000000400040004000400040004000400081
:104F70004000400040004000400040004000400031
:104F80004000400040004000400040004000400021
:104F90004000000000000C00100010001000100085
:104FA0001000100010001000200040002000100031
:104FB00010001000100010001000100010000C0075
:104FC000000000001C002204C20480030000000056
:104FD00000000000000000000000000000000000D1
:104FE00000000000000000000000000000000000C1
:104FF00000000000000000000000000000000000B1
:1050000000000000000000000000000000000000A0
:105010000000000000000000000000000000000090
:105020000000000000000000000000000000000080
:10503000000000000000000000000000C001C001EE
:10504000C001C001C001C001C0018000800080001B
:105050008000800080008000000000000000000050
:105060008001C003C00380010000000000000000B8
:105070000000000000000000E01CE01CF01E700EAC
:105080003807180308018400000000000000000039
:105090000000000000000000000000000000000010
:1050A0000000000000000000000000000000000000
:1050B00000000000000000000000000000002010C0
:1050C0002010201020102010FE7FFE7F10081008F6
:1050D00010081008100810081008FE7FFE7F080452
:1050E0000804080408040804000000000000000090
:1050F0000000000000000000000000010001C007E7
:105100006019103118311839183938017001E0016F
:10511000C0038007000F001D003900311C311C3115
:105120000C310C11180DE007000100010001000016
:1051300000000000000000000000000000001C1043
:1051400036186308630C630463046302630263013B
:10515000361D9C3780228063406340632063206358
:10516000306310221836081C000000000000000008
:105170000000000000000000000000000000F0003F
:1051800098018C018C018C018C018C00CC00780082
:10519000183E1C083608320863046304C304C303C2
:1051A000834306438E26781C0000000000000000A8
:1051B00000000000000000001C003C003C0030002B
:1051C000300010000C00060000000000000000008D
:1051D00000000000000000000000000000000000CF
:1051E00000000000000000000000000000000000BF
:1051F0000000000000000000004000200010000837
:10520000000C00040006000300030003800180017D
:105210008001800180018001800180010003000382
:10522000000300060006000C0008001000200040EB
:105230000000000000000000020004000800100050
:10524000300020006000C000C000C000800180016C
:10525000800180018001800180018001C000C000C8
:10526000C000600060003000100008000400020070
:10527000000000000000000000000000000000002E
:10528000000000018003800300011C713C79783D1F
:10529000C0070001C007783D3C791C710001800304
:1052A00080038001000000000000000000000000FA
:1052B00000000000000000000000000000000000EE
:1052C00000000000000100010001000100010001D8
:1052D0000001FC7F0001000100010001000100014C
:1052E00000010000000000000000000000000000BD
:1052F00000000000000000000000000000000000AE
:10530000000000000000000000000000000000009D
:10531000000000000000000000000000000000008D
:1053200000001C003C003C003000300010000C006D
:105330000600000000000000000000000000000067
:10534000000000000000000000000000000000005D
:105350000000FE7F000000000000000000000000D0
:10536000000000000000000000000000000000003D
:10537000000000000000000000000000000000002D
:10538000000000000000000000000000000000001D
:10539000000000000000000000000000000000000D
:1053A00018003C003C001800000000000000000055
:1053B00000000000000000000040006000200030FD
:1053C000001000180008000C000400060002000392
:1053D000000180018000C00040006000200030001B
:1053E0001000180008000C00040006000200000075
:1053F0000000000000000000000000000000C007E6
:10540000600C30181830183018200C600C600C60DC
:105410000C600C600C600C600C600C601820183084
:1054200018303018600CC0070000000000000000B9
:10543000000000000000000000000000000000016B
:105440008001F801800180018001800180018001DC
:105450008001800180018001800180018001800144
:1054600080018001C003F81F000000000000000060
:105470000000000000000000000000000000E00745
:10548000101C0818043004300C300C3000300018A8
:1054900000080004000200018000400020201020CD
:1054A00008200430FC1FFC1F00000000000000006A
:1054B0000000000000000000000000000000E00309
:1054C000180E0C0C0C180C180C180018000C000608
:1054D000C003000E00180010003000300C300C30FB
:1054E0000C100C18180CE003000000000000000075
:1054F0000000000000000000000000000000000CA0
:10550000000E000E000F800E800E400E600E200E6A
:10551000100E100E080E040E040EFE7F000E000E7C
:10552000000E000E000E000EC07F00000000000004
:105530000000000000000000000000000000F03F3C
:10554000F03F10001000100008000800C807280CE9
:105550001818081000300030003000300C300C30CB
:1055600004180418080CF0030000000000000000FC
:105570000000000000000000000000000000800F9C
:10558000C010203010301800180008000C008C0FDC
:105590006C183C301C600C600C600C600C60186077
:1055A000182030306018C007000000000000000024
:1055B0000000000000000000000000000000F83FB4
:1055C000F83F1C100C080408040400040002000248
:1055D000000100010001800080008000C000C000C8
:1055E000C000C000C000C0000000000000000000BB
:1055F0000000000000000000000000000000E007C4
:10560000300C18180C300C300C301C303818700866
:10561000E007B007180E0C1C0638063006300630BE
:1056200006300C18180CE003000000000000000019
:105630000000000000000000000000000000E00387
:1056400018040C080C180610063006300630063018
:1056500006380C3C1836F0310030001800180018DD
:105660000C0C0C060C03F001000000000000000010
:10567000000000000000000000000000000000002A
:105680000000000000000000000000008001C003D6
:10569000C0038001000000000000000000000000C6
:1056A0008001C003C0038001000000000000000072
:1056B00000000000000000000000000000000000EA
:1056C000000000000000000000000000C000C0005A
:1056D00000000000000000000000000000000000CA
:1056E00000000000C000C0008000800040004000BA
:1056F000000000000000000000000000002000107A
:1057000000080004000600038001C00060003000B3
:1057100018000C00180030006000C0008001000379
:105720000006000400080010002000000000000037
:105730000000000000000000000000000000000069
:10574000000000000000000000000000FE7F0000DC
:105750000000000000000000FE7F000000000000CC
:105760000000000000000000000000000000000039
:10577000000000000000000000000000040008001D
:10578000100020006000C000800100030006000C33
:10579000001800300018000C000600038001C00053
:1057A000600020001000080004000000000000005D
:1057B000000000000000000000000000C0073018DA
:1057C000083008600C601C601C601C600030001C0D
:1057D00000060001800080008000800000000000C2
:1057E0008001C003C0038001000000000000000031
:1057F0000000000000000000000000000000C007E2
:105800006018103018200C2F8C4D864CC64CC64C9E
:10581000664C66446644662666266615CC1C0C40BB
:10582000082018303018C0070000000000000000F9
:105830000000000000000000000000000001C001A6
:10584000C001C00140016003200320032003300693
:10585000100610061006F80F080C080C080C0C0CAB
:105860000418041806181F7C000000000000000047
:105870000000000000000000000000000000FE0723
:10588000181C183818301830183018301818180C20
:10589000F807181818301820186018601860186079
:1058A000186018301818FE0F0000000000000000FB
:1058B0000000000000000000000000000000C02701
:1058C0006038103018200C400C4004000600060020
:1058D0000600060006000600060006000C400C400C
:1058E0000C2018303018C007000000000000000035
:1058F0000000000000000000000000000000FE03A7
:10590000180E181818301830183018601860186001
:105910001860186018601860186018601830183027
:1059200018101818180EFE030000000000000000F8
:105930000000000000000000000000000000FE3F2A
:105940001830182018601840180018081808180C8B
:10595000F80F180C1808180818001800180018403C
:10596000184018201830FE3F000000000000000022
:105970000000000000000000000000000000FE7FAA
:105980001870184018C0188018001810181018182F
:10599000F81F181818101810180018001800180010
:1059A0001800180018007E00000000000000000031
:1059B0000000000000000000000000000000C01314
:1059C000701C101018100C200C200400060006009B
:1059D00006000600060006FC063006300C300C30CF
:1059E000183018303008C007000000000000000028
:1059F00000000000000000000000000000003F7EEA
:105A00000C180C180C180C180C180C180C180C1876
:105A10000C18FC1F0C180C180C180C180C180C186F
:105A20000C180C180C183F7E00000000000000004D
:105A30000000000000000000000000000000F81F4F
:105A4000800180018001800180018001800180014E
:105A5000800180018001800180018001800180013E
:105A6000800180018001F81F00000000000000009C
:105A70000000000000000000000000000000E07FC7
:105A800000060006000600060006000600060006E6
:105A900000060006000600060006000600060006D6
:105AA000000600060006000600060E060E038E0124
:105AB000FC000000000000000000000000007E7CF0
:105AC00018181808180418061802180198019801E7
:105AD000D801B803380318071806180E180C181C3C
