:020000040800F2
:1000000030050020010100086B290008F9180008DC
:1000100069290008950900084F2B0008000000001E
:100020000000000000000000000000006F29000830
:1000300097090008000000006D29000871290008D8
:100040001B0100081B0100081B0100081B01000820
:100050001B0100081B0100081B0100081B01000810
:100060001B0100081B0100081B0100081B01000800
:100070001B0100081B0100081B0100081B010008F0
:100080001B0100081B0100081B0100081B010008E0
:100090001B0100081B0100081B010008990900084A
:1000A0001B0100081B0100081B0100081B010008C0
:1000B0001B0100081B0100081B0100081B010008B0
:1000C0001B0100081B0100081B0100081B010008A0
:1000D0001B0100081B0100081B0100081B01000890
:1000E0001B0100081B0100081B010008DFF80CD0F1
:1000F00000F03EFC00480047F93C000830050020B5
:100100000648804706480047FEE7FEE7FEE7FEE7B1
:10011000FEE7FEE7FEE7FEE7FEE7FEE7D32900087D
:10012000ED000008202A04DB203A21FA02F0002129
:10013000704721FA02F3D040C2F1200291400843F7
:1001400019467047D2B201E000F8012B491EFBD2DC
:1001500070470022F6E710B513460A4604461946D2
:10016000FFF7F0FF204610BDF0B480EA0102D40F83
:100170004200B2EB410F02D20246084611464A0045
:1001800042D0C30DDDB2C1F3C752AD1A202D35DA0E
:10019000C1F3160141F4000204B15242C5F1200638
:1001A00002FA06F12A411044B3EBD05F23D0C4B168
:1001B000012DA0EBC35009DCF0BC4FF0004202EA75
:1001C000C352DBB200F5000000F0AEBA400000F10F
:1001D000807000EBC350A0F1807040EAD1704900FC
:1001E00009E0490841EAC071A0EBC35000F50000E6
:1001F000400800EBC350F0BC00F08DBA6142012210
:1002000002EB4101001BF6E7F0BC704781F00041B2
:10021000AAE780F00040A7E780EA010210B502F0EB
:100220000043400022D04A001FD0010E01EB1261B2
:10023000C0F35600C2F3560240F4000042F400023C
:10024000A0FB022000047F39140400D0401C50EAB7
:10025000124001D44000491EC2B20C0604EBD0107B
:10026000401C4008802A02D003E0002010BD20F08E
:100270000100002900DA0020184310BD420005D01B
:10028000C0F3C7525242914201DC0020704700EB9C
:10029000C15070472DE9FE4F804681EA0300C00F30
:1002A0000C46009021F0004123F00045B8EB02001D
:1002B000A94105D24046214690461C460B460246BF
:1002C00023F00040104347D0270DC7F30A00C3F3C3
:1002D0000A510290401A019040286BDAC3F31300D0
:1002E00040F4801B0098924620B10023D2EB030A11
:1002F00063EB0B0B01985946C0F14002504600F0E9
:10030000E9F906460D4650465946019A00F0F1F9C2
:1003100010EB08006141002487EA115284EAE77378
:100320001A4340D0009A62B3019A012A4FEA075259
:1003300015DC001B61EB02014FF0004202EA07529C
:10034000CDE90042001C41F5801132462B4600F0F9
:1003500028FA03B0BDE8F08F40462146F9E7001BBC
:1003600061EB0201001C41F5801300185B4120186D
:10037000A2F5001747EB030140EAD570B6196D41AD
:1003800011E06D084FEA360645EAC0754FEA07529C
:10039000001B61EB0201001C41F5801149084FEA86
:1003A00030000019514132462B4603B0BDE8F04FF2
:1003B00000F0E8B90098012240000023D0EB0202CF
:1003C00063EBE073009821464FEAE074B8EB00005D
:1003D00061EB0401E9E783F000435BE781F0004152
:1003E00058E72DE9FE4F81EA030404F0004421F0B0
:1003F000004100944FF0000B23F0004350EA010449
:100400005ED052EA03045BD0C3F30A54C1F30A5529
:100410002C44A4F2F3340194A0FB0254C1F3130161
:1004200041F48011C3F3130343F4801301FB02442E
:1004300000FB034E840A970A44EA815447EA835733
:10044000A4FB076802958D0A05FB07854FEA932CEC
:1004500004FB0C542705029D4FEA065847EA16375D
:10046000B5EB08056EEB070C870E920E47EA811775
:1004700042EA8312A7FB0201B6EB0B0164EB000416
:100480002B0D43EA0C335E1844EB1C50DA46514600
:10049000E7FB0201C5F313044FEA0B3343EA14539D
:1004A0004FEA0432019C43EA0603A4F10C040294CF
:1004B000009CCDE900B400F074F903B0BDE8F08F02
:1004C00000200146F9E72DE9F04D81EA030404F02C
:1004D000004B21F0004514464FF0000A23F0004184
:1004E00050EA050220D054EA01021DD0C5F30A5794
:1004F0000246C5F31303C1F31300C1F30A5640F4D7
:10050000801543F48013A7EB0608101BD64608F2AB
:10051000FD3873EB050002D308F1010801E09218E1
:100520005B41B8F1000F03DA00200146BDE8F08D11
:1005300000204FF48011064684460EE0171B73EB33
:10054000050705D3121B63EB050306434CEA010CB8
:1005500049084FEA300092185B4150EA0107EDD19B
:1005600052EA030012D082EA040083EA050108433C
:1005700005D0101BAB4106D20122002306E0002269
:100580004FF0004302E06FF0010253101AEB060037
:100590004CEB085110EB0A0041EB0B01BDE8F04DAC
:1005A00000F0F0B8C10F80EAE0700844CA07962353
:1005B000002100F0B9B800F0004220F00040C10D69
:1005C000C0F3160040F400007F2901DA00207047D4
:1005D000962903DCC1F19601C84001E096398840B4
:1005E000002AF4D04042704700F0004230F0004052
:1005F0000AD0C10D01F56071C0F3160042EA015145
:10060000C20840071143704700200146704701F0BF
:10061000004330B421F0004150EA010206D00A0D37
:10062000A2F56072C1F31301002A02DC30BC002085
:100630007047440F44EAC104C100E01830BC00EB2D
:10064000C25000F068B830B50B46014600202022A9
:10065000012409E021FA02F59D4205D303FA02F5CF
:10066000491B04FA02F52844151EA2F10102F1DC2F
:1006700030BD2DE9F05F0546002092469B46884636
:100680000646814640241BE028464146474622460E
:10069000FFF748FD53465A46C01A914110D3114600
:1006A0001846224600F016F82D1A67EB01084F464F
:1006B00022460120002100F00DF817EB00094E4101
:1006C000201EA4F10104DFDC484631462A46434699
:1006D000BDE8F09F202A04DB203A00FA02F1002056
:1006E00070479140C2F1200320FA03F31943904070
:1006F0007047202A06DBCB17203A41FA02F043EA82
:10070000E07306E041FA02F3D040C2F120029140CA
:100710000843194670470029A8BF7047401C49008C
:1007200008BF20F00100704710B4B0FA80FC00FA56
:100730000CF050EA010404BF10BC704749B1CCF181
:10074000200421FA04F411FA0CF118BF012121430D
:100750000843A3EB0C01CB1D4FEA00614FEA1020C8
:1007600042BF002010BC704700EBC350104400296A
:10077000A4BF10BC7047401C490008BF20F0010016
:1007800010BC704710B5141E73F1000408DA401C49
:1007900041F1000192185B411A4301D120F00100A0
:1007A00010BD2DE9F04D92469B4611B1B1FA81F290
:1007B00002E0B0FA80F220329046FFF78BFF044649
:1007C0000F4640EA0A0041EA0B0153465A460843E5
:1007D00013D0114653EA010019D0C8F14002504627
:1007E000FFF7A0FC05460E46504659464246FFF725
:1007F00071FF084305D0012004E020463946BDE8DA
:10080000F08D0020054346EAE0762C4337430A98F2
:100810006305E40AA0EB08000022FD0A44EA4754FD
:100820000A3002D500200146E9E7010510196941A7
:10083000DDE9084500196941BDE8F04DA2E770B552
:1008400021F0004303430CD0C1F30A550024D5EB3B
:10085000040564EB0403D617AD1AB34102DB002094
:10086000014670BD201841EB025170BD2DE9F04DDD
:1008700000231A461B1A8A4103DB00200146BDE80B
:10088000F08DC1F30A52C1F3130141F480154FF00A
:10089000000BD10702D100186D41521E00270446FB
:1008A00040F2FF11384601EB620A3E46804602469E
:1008B00000204FF48011FFF735FCC2197141BB18BD
:1008C00046EB0100B4EB030C75EB000C04D3E41A07
:1008D00065EB000517460E46241908F101006D412D
:1008E00080463428E3DDF91946EB0600091BA841D0
:1008F00003D24FF0FF32134601E0002213461BEBF8
:10090000070046EB0A51BDE8F04DFFF73BBFC1F3CE
:100910000A52C1F3130140F2FF3341F480119A42AD
:1009200002DA00200146704740F233439A42A2F2B5
:10093000334202DC5242FFF7F5BBFFF7CBBE0000AB
:1009400030B5041E71F1000404DB4FF00044404256
:1009500064EB0101141E73F1000405DB1C464FF02B
:100960000043524263EB0403994208BF904230BDFA
:10097000064C074D06E0E06840F0010394E80700EC
:1009800098471034AC42F6D3FFF7B4FB5841000847
:1009900078410008FEE770474FF4807000F01AB805
:1009A00072B6FEE770B5044600F016F90546601C05
:1009B00002D004480078044400F00EF9401BA04225
:1009C000FAD370BD00000020B0F5807F01D103F0A4
:1009D00067B97047044910B50A68024202D008603E
:1009E000FFF7F2FF10BD0000140401402DE9F84F9D
:1009F000DFF8B8910024A9F1040B23460F2709F171
:100A0000040AABF1040EC9E00125A5402A40AA4220
:100A10007DD1674ED1F804C0ACEB0608B44532D0A6
:100A200014DCBCF1030F3AD009DCBCF1000F2AD072
:100A3000BCF1010F1CD0BCF1020F31D11DE0BCF1A3
:100A4000110F17D0BCF1120F2AD119E0B8F5881F89
:100A500019D006DCB8F5803F15D0B8F5801F1FD13E
:100A600011E0B8F5001F0ED0B8F5041F18D10AE048
:100A7000CB6815E0CB681B1D12E0CB6808330FE094
:100A8000CB680C330CE08B682BB1012B4FF00803C3
:100A900003D0456104E0042302E0056100E0002387
:100AA000FF2A01D8064601E000F104064FEA84055A
:100AB00001D9A5F12005D6F8008007FA05FC28EA3F
:100AC0000C0803FA05F548EA0508C6F800804D68E9
:100AD000ED0062D5374DAE6946F00106AE61AD69F5
:100AE00024F0030605F001050095334D06EB050CD7
:100AF000DCF80850A607360F07FA06F825EA0805BD
:100B0000DFF8B880404503D14FF0000817E044E01B
:100B1000DFF8AC80404502D14FF001080FE0DFF86C
:100B2000A480404502D14FF0020808E0DFF8988029
:100B3000404502D14FF0030801E04FF0040808FAE5
:100B400006F848EA0508CCF808804D68D9F8006036
:100B5000ED024D4601D5164300E096432E604D68E8
:100B6000DAF80060AD02554601D5164300E0964321
:100B70002E604D68DBF80060AD035D4601D516437D
:100B800000E096432E604D68DEF80060ED03754688
:100B900001D5164300E096432E60641C0D682A467A
:100BA000E5407FF431AFBDE8F88F00000804014054
:100BB0000000111000100240000001400008014038
:100BC000000C014000100140001401400AB1016115
:100BD00070470904FBE70000014880687047000087
:100BE0000000002070B5040025D094F83D000025D9
:100BF00020B984F83C50204600F07EFA242084F886
:100C00003D002068016821F0010101602068016851
:100C100041F4004101602068016821F40041016055
:100C200000F0C6FB4D4A6168914201D84C4900E092
:100C30004C49884201D2012070BD4B492368B0FB6A
:100C4000F1F15E6826F03F060E435E6063689342F2
:100C500006D94FF4967359434FF47A73B1FBF3F10D
:100C60002368491C1E6A26F03F06314319626168F9
:100C7000914210D84900401EB0FBF1F2521CC2F361
:100C80000B02042A01D2042022E0B0FBF1F0401C48
:100C9000C0F30B001CE0A268F2B301EBC10303EB4D
:100CA0000116431EB3FBF6F35B1C43F480431B05A4
:100CB00049D092B301EBC10202EB0111401EB0FB1F
:100CC000F1F0401CC0F30B0040F4804040F40040C1
:100CD0002168CA694CF6FF739A431043C861D4E98E
:100CE000071001432068026822F0C002114301602E
:100CF000D4E9030101432068826848F2FF339A4334
:100D000011438160D4E9050108432168CA6822F0D3
:100D1000FF021043C86001E00EE016E020680168A1
:100D200041F0010101602564202084F83D00256325
:100D300084F83E50002070BD01EB4106431EB3FB1A
:100D4000F6F35B1CB3E70120C2E701EB4101401E53
:100D5000B0FBF1F0401CC0F30B00B7E7A086010028
:100D600080841E0000093D0040420F002DE9FF4F26
:100D700083B00025DDE910799A4693460446DDF8F4
:100D800048800095FFF728FF064694F83D0020288C
:100D90007CD11923012288492046009600F0C2FE2A
:100DA0000028F5D194F83C0001286FD0012084F888
:100DB0003C0020680168C90703D1016841F00101C6
:100DC00001602068016821F400610160222084F83C
:100DD0003D00402084F83E0025646762A4F82A9014
:100DE000608D20857548E062CDE9008653465A46FD
:100DF0002046049900F098FD00287CD1208DDFF872
:100E0000C091202768B1012814D002282068016809
:100E10001ED041F4806101602068416980690090C2
:100E2000BCE02068416981690091016841F400716A
:100E30000160B3E02068016821F48061016072B64E
:100E40002068416981690091016841F400710AE0FC
:100E500041F40061016072B62068416981690091C6
:100E6000016821F48061016062B697E0032865D8CB
:100E700001280CD0022843464FF000024946204684
:100E800000960BD000F04EFEA8BB0CE091E032467D
:100E90004146204600F0ECFE68BB72E000F042FEE6
:100EA00048BB72B633E02068016821F480610160BC
:100EB00072B620680069616A0870606A401C6062EE
:100EC000208D401E2085608D401E60853D4846F285
:100ED000A8110068B0FBF1F0C0EBC00000EB80008F
:100EE0000090401E009007D020684069C043400732
:100EF0000DD50098F5E727E044F8305F6773A573D8
:100F0000206940F02000206162B625731CE0206853
:100F1000016841F40071016020680069616A08702D
:100F2000606A401C6062218D491E2185618D491EC9
:100F3000618562B621680969017026E03246414642
:100F4000204600F095FE18B1012007B0BDE8F08FF3
:100F500020680069616A0870606A401C6062208DC8
:100F6000401E81B22185608D401E608520684269E7
:100F7000D243520712D4032903D1016821F48061BE
:100F8000016020680069616A0870606A401C6062E4
:100F9000208D401E2085608D401E6085208D00289C
:100FA0007FF464AF84F83D7084F83E5084F83C5080
:100FB000CBE70220C9E70000020010000000FFFF9D
:100FC000040001000C0000202DE9FF4F83B09A4679
:100FD000DDE9119793460446DDF84080FFF7FCFDFC
:100FE000054694F83D0020287FD11923012240496D
:100FF0002046009500F096FD002876D194F83C003C
:10100000012872D0012084F83C0020680168C907DB
:1010100003D1016841F0010101602068016821F4F9
:1010200000610160212084F83D00402084F83E00EA
:1010300000262664C4F82480A4F82A90608D2085B8
:101040002C48E062CDE9007553465A462046049983
:1010500000F0E8FC70B930E02A463946204600F03E
:101060003FFE58B1206C042804D12068016841F487
:1010700000710160012007B0BDE8F08F606A21684F
:1010800000780861606A401C6062218D491E89B247
:101090002185628D521E628522685369DB435B079E
:1010A0000BD469B100781061606A401C6062208DC9
:1010B000401E2085608D401E6085208D0028CBD18C
:1010C0002A463946204600F001FD0028CAD154F8CE
:1010D0003D0B016841F400710160202004F81E09F5
:1010E000E67766770020C6E7FFE70220C3E7000047
:1010F000020010000000FFFF10B586B00021009133
:1011000001910291039100680F4988421AD10F4C56
:10111000A06940F00800A061A069694600F00800DD
:101120000490C020009012200190032003900848F2
:10113000FFF75CFCE06940F40010E061E06900F456
:101140000010049006B010BD005400400010024092
:10115000000C0140024881680278114481607047A8
:1011600000000020074810B5016841F0100101603F
:10117000032000F075F80F2000F006F800F024F8C6
:10118000002010BD0020024070B50D4D04464FF404
:101190007A712878B1FBF0F00A490968B1FBF0F0E8
:1011A00000F0DCFA48B9102C07D200222146501E6C
:1011B00000F036F800206C6070BD012070BD0000AA
:1011C000000000200C0000200C4808B5816941F0A7
:1011D00001018161816901F001010091C16941F062
:1011E0008051C161C06900F080500090044841689E
:1011F00021F0E06141F00071416008BD0010024043
:1012000000000140002809DB00F01F02012191408D
:101210004009800000F1E020C0F800117047000094
:10122000F0B40E4B1B680C46C3F30223C3F1070551
:10123000042D00D90425191D072901D2002300E03F
:10124000DB1E012606FA05F1491E214099409E4009
:10125000761E16403143F0BC01F09EBC0CED00E060
:10126000064900F0070208684FF6FF03184040EAFD
:101270000220034A10430860704700000CED00E0B4
:101280000000FA052DE9F0470F46050061D0434EF6
:10129000306800F00700B84209D2306820F007003B
:1012A00038433060306800F00700B84251D12868F8
:1012B0003B4C810712D5400703D5606840F4E060DD
:1012C00060602878000703D5606840F46050606073
:1012D0006068A96820F0F000084360602878C007C3
:1012E00028D06868012810D02168022810D089070A
:1012F00000292EDA616821F0030101436160FFF7E4
:101300006BFC804641F288390DE021688903EFE7E4
:101310008901EDE7FFF760FCA0EB0801494502D920
:101320000320BDE8F0876068696800F00C00B0EB4E
:10133000810FEFD1306800F00700B8420BD9306858
:1013400020F0070038433060306800F00700B842F2
:1013500001D00120E5E72878400705D56068E968F5
:1013600020F4E060084360602878000706D56068D4
:10137000296920F4605040EAC100606000F038F84C
:101380006168084AC1F30311515CC840064908600E
:1013900006480068FFF7F8FE0020C2E70020024080
:1013A000001002404A4000080C0000200400002009
:1013B0000448054900684968044AC1F30221515CA8
:1013C000C84070470C000020001002405A4000083E
:1013D0000448054900684968044AC1F3C221515CC8
:1013E000C84070470C000020001002405A4000081E
:1013F0000E4A51680E4801F00C03042B11D0082B43
:101400000FD10C48C1F38343C903C05C0AD55168AE
:10141000084AC1F34041921E515C054A5043B0FB5B
:10142000F1F0704704494843704700000010024043
:1014300000127A003A40000800093D002DE9F84FFB
:10144000040070D02078C04DC00749D06868C0F350
:101450008100012807D06868C0F38100022809D103
:101460006868C00306D52868800339D560680028FD
:10147000E7D035E06068B0F5803F0BD010B1B0F533
:10148000A02F11D0286820F480302860286820F42C
:10149000802002E0286840F480302860606890B1C5
:1014A000FFF79AFB06460AE0286840F4802028608F
:1014B000F0E700BFFFF790FB801B642873D8286813
:1014C0008003F7D50CE0FFF787FB064605E000BF79
:1014D000FFF782FB801B6428F0D828688003F7D4CC
:1014E00020789A4E80074FF001094FF0000839D557
:1014F000686810F00C0F07D06868C0F381000228FC
:1015000009D16868C00306D42868800714D520690B
:10151000012808D110E02069B0B1C6F80090FFF7AB
:101520005BFB074605E00AE1FFF756FBC01B0228FC
:10153000C4D828688007F7D52868616920F0F800CA
:1015400040EAC10028600DE0C6F80080FFF744FBC8
:10155000074604E0FFF740FBC01B022823D8286899
:101560008007F7D4207800072CD57948A169D9B134
:10157000C0F80090FFF730FB074604E0FFF72CFBB4
:10158000C01B02280FD8686A8007F7D571484FF44E
:10159000FA510068B0FBF1F0009000BF0098411EC6
:1015A0000091FAD20EE080E0C0F80080FFF714FB53
:1015B000074604E0FFF710FBC01B022875D8686AD5
:1015C0008007F7D42078400760D5E8690027C0007D
:1015D00008D4E86940F08050E861E869012700F02C
:1015E000805000905C480168C90513D401688346A7
:1015F00041F480710160FFF7EFFA824606E000BF18
:10160000FFF7EAFAA0EB0A0064284ED8DBF80000E6
:10161000C005F5D5E06801280AD008B1052813D027
:10162000286A20F001002862286A20F0040002E005
:10163000286A40F001002862E06841F2883B98B1D6
:10164000FFF7CAFA82460BE0286A40F004002862DD
:10165000EEE700BFFFF7C0FAA0EB0A0159455AD8E0
:10166000286A8007F6D50CE0FFF7B6FA824605E057
:10167000FFF7B2FAA0EB0A0159454CD8286A800757
:10168000F6D41FB1E86920F08050E861E06988B3C2
:101690006968C1F38101022944D00228C6F860803C
:1016A00004D0FFF799FA044638E034E0FFF794FAE3
:1016B000074604E0FFF790FAC01B02282BD82868E1
:1016C0008001F7D4206AB0F5803F05D16868A16831
:1016D00020F4003008436860D4E9080108436968D1
:1016E00021F4741108436860C6F86090FFF774FA3B
:1016F000044606E025E000BFFFF76EFA001B022853
:1017000009D828688001F7D51BE000BFFFF764FA0D
:10171000001B022802D90320BDE8F88F2868800149
:10172000F4D40EE00128F7D06868226A00F4803112
:10173000914204D1616A00F47010884201D0012006
:10174000EAE70020E8E70000001002400000424203
:10175000800442420C0000200070004010B5401E82
:10176000B0F1807F01D3012010BD4FF0E024606113
:101770000F21601701F010FA0020A06107202061FE
:10178000002010BD70B5040004D094F8410000257D
:1017900010B106E0012070BD84F84050204600F0F2
:1017A00023F8242084F841002068C16821F4005106
:1017B000C160204601F036F92068016921F49041AA
:1017C00001612068416921F02A0141612068C168F6
:1017D00041F40051C1606564202084F8410084F820
:1017E00042006563002070BD30B585B000240094D0
:1017F00001940294039400681449884224D1144847
:10180000816941F480418161816901F480410491E1
:10181000816941F00401816180690E4D00F004008E
:1018200004904FF400700090022001900320039078
:1018300069462846FFF7DAF82815CDE9000469461D
:1018400028460294FFF7D2F805B030BD00380140B9
:1018500000100240000801402DE9F843044690F8CA
:101860004100984616460D46202802D00220BDE8C9
:10187000F88385B17EB100206064212084F84100A6
:10188000FFF7AAF9A6848146E684A0682027B0F570
:10189000805F02D003E00120E9E7206910B12E4605
:1018A00000250EE000260CE08021204601F016F90C
:1018B000A8B9C6B116F8010B21684860E08C401E3B
:1018C000E084E08C4B464FF00002CDF80080002809
:1018D000EAD14FF04001204601F000F940B184F810
:1018E00041700320C3E735F8020BC0F30800E3E7BB
:1018F00084F841700020BAE7FEE701684A69D243E4
:1019000052050FD46FF480624A61002140F8301F05
:10191000202242738173026942F004020261017362
:1019200001207047002070472DE9F84F04460068F9
:1019300089460B9D01689846174641F48061016015
:101940002068016841F48071016000954FF0011B2F
:101950000022594620460A9B00F0E4F84FF4007A32
:1019600040B120680068C00501D5C4F840A003203C
:10197000BDE8F88F216809F0FE0008612B46284970
:1019800020460A9A00F016F9F0BB20684169806988
:1019900000902A4620460A9900F0A2F940B1206C36
:1019A00004283AD12068016841F40071016034E0F4
:1019B000FEB2B8F1010F09D02168380A08612A4641
:1019C00020460A9900F08CF90028E8D120680661C9
:1019D0002A4620460A9900F083F90028DFD12068C2
:1019E000016841F48071016000950022594620464B
:1019F0000A9B00F097F80028B3D1216809F0FF0096
:101A000040F00100086100E007E02B460449204651
:101A10000A9A00F0CFF80028AAD00120A8E7000019
:101A2000020001002DE9F843044600680D46DDE997
:101A3000089701689846164641F4807101604B464C
:101A400000224FF001112046009700F06BF848B1DA
:101A500020680068C00502D54FF4007020640320A0
:101A6000BDE8F883216805F0FE0008613B464A4660
:101A70001549204600F09EF888B9206841698069C0
:101A800000903A464946204600F02AF948B1206CB9
:101A9000042804D12068016841F40071016001202C
:101AA000DEE7F5B2B8F1010F09D02168300A08610C
:101AB0003A464946204600F013F90028E7D120684D
:101AC00005610020CCE700000200010070B5164659
:101AD0000D4604461EE02046FFF70FFF08B1012027
:101AE00070BD681C16D0FFF777F8801BA84200D89D
:101AF00085B920684069C04340070BD5002044F8F1
:101B0000300F20216173A073216941F02001216110
:101B10002073E4E720684069C0434007DBD400201D
:101B200070BD00002DE9F047984617460D46044663
:101B3000C1F30746DDF820902AE000BFB8F1FF3F6F
:101B400026D0FFF749F8A0EB0901414502D8B8F1CA
:101B5000000F1DD12068012E16D0806925EA0000F3
:101B60000004000C12D00020B84211D1002044F82B
:101B7000300F20216173A073216941F020012161A0
:101B800020730120BDE8F0874069E7E70120EBE71B
:101B90002068012E0AD0806925EA00000004000CAC
:101BA00006D00020B842C9D00020EBE74069F3E737
:101BB0000120F7E72DE9F047984616460D46044602
:101BC0004FF000094FF0200AC1F3074723E02068D7
:101BD0004069C043400515D42068016841F4007194
:101BE000016021686FF480604861C4F8309084F827
:101BF0003DA084F83E90216C41F00401216484F8FA
:101C00003C9021E0701C06D0FEF7E6FFA0EB080038
:101C1000B04203D816B1012F1FD021E02068012F58
:101C200015D0806925EA00000004000C18D000BF20
:101C300044F8309F84F80DA084F80E90216941F09B
:101C40002001216184F80C900120BDE8F0874069F3
:101C500025EA00000004000CEAD12068406901E098
:101C60002068806925EA00000004000CAFD1ECE791
:101C70002DE9F041002590460E460446202728E035
:101C80004069C043C0060CD454F8301B6FF01000FC
:101C9000486144F810596777A577206A2062257754
:101CA00014E0FEF799FFA0EB0800B04200D886B917
:101CB00020684069C04340060BD544F8305F677325
:101CC000A573206940F02000206125730120BDE844
:101CD000F08120684169C9434906D1D40020F6E764
:101CE00070B516460D4604461EE02046FFF705FE79
:101CF00008B1012070BD681C16D0FEF76DFF801B77
:101D0000A84200D885B920684069C04300060BD5B9
:101D1000002044F8300F20216173A073216941F045
:101D2000200121612073E4E720684069C043000678
:101D3000DBD4002070BD000030B585B000200090DD
:101D40000190029003902248816941F01001816165
:101D5000816901F010010491816941F020018161E4
:101D6000816901F020010491816941F004018161E0
:101D7000816901F004010491816941F008018161E8
:101D80008069012200F00800124D5403049021469E
:101D90002846FEF71BFF0094012401940294694633
:101DA00028460394FEF722FE200200900A48CDE95F
:101DB000010469460948FEF719FE00220121172097
:101DC000FFF72EFA1720FFF71DFA05B030BD00000F
:101DD000001002400010014000001110000C0140F2
:101DE0000D4810B50B4901600C49416000214FF4CA
:101DF00080428160C0E9031241618161C161016279
:101E0000FEF7F0FE002803D0BDE81040FEF7C8BD85
:101E100010BD00000054004040000020801A060061
:101E20000C4810B50A4901604FF4E13141600021CE
:101E300081600C22C160C0E904128161C161FFF7B9
:101E4000A1FC002803D0BDE81040FEF7A9BD10BDDD
:101E500000380140940000202DE9FF4F91B08246E8
:101E6000DDE9200BDDE91E74239E98461546894660
:101E700010F0FF4F06D11BF0FF4F03D1229810F056
:101E8000FF4F03D018F0FF4F0FD108E00097CDE9C6
:101E90000146504600F036FB15B0BDE8F08F17F054
:101EA000FF4F02D114F0FF4F7ED021462046FEF7AF
:101EB000B3F9394600900846FEF7AEF94146029064
:101EC0000846FEF7A9F90299FEF74EF90099FEF7C8
:101ED0004BF901F0F7FE014600904046FEF79CF9F1
:101EE000149038460099FEF797F91E902046009905
:101EF000FEF792F922991F900846FEF78DF90746E2
:101F000059460846FEF788F9209904460846FEF728
:101F100083F92146FEF728F93946FEF725F901F045
:101F2000D1FE044601462098FEF776F9209021461E
:101F30005846FEF771F9219021462298FEF76CF978
:101F4000FE4C2290A168A068FEF766F90E90E16849
:101F5000A068FEF761F906902169A068FEF75CF9B8
:101F600005906169A068FEF757F90790E168E0689D
:101F7000FEF752F910902169E068FEF74DF90090E4
:101F80006169E068FEF748F9049021692069FEF76D
:101F900043F9039061692069FEF73EF90290616997
:101FA0006069FEF739F900E060E10190DDE90401C4
:101FB000FEF7DAF80B902299FEF72EF98046079982
:101FC0000098FEF723F90C902199FEF725F90746B2
:101FD0004FF07C500399FEF719F90199FEF716F9B5
:101FE0000D902099FEF718F93946FEF7BDF84146E5
:101FF000FEF7BAF80121FEF741F907460699029863
:10200000FEF704F92299FEF707F983464FF07C505A
:102010001099FEF7FBF80A900199FEF7F7F821995D
:10202000FEF7FAF8804607990098FEF79DF8209988
:10203000FEF7F2F84146FEF797F85946FEF794F896
:102040000121FEF71BF90146FEF7E6F88046394606
:102050000846FEF7E1F84146FEF786F8FEF7C4FAB7
:1020600001F090FFFEF7D3FA804603990A98FEF735
:10207000CDF808902299FEF7CFF807460699029806
:10208000FEF772F809902199FEF7C6F88346DDE95C
:102090000401FEF7BBF807902099FEF7BDF85946FA
:1020A000FEF762F83946FEF75FF80121FEF7E6F821
:1020B000834607980590099804904FF07C510E983C
:1020C000FEF7A4F80199FEF74FF8069059460798D5
:1020D000FEF7A2F8074641460D98FEF79DF83946EF
:1020E000FEF742F8079059460998FEF795F807461B
:1020F00041460C98FEF790F83946FEF735F8039004
:1021000059460898FEF788F8074641460B98FEF7AF
:1021100083F83946FEF728F8074603992298FEF718
:102120007BF8804639462198FEF776F84146FEF75F
:102130006DF8804604991F98FEF76EF8834606995D
:102140001E98FEF769F85946FEF760F84146FEF71B
:102150000BF8089039462098FEF75EF80746079975
:102160002298FEF759F83946FEF750F807460699C7
:102170001498FEF751F8804605991F98FEF74CF821
:102180004146FEF743F83946FDF7EEFF83460799CF
:102190002198FEF741F8074603992098FEF73CF88E
:1021A0003946FEF733F8074605991E98FEF734F8CE
:1021B000804604991498FEF72FF84146FEF726F85A
:1021C0003946FDF7D1FF80466068B0F5000F31DB7E
:1021D00008996068FEF720F8594F3946FEF71CF859
:1021E000A169FDF7C1FFA06159466068FEF714F8C8
:1021F0003946FEF711F8E169FDF7B6FFE0614146A7
:102200006068FEF709F83946FEF706F8216AFDF71F
:10221000ABFF2062A1695046FDF7A6FFE169824647
:102220004846FDF7A1FF216A81462846FDF79CFF3D
:10223000054603E00020A061E06120620899206863
:10224000FDF7EAFF5146FDF78FFF824659462068A9
:10225000FDF7E2FF4946FDF787FF814641462068CA
:10226000FDF7DAFF2946FDF77FFF0546354C50465E
:102270002146FDF7D1FF834621464846FDF7CCFFB6
:10228000129021462846FDF7C7FF2C4C1390D4F836
:102290000880E568276901466069FDF7BDFF824651
:1022A00038461299FDF7B8FF814685F0004059463F
:1022B000FDF7B2FF4946FDF7A9FF5146FDF7A6FF1E
:1022C000A168FDF751FFA06012996069FDF7A4FFB6
:1022D000824638461399FDF79FFF8146414658468E
:1022E000FDF79AFF4946FDF73FFF5146FDF78EFF88
:1022F000E168FDF739FFE06061695846FDF78CFF42
:10230000824628461399FDF787FF81464046129979
:10231000FDF782FF4946FDF779FF5146FDF724FF9F
:102320002169FDF721FF206139465846FDF774FF0A
:10233000074628461299FDF76FFF05E010000020C0
:102340000AD7233C0AD7A33B054640461399FDF71D
:1023500063FF2946FDF708FF3946FDF757FF61691E
:10236000FDF702FF606161696069FDF755FF216952
:1023700080462069FDF750FFE1680746E068FDF7F9
:102380004BFFA1680546A068FDF746FF2946FDF70B
:10239000EBFE3946FDF7E8FE4146FDF7E5FE01F0AC
:1023A00091FC05460146A068FDF736FFA06029466E
:1023B000E068FDF731FFE06029462069FDF72CFF5A
:1023C000206129466069FDF727FF606101212069CE
:1023D000FDF754FF2169FDF71FFF05464FF0404907
:1023E0004946E068FDF718FFE168FDF715FF29464B
:1023F000FDF70CFF4FF07E51FDF7B6FEFEF7F4F847
:1024000007460D460121A068FDF738FFE168FDF79A
:1024100003FF804601212069FDF730FF6169FDF768
:10242000FBFE4146FDF7A0FEFEF7DEF83A462B46DE
:1024300001F0E4FADFF8C8A04FF066384246534690
:10244000FDF7CFFFFEF7E3F830600121A068FDF74C
:1024500015FF2169FDF7E0FE05464946E068FDF7F6
:10246000DBFE6169FDF7D8FE2946FDF77DFEFEF72C
:10247000BBF801F07BF842465346FDF7B2FFFEF78A
:10248000C6F8706061696069FDF7C6FE2169814622
:102490002069FDF7C1FEE1680746E068FDF7BCFE74
:1024A000A1680546A068FDF7B7FE2946FDF75CFE6A
:1024B0003946FDF7ABFE4946FDF7A8FEFEF794F856
:1024C0000F4621690546E068FDF7A6FE6169814671
:1024D000A068FDF7A1FE4946FDF746FE0121FDF784
:1024E000CDFEFEF781F82A463B4601F087FA4246C8
:1024F0005346FDF776FFFEF78AF8B060CCE40000A3
:1025000066A64C402DE9FF4F83B0DFF84C94DDE91F
:102510001145109E984692468B4613F0FF4F05D109
:1025200016F0FF4F02D114F0FF4F7CD02146204619
:10253000FDF772FE314600900846FDF76DFE074636
:1025400041460846FDF768FE3946FDF70DFE009945
:10255000FDF70AFE01F0B6FB074601464046FDF7CF
:102560005BFE069039463046FDF756FE1090394620
:102570002046FDF751FE1190D9F810104C46D9F8BD
:102580000800FDF749FE61690646E068FDF744FE74
:102590003146FDF73BFE616980462069FDF73CFE50
:1025A000E1680646A068FDF737FE3146FDF7DCFD21
:1025B000616907466069FDF72FFEA1680646A068BD
:1025C000FDF72AFE4FF07C51FDF720FE3146FDF766
:1025D000CBFD064639461198FDF71EFE00903146A8
:1025E0001098FDF719FE0099FDF710FE0190314695
:1025F0000698FDF711FE064641461198FDF70CFEC0
:102600003146FDF703FE009041461098FDF704FEA9
:10261000064639460698FDF7FFFD3146FDF7F6FD03
:102620000646606800E050E0B0F5000F31DB01992C
:102630006068FDF7F1FDC94F3946FDF7EDFDA16971
:10264000FDF792FDA06100996068FDF7E5FD394650
:10265000FDF7E2FDE169FDF787FDE0613146606865
:10266000FDF7DAFD3946FDF7D7FD216AFDF77CFD60
:102670002062A1690398FDF777FD0390E169584650
:10268000FDF772FD216A83465046FDF76DFD8246D7
:1026900003E00020A061E061206201992068FDF75D
:1026A000BBFD0399FDF760FD039000992068FDF7DD
:1026B000B3FD5946FDF758FD834631462068FDF7C6
:1026C000ABFD5146FDF750FD8246A54C03982146CF
:1026D000FDF7A2FD039021465846FDF79DFD0490AD
:1026E00021465046FDF798FDD9F8088083464C46B0
:1026F000D9F80C60D9F810705946D9F81400FDF7D4
:102700008BFD824638460499FDF786FD814686F0AA
:1027100000400399FDF780FD4946FDF777FD5146DE
:10272000FDF774FDA168FDF71FFDA06004996069C5
:10273000FDF772FD824659463846FDF76DFD81462C
:1027400041460398FDF768FD4946FDF70DFD5146EA
:10275000FDF75CFDE168FDF707FDE0606169039846
:10276000FDF75AFD814659463046FDF755FD824634
:1027700040460499FDF750FD5146FDF747FD494697
:10278000FDF7F2FC2169FDF7EFFC20613946039863
:10279000FDF742FD074630460499FDF73DFD06462C
:1027A00059464046FDF738FD3146FDF7DDFC394618
:1027B000FDF72CFD6169FDF7D7FC60616169606917
:1027C000FDF72AFD216980462069FDF725FDE168B6
:1027D0000746E068FDF720FDA1680646A068FDF702
:1027E0001BFD3146FDF7C0FC3946FDF7BDFC4146F7
:1027F000FDF7BAFC01F066FA06460146A068FDF74F
:102800000BFDA0603146E068FDF706FDE060314653
:102810002069FDF701FD206131466069FDF7FCFC90
:10282000606101212069FDF729FD2169FDF7F4FCB4
:1028300006464FF0404A5146E068FDF7EDFCE1687E
:10284000FDF7EAFC3146FDF7E1FC4FF07E51FDF764
:102850008BFCFDF7C9FE06460F460121A068FDF777
:102860000DFDE168FDF7D8FC804601212069FDF7E8
:1028700005FD6169FDF7D0FC4146FDF775FCFDF7EC
:10288000B3FE32463B4601F0B9F8DFF8D8804FF08E
:1028900066394A464346FDF7A4FDFDF7B8FE2860B9
:1028A0000121A068FDF7EAFC2169FDF7B5FC0646A9
:1028B0005146E068FDF7B0FC6169FDF7ADFC3146BB
:1028C000FDF752FCFDF790FE00F050FE4A464346ED
:1028D000FDF787FDFDF79BFE686061696069FDF7A4
:1028E0009BFC216982462069FDF796FCE16807465A
:1028F000E068FDF791FCA1680646A068FDF78CFC36
:102900003146FDF731FC3946FDF780FC5146FDF7B5
:102910007DFCFDF769FE0F4621690646E068FDF77C
:102920007BFC61698246A068FDF776FC5146FDF7A5
:102930001BFC0121FDF7A2FCFDF756FE32463B468B
:1029400001F05CF84A464346FDF74BFDFDF75FFE9C
:10295000A86007B0BDE8F08F100000200AD7233C24
:102960000AD7A33B66A64C40FEE7FEE770477047D8
:10297000FEF7F0BB30B58FB028216846FDF7E9FBC4
:1029800014210AA8FDF7E5FB01210804CDE9001098
:102990000024029402250491CDE907504FF4E01081
:1029A00009906846FEF74AFD08B172B6FEE70F20AF
:1029B000CDE90A054FF48060CDE90C4002210AA858
:1029C0000E94FEF75FFC002801D072B6FEE70FB050
:1029D00030BD704701680C3151E8002F22F490722D
:1029E00041E80023002BF5D10168143151E8002F94
:1029F00022F0010241E80023002BF5D1016B0129EF
:102A000009D101680C3151E8002F22F0100241E891
:102A10000023002BF5D1202180F842100021016312
:102A20007047000070B5044600680169E26821F44F
:102A30004051114301612169A0680843616908435D
:102A40002168CA6841F20C639A430243CA60206855
:102A50004169A26921F44071114341611E49206816
:102A6000884202D1FEF7B4FC01E0FEF7A1FC00EBC6
:102A7000C00101EB0012606864218000B2FBF0F33A
:102A8000B3FBF1F36FF018067343B2FBF0F5B2FB42
:102A9000F0F605EB8305322303EB0515B5FBF1F5E5
:102AA000B6FBF1F605F0F00505EB0615B2FBF0F606
:102AB000B2FBF0F0B0FBF1F06FF01802504306EB00
:102AC000800003EB0010B0FBF1F0216800F00F0074
:102AD0002844886070BD0000003801402DE9F843AB
:102AE000984617460D460446089E24E0701C22D0E6
:102AF000FEF772F8A0EB0800B0421AD8CEB12068F9
:102B0000C168490717D5802D15D0402D13D0016815
:102B1000C94309070FD4016800254068009020468A
:102B2000FFF758FF0820606484F840500120BDE89A
:102B3000F8830320FBE72068006835EA000004D032
:102B40000020B842D2D00020F1E70120F9E7FEE7EB
:102B50000FB4054B10B503A9044A029800F06CF9B4
:102B600010BC5DF814FB0000AD3C000838000020EC
:102B7000490050EAC12018BF04204A0D18BF40F098
:102B8000010040F2FF72B2EB515F08BF40F002005B
:102B9000012808BF052070470907090E002804DB3B
:102BA00000F1E02080F80014704700F00F0000F101
:102BB000E02080F8141D70472DE9F0414F1E00EB16
:102BC000C7010446D1E9000115461E4637F006024A
:102BD0000DD02A463346FDF704FC7F1E04EBC703E5
:102BE000D3E90023FDF756FB37F00602F1D1022F9F
:102BF00025D0042F13D0062F18BFBDE8F0812A4638
:102C00003346FDF7EEFBD4E90A23FDF743FB2A46E2
:102C10003346FDF7E6FBD4E90823FDF73BFB2A46E4
:102C20003346FDF7DEFBD4E90623FDF733FB2A46E6
:102C30003346FDF7D6FBD4E90423FDF72BFB2A46E8
:102C40003346FDF7CEFBD4E90223FDF723FB2A46EA
:102C50003346FDF7C6FBD4E90023BDE8F041FDF79C
:102C600019BB0122FDF7EBBDFDF714BB0022134693
:102C700010461146FDF727BC024A00201107FDF758
:102C8000DEBD000001FDFFFF02E008C8121F08C101
:102C9000002AFAD170477047002001E001C1121FDD
:102CA000002AFBD17047000001490860704700000E
:102CB0003C0000202DE9FF5F82B00021DDE90430F7
:102CC000020DDDF840B0034318D044F61050A2F2D4
:102CD000FF3242431514119801281FD0A5EB0B00B9
:102CE000401C5FEA000A4FF000064E4FDFF83891B3
:102CF000B046504615D5CAF1000413E011980124DE
:102D00004AA3012801D16FEA0B010298119AC0E988
:102D10000031C0E9024206B0BDE8F09FCBF10000EF
:102D2000DFE704460021404A491842EB0450CDE950
:102D3000001012E0E00707D032463B4640464946C5
:102D4000FDF74FFB8046894632463B461046194602
:102D5000FDF747FB06460F466410002CEAD1DDE97B
:102D60000401DDE90023BAF1000F06DAFDF739FBB3
:102D700042464B46FDF735FB05E0FDF7A4FB424616
:102D80004B46FDF7A0FB04460E460022284BFDF7FC
:102D9000D7FD03D84FF0FF30014607E00022254B56
:102DA00020463146FDF776FAFDF7B1FD102409E023
:102DB000002C0ADB0A220023FDF75BFC039B303268
:102DC0001A55641E50EA0102F2D1641C039AC4F140
:102DD00011031444119A012A03D0012208430DD192
:102DE0000AE0084304D000204FF0110B119072E765
:102DF000A3EB0B056D1E0DE05B4504DD4FF00002FB
:102E000005F1010504E003DA4FF00002A5F1010528
:102E1000002AECD002981199C0E90231C0E90045BE
:102E200079E70000000014400000F03F300000008F
:102E30000000F0430000E03F2DE9FF4F95B09B46B6
:102E40008946064600250FE2252877D1002427462B
:102E5000F84A0121059400E0044316F8013F203BA5
:102E600001FA03F01042F7D130782A2811D06FF020
:102E70002F033078A0F13002092A16D8059A44F0C1
:102E8000020402EB820203EB42021044761C05901E
:102E9000EFE759F8042B0592002A03DA504244F474
:102EA0000054059044F00204761C30782E2816D188
:102EB00016F8010F44F004042A280DD06FF02F02F9
:102EC0003078A0F13003092B09D807EB870302EB18
:102ED0004303C718761CF3E759F8047B761C307857
:102EE0006C280FD006DC4C2817D068280DD06A2833
:102EF00014D104E0742810D07A280FD10DE044F4E6
:102F000000140AE044F4801401E044F440147278A0
:102F1000824202D104F58014761C761C3078662833
:102F20000BD013DC582877D009DC002875D0452851
:102F3000F6D04628F4D047281AD19DE118E063283E
:102F400035D0642879D0652812D195E1702873D0E6
:102F500008DC6728F1D069286FD06E280DD06F2863
:102F600006D1B5E073282CD0752875D0782874D098
:102F70005A46179990476D1C75E1C4F30250022818
:102F800009D003280DD0D9F8001004280DD00D6009
:102F900009F1040967E1D9F80010EA17C1E9005204
:102FA000F6E7D9F800100D80F2E70D70F0E719F898
:102FB000041B8DF8001000208DF80100EA46012066
:102FC00003E059F804AB4FF0FF3061074FF0000108
:102FD00002D40DE008F101018846B9420FDA8045BC
:102FE000F8DB1AF808100029F4D108E008F1010113
:102FF00088468142FADB1AF808100029F6D10598B4
:103000005B46A0EB080721463846179A00F094FA71
:10301000284400EB080507E04DE029E10DE01AF82F
:10302000010B5A4617999047B8F10108F7D25B4651
:1030300021463846179A13E142E00A220092C4F36F
:1030400002524FF0000A022A08D059F804CB032A92
:103050004FEAEC710AD00DE029E02AE009F10701FE
:1030600021F00702F2E802C1914609E00FFA8CFC58
:103070004FEAEC71042A03D14FFA8CFC4FEAEC7151
:10308000002907DA0A460021DCF1000C61EB02019D
:103090002D2202E0220504D52B228DF804200122E6
:1030A00003E0E20701D02022F7E7904659E00A2129
:1030B00002E010220DE010214FF0000A00910BE019
:1030C00010224FF0000A44F004040827009203E0A5
:1030D00008224FF0000A0092C4F30252022A05D0DF
:1030E00059F804CB0021032A08D009E009F10701AF
:1030F00021F00702F2E802C1914605E01FFA8CFCBC
:10310000042A01D10CF0FF0C4FF00008220728D54B
:10311000702806D0009B83F0100353EA0A0305D001
:103120000EE040228DF80420012208E05CEA010252
:1031300006D030228DF804208DF80500022290463A
:10314000009B83F0080353EA0A030AD15CEA0102F8
:1031500001D1620705D530228DF804204FF0010817
:103160007F1E582804D034A003900EA802900DE0D2
:1031700036A0F9E753466046009AFDF77AFA84468E
:103180000398825C0298401E029002705CEA010083
:10319000F0D1029806A9081A00F1200A600702D5AA
:1031A00024F4803400E00127574502DDA7EB0A0034
:1031B00000E0002000EB0A01009005984144401A0D
:1031C0000590E00306D45B462146179A059800F067
:1031D000B3F90544002706E001A85A46C05D1799D7
:1031E00090476D1C7F1C4745F6DBE0030CD55B4622
:1031F0002146179A059800F09FF9054404E0302015
:103200005A46179990476D1C0099481E0090002956
:10321000F5DC08E0029802995A460078491C0291B0
:10322000179990476D1CBAF10001AAF1010AF1DC6F
:1032300065E100000928010030313233343536377A
:1032400038396162636465660000000030313233F2
:103250003435363738394142434445460000000092
:1032600000F058F90544761C307800287FF4ECAD66
:1032700019B02846BDE8F08F620700D4062709F18F
:10328000070222F0070CFCE80223E14603F00048A5
:103290005FEA080C02D00FF2702C0DE05FEA045CCC
:1032A00002D50FF2682C07E05FEAC47C02D00FF26F
:1032B000602C01E0AFF2700C4FF0FF3823F00043B8
:1032C000CDF850C065280CD006DC452809D046282A
:1032D0001DD047283DD13DE0662818D067287ED113
:1032E00038E00021112F01DB112000E0781CCDE92E
:1032F000000106A90EA8FFF7DDFCDDE90F010E9A1B
:1033000003910021009207F1010A04914DE04FF072
:1033100000400097CDE9011006A90EA8FFF7CAFCEE
:10332000DDE90F0203920E9B11990022DDF80CA03B
:103330000093049211B9791C00EB010AB7EB0A0063
:1033400004D4C0F1FF3007F1010A0490AAEB070092
:10335000019044E0012F00DA01270021112F01DD47
:10336000112000E03846CDE9000106A90EA8FFF7BC
:10337000A1FCDDE90F010E9A039100210491009256
:10338000BA4621070CD40399514500DA8A46BAF1AE
:10339000010F05DD009AAAF10101515C302908D026
:1033A000B84202DA10F1040F06DA0121CDE901106A
:1033B00015E0AAF10101E9E7002805DC04990144C0
:1033C0000491AAEB000102E0411C514500DD8A4650
:1033D0000499401A401C01904FF0004002902007D1
:1033E00004D40198504501DBCDF8048000208DF80D
:1033F0004F0002980DF14F07B0F1004F25D02B2060
:103400000E9002984FF0020800280CDA4042029019
:103410002D200E9007E00A210298FDF714F93031B3
:10342000029007F8011DB8F10001A8F10108F2DCD3
:1034300002980028EFD1791E0E980870307800F0BD
:10344000200040F0450007F8020D12A8C01B00F153
:1034500007081498007800B1012000EB0A010198D8
:1034600001EBE07105984144401A401E0590E003CD
:1034700006D45B462146179A059800F05DF805448E
:103480001498007818B15A46179990476D1CE003BC
:1034900024D55B462146179A059800F04DF805445F
:1034A0001CE00498002807DBDDE90301884203DD06
:1034B0000098405C179901E0179930205A469047D0
:1034C000049805F10105401C04900198401E0190EC
:1034D00004D12E205A46179990476D1CBAF100016D
:1034E000AAF1010ADDDC05E017F8010B5A4617992D
:1034F00090476D1CB8F10001A8F10108F4DC5B46AF
:103500002146179A0598ABE62D0000002B0000001D
:10351000200000002DE9F041044600251E46174614
:10352000880404D405E039462020B0476D1C641E91
:10353000F9D52846BDE8F0812DE9F0410446002583
:103540001E469046C80301D5302700E02027880496
:1035500004D505E041463846B0476D1C641EF9D5D8
:103560002846BDE8F08100F009FB00002DE9F04D90
:103570008D4F21F0004A86B005460C46BA452ADB3D
:10358000AAEB070028430AD08848824501DC1AD1FB
:10359000CDB106B02846BDE8F04DFFF762BB844AC6
:1035A000844B2846FCF71DFF07460E46824A834B94
:1035B00028462146FCF715FF06B03A463346BDE8DB
:1035C000F04DFCF767BE0120FFF76EFB06B0BDE8CB
:1035D000F04DFFF74BBB7A48824542DABAF1795F8A
:1035E0000BDA2846FFF7C4FA042808BFFFF744FBAC
:1035F000284606B02146BDE8F08D2A460B46104607
:10360000FCF7EFFE834602466E480E460B46062147
:103610007844FFF7D1FA5A463346FCF7E2FE80467B
:1036200069488A465A46334604217844FFF7C4FA6B
:103630005A463346FCF7D5FE00223B46FCF72AFEED
:1036400002460B4640465146FCF73DFF2A462346BC
:10365000FCF7C7FE06B02A462346BDE8F04DFCF74E
:1036600019BE284624F0004100223D463B46FCF7A7
:10367000B5FE4FF0FF32FDF7E2F80646024653482A
:103680000F460B4606217844FFF796FA32463B4632
:10369000FCF7A7FECDE900014D4832463B46042128
:1036A0007844FFF789FA32463B46FCF79AFE00223F
:1036B0002B46FCF7EFFD834602913046394600F079
:1036C00061FC804643480D46504517DCDDE90001AA
:1036D0005A46029BFCF7F7FE42462B46FCF781FE5A
:1036E00042462B46FCF7D6FD0122FDF7A8F8304AEA
:1036F000304BFCF770FE304A304B4CE04FF0000A84
:1037000052460B464046FCF7C5FDCDE90310524634
:103710002B4610461946FCF764FE32463B46FCF742
:103720005DFEDDE90332FCF7CEFE06460F46DDE91D
:1037300000015A46029BFCF7C6FE83460091012217
:1037400030463946FDF77BF8194A1A4BFCF746FE1E
:1037500006460F46012240462946FDF770F85A46B4
:10376000009BFCF73EFE32463B46FCF734FE064625
:103770000F46012250462946FDF761F80E4DDFF84D
:1037800058802A464346FCF729FE32463B46FCF762
:1037900025FE2A464346FCF721FE002CD8BF81F0C7
:1037A000004106B0BDE8F08D0000F03F0000F07F62
:1037B000075C143326A6913C182D4454FB21F93F95
:1037C0000000E03F540A00006A0A0000DE09000021
:1037D000F40900003333EF3FFB21E93F2DE9F84FB7
:1037E00004460D4621F0004000917349814211DCEE
:1037F0007249884201DC06D12CB120462946BDE839
:10380000F84FFFF72EBA6E48002DCCBF6D496E49B8
:10381000BDE8F88F6D49814211DD6D498142D8BF05
:103820004FF0FF366DDD20462946FFF7A1F9042849
:1038300008BFFFF721FA20462946BDE8F88F654901
:10384000654F25F00045814233DD6449814219DD31
:10385000002632464FF0804320462946FCF71AFDE9
:1038600080468A46012220462946FCF7E8FF0022CE
:103870003B46FCF7B0FD42465346FCF724FE0446A7
:103880000D463EE001260022BA463B462046294628
:10389000FCF700FD80460F4600225346204629468D
:1038A000FCF799FD42463B46FCF70DFE04460D46EB
:1038B00027E04B4981421BDDDFF828A102260022C8
:1038C000534620462946FCF78CFD00223B46FCF778
:1038D000E1FC80460F460022534620462946FCF76D
:1038E0007AFD42463B46FCF7EEFD04460D4608E0F5
:1038F000032622462B4600203B49FCF7E4FD044604
:103900000D4622462B4610461946FCF76AFD8B46AB
:10391000824602460B46FCF764FD074602463348E2
:1039200088460B4606217844FFF746F952465B4627
:10393000FCF757FD82462E488B463A464346052102
:103940007844FFF739F93A464346FCF74AFD024608
:103950000B46002E504659460CDAFCF79BFC2246DB
:103960002B46FCF73EFD01B022462B46BDE8F04F4A
:10397000FCF734BDFCF78EFC22462B46FCF731FDEC
:103980001C4A7A4402EBC603D3E90023FCF723FD6B
:1039900022462B46FCF71FFD174A7A4402EBC6036A
:1039A000D3E90023FCF71AFD009A002AB8BF81F082
:1039B0000041BDE8F88F0000000010440000F07FD7
:1039C000182D4454FB21F93FFB21F9BF0000DC3FD7
:1039D0000000203E0000F33F0000F03F0000E63F03
:1039E000008003400000F83F0000F0BFF607000031
:1039F000B4070000520700001A0700002DE9F04D3F
:103A00009446CCF1000423F000464CEA0404524FE3
:103A100046EAD4749A46884621F00042BC4206D851
:103A2000454240EA050442EAD474BC4204D9BDE8E8
:103A3000F04D6246FFF718B9AAF14055A5F17F6530
:103A400055EA0C040BD0022404EAAA74434DDFF8B3
:103A500010E144EAD87452EA000B04D00CE0BDE84F
:103A6000F04DFFF7BBBE002C14BF012CBDE8F08D5C
:103A7000022C30D0032C32D056EA0C0B0AD0BE42B6
:103A800020D1BA4209D126F0804622F08042334646
:103A9000114617E000291ADB25E0DFF8C8B0FB4427
:103AA000002C04BFDBE90001BDE8F08D012C02BF52
:103AB000DBE9000181F00041BDE8F08D022C0AD065
:103AC000032C0CD0BA4212D1B8F1000F0BDA234804
:103AD0002549BDE8F08D28462449BDE8F08D2846EB
:103AE0007146BDE8F08D1D482149BDE8F08D921B5F
:103AF00012153C2AC4BF19481D490EDCBAF1000F4B
:103B0000BEBF12F13C0F0020014606DB6246FCF707
:103B1000DAFC21F00041FFF761FE002C08BFBDE890
:103B2000F08D012C04BF81F00041BDE8F08D114AF9
:103B3000114B022C07D0FCF74EFC2A46BDE8F04D95
:103B40000A4BFCF748BCFCF746FC2A46BDE8F04DA2
:103B5000064BFCF743BC00000000F07F182D4454D6
:103B6000FB2109C0AE060000FB21F9BFFB21094083
:103B7000FB21F93F075C143326A6A13C86B0002543
:103B800000F02CF93E4801780129FBD1002606708F
:103B90003C4A911E881E00F0DBF83A4A921D911EA5
:103BA000881E00F0B6F8374C403CB4F93C000C34A9
:103BB000FCF7F8FC344F3946FCF72EFB83462060B7
:103BC000B4F93200FCF7EEFC3946FCF725FB8246DF
:103BD0006060B4F93400FCF7E5FC3946FCF71CFBE7
:103BE0008146A060B4F93600FCF7DCFC2749FCF7FD
:103BF00013FB8046E060B4F93800FCF7D3FC23499E
:103C0000FCF70AFB07462061B4F93A00FCF7CAFC4E
:103C10001E49FCF701FB606104F11801CDE9046164
:103C2000CDE90070029643464A46039651465846EF
:103C3000FEF712F964216D1C95FBF1F2A069606238
:103C40008046E069A062814601FB1251206AE06271
:103C5000002997D1FCF7C8FC06460F464046FCF702
:103C6000C3FC044688464846FCF7BEFCCDE9004844
:103C700002460B4606A0CDE90267FEF769FF81E721
:103C8000340000202801002058A08B3ACDCC1C3AEB
:103C900025662C2025662C2025660D0A00000000D4
:103CA00001490120087070473400002013B54FF01F
:103CB000FF33012269460248FDF7CEFD00981CBD86
:103CC0009400002010B504464FF0FF31FCF7D6FAFF
:103CD0000849A1EB64042146FCF79EFA2146FCF753
:103CE0009BFA4FF07F51FCF794FA2146BDE8104053
:103CF000FCF792BADF59375FFDF734FAFEF73AFE68
:103D0000FEF71AF8FEF76CF8FEF78AF8FFF72BFCBF
:103D1000FEE77CB514460D46060017D0B5B1ACB130
:103D20006B4606223B21682000F0A2F810F0FF004D
:103D30000BD1BDF8001049BA3180BDF8021049BA64
:103D40002980BDF8041049BA21807CBD02207CBDC9
:103D50002DE9FC4114460D4606000CD05DB154B16E
:103D60006B4606224321682000F082F8C0B25FEA69
:103D7000000803D02DE00220BDE8FC81BDF8000062
:103D800040BA3080BDF8020040BA2880BDF8040077
:103D900040BA2080B6F90000FCF704FC0E4F3968E9
:103DA000FCF734FAFCF707FC3080B5F90000FCF7AB
:103DB000F9FB7968FCF72AFAFCF7FDFB2880B4F9D7
:103DC0000000FCF7EFFBB968FCF720FAFCF7F3FB07
:103DD00020804046D0E70000DC00002008B500202D
:103DE0008DF8000080226B21682000F096F8642096
:103DF000FCF7D8FD00226B21682000F08EF803202C
:103E000000F04CF8002000F040F8642000F06DF85D
:103E100001223821682000F080F800226A21682001
:103E200000F07BF800222321682000F076F89C2225
:103E30003721682000F071F86A467521682000F08B
:103E40001FF89DF80000682801D0012008BD01225C
:103E50006B21682000F061F800226C21682000F0DE
:103E60005CF8642000F041F800F05EF8002008BD26
:103E700010B51C461346224600F0BCF8002010BDC9
:103E800010B500F0A5F8002010BDC00610B5020E58
:103E90001C21682000F041F8C0B210BD032101EBE5
:103EA000C00010B5C2B21B21682000F036F8C0B2C5
:103EB00010BD10B5BC2801D3012210E0622801D347
:103EC00002220CE02A2801D3032208E0142801D39F
:103ED000042204E00A2801D3052200E006221A2168
:103EE000682000F01AF8C0B210BD10B504464FF4B7
:103EF0007A70844201D9044602E0042C00D20424E2
:103F0000B0FBF4F0401EC2B21921682000F005F8A1
:103F10006008BDE81040FFF7CCBF07B502AA00F06B
:103F200079F800200EBD0000FEB500273E463D4654
:103F30003C4602AA01A96846FFF70AFFBDF9000046
:103F40000744BDF904000644BDF9080005440A20F1
:103F5000FCF728FD641C642CEBDB642497FBF4F075
:103F6000FCF720FB064F386096FBF4F0FCF71AFBD9
:103F7000786095FBF4F0FCF715FBB860FEBD00001F
:103F8000DC0000202DE9F04106460F46FCF76EFCF0
:103F9000041E0D4618BF0120284320F00040C0F148
:103FA0007F6000F1E040C00F0ED0301C18BF012030
:103FB000384320F00040C0F17F6000F1E040C00FC6
:103FC00004BF0120FEF770FE20462946BDE8F081BF
:103FD0003EB54FF0FF3300920124CDE9014340008C
:103FE0000A46014623460248FCF7C0FE3EBD0000DB
:103FF000400000203EB54FF0FF348DE81C0040002B
:104000000A46014601230248FCF7B0FE3EBD00000F
:10401000400000203EB54FF0FF3300920124CDE96F
:10402000014340000A46014623460248FCF7CCFF04
:104030003EBD000040000020010202030405060707
:1040400008090A0B0C0D0E0F1010000000000000F4
:104050000000010203040607080900000000010235
:104060000304000000000000555555555555C53F47
:104070007D6FEB0312D6D4BF5544880E55C1C93F9E
:104080003B8F68B52882A4BF88B20175E0EF493F35
:1040900009F7FD0DE13D023F4B2D8A1C273A03C075
:1040A000C88A599CE52A004059018D1B6C06E6BF61
:1040B00082922EB1C5B8B33F4FBB610567ACDD3FFF
:1040C000182D4454FB21E93F9BF681D20B73EF3F3F
:1040D000182D4454FB21F93FE2652F227F2B7A3CB7
:1040E000075C143326A6813CBDCBF07A8807703C70
:1040F000075C143326A6913CC4EB98999999C9BFE3
:10410000711623FEC671BCBF6D9A74AFF2B0B3BF17
:104110009AFDDE522DDEADBF2F6C6A2C44B4A2BFD7
:104120000D5555555555D53FFF8300922449C23F43
:104130006E204CC5CD45B73F513DD0A0660DB13F77
:10414000EB0D76244B7BA93F11DA22E33AAD903F89
:10415000000000000000000078410008000000207E
:1041600040000000882C0008B841000840000020F2
:10417000F0040000982C000801000000100000006E
:104180000000000000127A000000A04000000000C3
:104190000000803F00000000000000000000000060
:1041A000000000000000000000000000000000000F
:0841B000000000000000000007
:04000005080000ED02
:00000001FF
