:020000040800F2
:10000000B804002001010008C31900088B1400087F
:10001000C119000899010008B91C0008000000007F
:10002000000000000000000000000000C7190008E8
:100030009B01000800000000C5190008C91900084C
:100040001B0100081B0100081B0100081B01000820
:100050001B0100081B0100081B0100081B01000810
:100060001B0100081B0100081B0100081B01000800
:100070001B0100081B0100081B0100081B010008F0
:100080001B0100081B0100081B0100081B010008E0
:100090001B0100081B0100081B0100081B010008D0
:1000A0001B0100081B0100081B0100081B010008C0
:1000B0001B0100081B0100081B0100081B010008B0
:1000C0001B0100081B0100081B0100081B010008A0
:1000D0001B010008AD1C00081B0100081B010008E3
:1000E0001B0100081B0100081B010008DFF80CD0F1
:1000F00000F040F800480047A51E0008B8040020A2
:100100000648804706480047FEE7FEE7FEE7FEE7B1
:10011000FEE7FEE7FEE7FEE7FEE7FEE72B1A000834
:10012000ED000008D2B201E000F8012B491EFBD21D
:1001300070470022F6E710B513460A4604461946F2
:10014000FFF7F0FF204610BD30B50B4601460020FA
:100150002022012409E021FA02F59D4205D303FA89
:1001600002F5491B04FA02F52844151EA2F101020A
:10017000F1DC30BD064C074D06E0E06840F00103BD
:1001800094E8070098471034AC42F6D3FFF7B2FF6B
:10019000C81F0008E81F0008FEE7704772B6FEE7B8
:1001A00010B590F821100022022905D004218163A6
:1001B00080F82020012010BD01680B6823F00E0399
:1001C0000B6001680B6823F001030B6090F840306E
:1001D000C46B012101FA03F3636080F8211080F8F9
:1001E0002020104610BD000010B590F8211000240A
:1001F000022903D00421816301243DE001680A68DB
:1002000022F00E020A6001680A6822F001020A6008
:100210001A4A0168914201D1012121E0174A1432A2
:10022000914201D110211BE0144A2832914201D1A0
:10023000891515E0114A3C32914201D189140FE031
:100240000E4A5032914202D14FF4803108E00B4AFD
:100250006432914202D14FF4801101E04FF080717D
:10026000064A083A5160012180F82110002180F8E7
:100270002010416B01B18847204610BD08000240A4
:1002800070B5044600F00CF90546601C02D0044825
:100290000078044400F004F9401BA042FAD370BD7A
:1002A000040000202DE9F84FDFF8B8910024A9F1EF
:1002B000040B23460F2709F1040AABF1040EC9E031
:1002C0000125A5402A40AA427DD1674ED1F804C03D
:1002D000ACEB0608B44532D014DCBCF1030F3AD0C5
:1002E00009DCBCF1000F2AD0BCF1010F1CD0BCF11D
:1002F000020F31D11DE0BCF1110F17D0BCF1120F6C
:100300002AD119E0B8F5881F19D006DCB8F5803F6E
:1003100015D0B8F5801F1FD111E0B8F5001F0ED021
:10032000B8F5041F18D10AE0CB6815E0CB681B1D97
:1003300012E0CB6808330FE0CB680C330CE08B681D
:100340002BB1012B4FF0080303D0456104E00423D7
:1003500002E0056100E00023FF2A01D8064601E023
:1003600000F104064FEA840501D9A5F12005D6F86D
:10037000008007FA05FC28EA0C0803FA05F548EAAC
:100380000508C6F800804D68ED0062D5374DAE69AE
:1003900046F00106AE61AD6924F0030605F00105E3
:1003A0000095334D06EB050CDCF80850A607360F18
:1003B00007FA06F825EA0805DFF8B880404503D1BA
:1003C0004FF0000817E044E0DFF8AC80404502D170
:1003D0004FF001080FE0DFF8A480404502D14FF054
:1003E000020808E0DFF89880404502D14FF003088A
:1003F00001E04FF0040808FA06F848EA0508CCF8CE
:1004000008804D68D9F80060ED024D4601D51643CD
:1004100000E096432E604D68DAF80060AD02554664
:1004200001D5164300E096432E604D68DBF800606E
:10043000AD035D4601D5164300E096432E604D683E
:10044000DEF80060ED03754601D5164300E09643E3
:100450002E60641C0D682A46E5407FF431AFBDE88C
:10046000F88F000008040140000011100010024045
:100470000000014000080140000C01400010014054
:1004800000140140C26821EA02030A4043EA024123
:10049000016170470AB1016170470904FBE7000080
:1004A00001488068704700000400002070B5040017
:1004B00025D094F83D00002520B984F83C50204612
:1004C00000F07EFA242084F83D002068016821F0C5
:1004D000010101602068016841F400410160206869
:1004E000016821F40041016000F0CCFB4D4A6168D5
:1004F000914201D84C4900E04C49884201D2012088
:1005000070BD4B492368B0FBF1F15E6826F03F06F1
:100510000E435E606368934206D94FF49673594365
:100520004FF47A73B1FBF3F12368491C1E6A26F07D
:100530003F06314319626168914210D84900401E5C
:10054000B0FBF1F2521CC2F30B02042A01D20420C8
:1005500022E0B0FBF1F0401CC0F30B001CE0A268ED
:10056000F2B301EBC10303EB0116431EB3FBF6F339
:100570005B1C43F480431B0549D092B301EBC102DD
:1005800002EB0111401EB0FBF1F0401CC0F30B0068
:1005900040F4804040F400402168CA694CF6FF7383
:1005A0009A431043C861D4E90710014320680268E8
:1005B00022F0C00211430160D4E903010143206825
:1005C000826848F2FF339A4311438160D4E9050100
:1005D00008432168CA6822F0FF021043C86001E0A6
:1005E0000EE016E02068016841F001010160256419
:1005F000202084F83D00256384F83E50002070BD23
:1006000001EB4106431EB3FBF6F35B1CB3E701208D
:10061000C2E701EB4101401EB0FBF1F0401CC0F30A
:100620000B00B7E7A086010080841E0000093D0092
:1006300040420F002DE9FF4F83B00025DDE910791E
:100640009A4693460446DDF848800095FFF728FF58
:10065000064694F83D0020287CD1192301228849C0
:100660002046009601F028F80028F5D194F83C00C7
:1006700001286FD0012084F83C0020680168C90778
:1006800003D1016841F0010101602068016821F493
:1006900000610160222084F83D00402084F83E0083
:1006A00025646762A4F82A90608D20857548E06211
:1006B000CDE9008653465A462046049900F0FEFED6
:1006C00000287CD1208DDFF8C091202768B1012857
:1006D00014D00228206801681ED041F480610160B6
:1006E0002068416980690090BCE0206841698169A7
:1006F0000091016841F400710160B3E02068016875
:1007000021F48061016072B62068416981690091BD
:10071000016841F400710AE041F40061016072B6C1
:100720002068416981690091016821F4806101605C
:1007300062B697E0032865D801280CD0022843460A
:100740004FF000024946204600960BD000F0B4FF5F
:10075000A8BB0CE091E032464146204601F052F839
:1007600068BB72E000F0A8FF48BB72B633E02068B7
:10077000016821F48061016072B620680069616AD5
:100780000870606A401C6062208D401E2085608D6C
:10079000401E60853D4846F2A8110068B0FBF1F0AC
:1007A000C0EBC00000EB80000090401E009007D01E
:1007B00020684069C04340070DD50098F5E727E061
:1007C00044F8305F6773A573206940F02000206112
:1007D00062B625731CE02068016841F40071016075
:1007E00020680069616A0870606A401C6062218D3F
:1007F000491E2185618D491E618562B6216809699E
:10080000017026E032464146204600F0FBFF18B159
:10081000012007B0BDE8F08F20680069616A0870A8
:10082000606A401C6062208D401E81B22185608D0F
:10083000401E608520684269D243520712D40329C2
:1008400003D1016821F48061016020680069616A58
:100850000870606A401C6062208D401E2085608D9B
:10086000401E6085208D00287FF464AF84F83D70C1
:1008700084F83E5084F83C50CBE70220C9E70000E2
:10088000020010000000FFFF040001001000002023
:100890002DE9FF4F83B09A46DDE911979346044650
:1008A000DDF84080FFF7FCFD054694F83D00202868
:1008B0007FD11923012240492046009500F0FCFE1B
:1008C000002876D194F83C00012872D0012084F8E9
:1008D0003C0020680168C90703D1016841F00101AB
:1008E00001602068016821F400610160212084F822
:1008F0003D00402084F83E0000262664C4F8248091
:10090000A4F82A90608D20852C48E062CDE900751E
:1009100053465A462046049900F04EFE70B930E026
:100920002A463946204600F0A5FF58B1206C04281D
:1009300004D12068016841F400710160012007B012
:10094000BDE8F08F606A216800780861606A401C29
:100950006062218D491E89B22185628D521E628599
:1009600022685369DB435B070BD469B100781061DF
:10097000606A401C6062208D401E2085608D401E94
:100980006085208D0028CBD12A463946204600F0CC
:1009900067FE0028CAD154F83D0B016841F400718C
:1009A0000160202004F81E09E67766770020C6E77C
:1009B000FFE70220C3E70000020010000000FFFF75
:1009C00010B586B000210091019102910391006859
:1009D0000F4988421AD10F4CA06940F00800A0616D
:1009E000A069694600F008000490C0200090122021
:1009F0000190032003900848FFF754FCE06940F49D
:100A00000010E061E06900F40010049006B010BD31
:100A10000054004000100240000C01400248816870
:100A2000027811448160704704000020074810B527
:100A3000016841F010010160032000F075F80F20FB
:100A400000F006F800F024F8002010BD002002405D
:100A500070B50D4D04464FF47A712878B1FBF0F073
:100A60000A490968B1FBF0F000F0E2FA48B9102C2D
:100A700007D200222146501E00F036F800206C609C
:100A800070BD012070BD0000040000201000002097
:100A90000C4808B5816941F001018161816901F06B
:100AA00001010091C16941F08051C161C06900F04C
:100AB000805000900448416821F0E06141F00071ED
:100AC000416008BD0010024000000140002809DB21
:100AD00000F01F02012191404009800000F1E02058
:100AE000C0F8001170470000F0B40E4B1B680C46B4
:100AF000C3F30223C3F10705042D00D90425191DF2
:100B0000072901D2002300E0DB1E012606FA05F1C9
:100B1000491E214099409E40761E16403143F0BC4C
:100B200001F0DCB80CED00E0064900F007020868AF
:100B30004FF6FF03184040EA0220034A10430860C2
:100B4000704700000CED00E00000FA052DE9F047C9
:100B50000F46050061D0434E306800F00700B842F0
:100B600009D2306820F0070038433060306800F068
:100B70000700B84251D128683B4C810712D5400785
:100B800003D5606840F4E06060602878000703D512
:100B9000606840F4605060606068A96820F0F00010
:100BA000084360602878C00728D06868012810D002
:100BB0002168022810D0890700292EDA616821F007
:100BC000030101436160FFF76BFC804641F2883905
:100BD0000DE021688903EFE78901EDE7FFF760FC8D
:100BE000A0EB0801494502D90320BDE8F087606801
:100BF000696800F00C00B0EB810FEFD1306800F0B5
:100C00000700B8420BD9306820F007003843306045
:100C1000306800F00700B84201D00120E5E72878ED
:100C2000400705D56068E96820F4E060084360602B
:100C30002878000706D56068296920F4605040EAEA
:100C4000C100606000F03EF86168084AC1F303111A
:100C5000515CC8400649086006480068FFF7F8FE86
:100C60000020C2E70020024000100240AE1F000832
:100C700010000020080000200148006870470000B4
:100C8000100000200448054900684968044AC1F37F
:100C90000221515CC8407047100000200010024043
:100CA000BE1F00080448054900684968044AC1F3AA
:100CB000C221515CC8407047100000200010024063
:100CC000BE1F00080E4A51680E4801F00C03042BA9
:100CD00011D0082B0FD10C48C1F38343C903C05C6A
:100CE0000AD55168084AC1F34041921E515C054A39
:100CF0005043B0FBF1F0704704494843704700008F
:100D00000010024000127A009E1F000800093D00FA
:100D10002DE9F84F040070D02078C04DC00749D0AD
:100D20006868C0F38100012807D06868C0F38100BB
:100D3000022809D16868C00306D52868800339D520
:100D400060680028E7D035E06068B0F5803F0BD0E0
:100D500010B1B0F5A02F11D0286820F480302860A1
:100D6000286820F4802002E0286840F48030286061
:100D7000606890B1FFF794FB06460AE0286840F4EB
:100D800080202860F0E700BFFFF78AFB801B642803
:100D900073D828688003F7D50CE0FFF781FB06467F
:100DA00005E000BFFFF77CFB801B6428F0D82868B3
:100DB0008003F7D420789A4E80074FF001094FF056
:100DC000000839D5686810F00C0F07D06868C0F3C8
:100DD0008100022809D16868C00306D4286880070A
:100DE00014D52069012808D110E02069B0B1C6F8F7
:100DF0000090FFF755FB074605E00AE1FFF750FBBF
:100E0000C01B0228C4D828688007F7D52868616904
:100E100020F0F80040EAC10028600DE0C6F800802C
:100E2000FFF73EFB074604E0FFF73AFBC01B022832
:100E300023D828688007F7D4207800072CD5794874
:100E4000A169D9B1C0F80090FFF72AFB074604E07A
:100E5000FFF726FBC01B02280FD8686A8007F7D56A
:100E600071484FF4FA510068B0FBF1F0009000BFF8
:100E70000098411E0091FAD20EE080E0C0F8008098
:100E8000FFF70EFB074604E0FFF70AFBC01B022832
:100E900075D8686A8007F7D42078400760D5E8697C
:100EA0000027C00008D4E86940F08050E861E86994
:100EB000012700F0805000905C480168C90513D4F8
:100EC0000168834641F480710160FFF7E9FA8246C8
:100ED00006E000BFFFF7E4FAA0EB0A0064284ED852
:100EE000DBF80000C005F5D5E06801280AD008B19C
:100EF000052813D0286A20F001002862286A20F013
:100F0000040002E0286A40F001002862E06841F233
:100F1000883B98B1FFF7C4FA82460BE0286A40F09C
:100F200004002862EEE700BFFFF7BAFAA0EB0A015F
:100F300059455AD8286A8007F6D50CE0FFF7B0FA71
:100F4000824605E0FFF7ACFAA0EB0A0159454CD800
:100F5000286A8007F6D41FB1E86920F08050E86164
:100F6000E06988B36968C1F38101022944D002288D
:100F7000C6F8608004D0FFF793FA044638E034E006
:100F8000FFF78EFA074604E0FFF78AFAC01B022833
:100F90002BD828688001F7D4206AB0F5803F05D1AE
:100FA0006868A16820F4003008436860D4E908014B
:100FB0000843696821F4741108436860C6F86090BA
:100FC000FFF76EFA044606E025E000BFFFF768FA77
:100FD000001B022809D828688001F7D51BE000BF54
:100FE000FFF75EFA001B022802D90320BDE8F88F44
:100FF00028688001F4D40EE00128F7D06868226ADE
:1010000000F48031914204D1616A00F4701088428A
:1010100001D00120EAE70020E8E7000000100240CC
:101020000000424280044242100000200070004054
:1010300010B5401EB0F1807F01D3012010BD4FF0EC
:10104000E02460610F21601700F048FE0020A061DD
:1010500007202061002010BD70477047F8B5016877
:1010600004460868CA684B6910F00F0F4FF000057E
:1010700059D003F0010602F49077374365D0C107D9
:1010800005D0D10503D5616C41F0010161644107D0
:1010900005D5D90703D0616C41F002016164810775
:1010A00005D5D90703D0616C41F0040161640107E3
:1010B00007D502F02001314303D0616C41F00801F3
:1010C0006164616C00293AD0800604D5900602D58F
:1010D000204600F0DAFC20684069616CC0F38010A3
:1010E000090700D460B3204600F0A8FC20684069DE
:1010F000400621D52068143050E8001F21F040013F
:1011000040E80012002AF5D1E06BA8B16D494163B7
:10111000E06BFFF769F8002811D0E06B416B01B07C
:10112000BDE8F040084783060FD593060DD520464D
:10113000BDE8F84000F0A9BC2046FFF78EFFF8BDDF
:101140002046FFF78AFF6564F8BD266B2023012E39
:101150007CD1C6067AD5D60678D50868486800904E
:1011600048694FF00206400640D5E16B08684068C8
:101170000004000CE8D0A28D8242E5D9E0858869A0
:1011800020282DD020680C3050E8001F21F48071F9
:1011900040E80012002AF5D12068143050E8001F02
:1011A00021F0010140E80012002AF5D12068143036
:1011B00050E8001F21F0400140E80012002AF5D15C
:1011C00084F84230256320680C3050E8001F21F07D
:1011D000100140E80012002AF5D1E06BFEF7E0FFB5
:1011E0006663A08DE18D401A81B22AE0A08DE18D69
:1011F000401A81B2E08D0028A6D00029A4D0226830
:101200000C3252E8000F20F4907042E80007002FE3
:10121000F5D12068143050E8002F22F0010240E898
:101220000027002FF5D184F84230256320680C3068
:1012300050E8002F22F0100240E80023002BF5D1E7
:1012400066632046FFF708FFF8BDFFE705062BD5CC
:10125000150629D594F841002128F5D1A068B0F5EC
:10126000805F01D12069B0B1206A411C21622168F0
:1012700000784860E08C401E0004000CE084E3D15C
:101280002068C16821F08001C1602068C16841F018
:101290004001C160D8E7206A0088C0F308004860B8
:1012A000206A801C2062E5E74006CDD55006CBD5EC
:1012B000CA68204622F04002CA6084F8413000F03B
:1012C000E3F8C1E72D1A000870B5040004D094F8C3
:1012D0004100002510B106E0012070BD84F84050A7
:1012E000204600F023F8242084F841002068C168DB
:1012F00021F40051C160204600F028FC20680169FB
:1013000021F4904101612068416921F02A01416185
:101310002068C16841F40051C1606564202084F8F0
:10132000410084F842006563002070BD30B585B08F
:1013300000240094019402940394006818498842A0
:101340002CD11848816941F480418161816901F49F
:1013500080410491816941F0040181618069124DED
:1013600000F0040004904FF40070009002200190FF
:101370000320039069462846FEF794FF2815CDE91F
:101380000004694628460294FEF78CFF00220121E2
:101390002520FFF7A9FB2520FFF798FB05B030BDFE
:1013A00000380140001002400008014090F842302F
:1013B000202B01D00220704721B11AB10023036312
:1013C00000F020BC0120704700680449884204D125
:1013D000012203490348FFF7E9BF70470038014085
:1013E00000000020700000202DE9F843044690F82A
:1013F0004100984616460D46202802D00220BDE83E
:10140000F88385B17EB100206064212084F841001A
:10141000FFF746F8A6848146E684A0682027B0F549
:10142000805F02D003E00120E9E7206910B12E4679
:1014300000250EE000260CE08021204600F0FDFB98
:10144000A8B9C6B116F8010B21684860E08C401EAF
:10145000E084E08C4B464FF00002CDF8008000287D
:10146000EAD14FF04001204600F0E7FB40B184F89C
:1014700041700320C3E735F8020BC0F30800E3E72F
:1014800084F841700020BAE77047FEE701684A69B6
:10149000D24352050FD46FF480624A61002140F8B4
:1014A000301F202242738173026942F004020261FC
:1014B0000173012070470020704700002DE9F84FAC
:1014C0000446006889460B9D01689846174641F41A
:1014D000806101602068016841F4807101600095BD
:1014E0004FF0011B0022594620460A9B00F0E4F809
:1014F0004FF4007A40B120680068C00501D5C4F8F7
:1015000040A00320BDE8F88F216809F0FE000861C3
:101510002B46284920460A9A00F016F9F0BB2068AD
:101520004169806900902A4620460A9900F0A2F994
:1015300040B1206C04283AD12068016841F4007160
:10154000016034E0FEB2B8F1010F09D02168380A19
:1015500008612A4620460A9900F08CF90028E8D153
:10156000206806612A4620460A9900F083F900287F
:10157000DFD12068016841F480710160009500228C
:10158000594620460A9B00F097F80028B3D12168FD
:1015900009F0FF0040F00100086100E007E02B4681
:1015A000044920460A9A00F0CFF80028AAD001206A
:1015B000A8E70000020001002DE9F8430446006896
:1015C0000D46DDE9089701689846164641F480719A
:1015D00001604B4600224FF001112046009700F0B9
:1015E0006BF848B120680068C00502D54FF4007060
:1015F00020640320BDE8F883216805F0FE0008613F
:101600003B464A461549204600F09EF888B92068B6
:101610004169806900903A464946204600F02AF91F
:1016200048B1206C042804D12068016841F400719D
:1016300001600120DEE7F5B2B8F1010F09D02168A1
:10164000300A08613A464946204600F013F900285E
:10165000E7D1206805610020CCE70000020001000E
:1016600070B516460D4604461EE02046FFF70EFFF5
:1016700008B1012070BD681C16D0FEF711FF801B59
:10168000A84200D885B920684069C04340070BD5FF
:10169000002044F8300F20216173A073216941F0CC
:1016A000200121612073E4E720684069C0434007BE
:1016B000DBD4002070BD00002DE9F04798461746A6
:1016C0000D460446C1F30746DDF820902AE000BF2E
:1016D000B8F1FF3F26D0FEF7E3FEA0EB090141453C
:1016E00002D8B8F1000F1DD12068012E16D08069F4
:1016F00025EA00000004000C12D00020B84211D1ED
:10170000002044F8300F20216173A073216941F05B
:101710002001216120730120BDE8F0874069E7E7DF
:101720000120EBE72068012E0AD0806925EA00003D
:101730000004000C06D00020B842C9D00020EBE71E
:101740004069F3E70120F7E72DE9F0479846164690
:101750000D4604464FF000094FF0200AC1F3074739
:1017600023E020684069C043400515D42068016823
:1017700041F40071016021686FF480604861C4F831
:10178000309084F83DA084F83E90216C41F0040133
:10179000216484F83C9021E0701C06D0FEF780FEA6
:1017A000A0EB0800B04203D816B1012F1FD021E0F2
:1017B0002068012F15D0806925EA00000004000C84
:1017C00018D000BF44F8309F84F80DA084F80E9024
:1017D000216941F02001216184F80C900120BDE8CD
:1017E000F087406925EA00000004000CEAD1206877
:1017F000406901E02068806925EA00000004000CCF
:10180000AFD1ECE72DE9F041002590460E460446A5
:10181000202728E04069C043C0060CD454F8301B90
:101820006FF01000486144F810596777A577206A77
:101830002062257714E0FEF733FEA0EB0800B042EB
:1018400000D886B920684069C04340060BD544F8EB
:10185000305F6773A573206940F020002061257315
:101860000120BDE8F08120684169C9434906D1D40F
:101870000020F6E770B516460D4604461EE02046E9
:10188000FFF704FE08B1012070BD681C16D0FEF7FA
:1018900007FE801BA84200D885B920684069C04374
:1018A00000060BD5002044F8300F20216173A0738F
:1018B000216941F0200121612073E4E7206840693B
:1018C000C0430006DBD4002070BD000030B585B0F9
:1018D000002000900190029003901948816941F026
:1018E00010018161816901F010010491816941F069
:1018F00020018161816901F020010491816941F039
:1019000004018161816901F004010491816941F060
:10191000080181618069012200F00800094D54032B
:10192000049021462846FEF7B5FD0121CDE900418E
:101930000291039169462846FEF7B4FC05B030BD1C
:1019400000100240001001400D4810B50B49016025
:101950000C49416000214FF480428160C0E90312CC
:1019600041618161C1610162FEF7A0FD002803D0E1
:10197000BDE81040FEF712BC10BD0000005400404E
:101980001C000020A08601000C4810B50A49016027
:101990004FF4E1314160002181600C22C160C0E957
:1019A00004128161C161FFF78FFC002803D0BDE8FC
:1019B0001040FEF7F3BB10BD00380140700000205E
:1019C000FEE7FEE770477047FFF728B830B58FB0E5
:1019D00028216846FEF7ADFB14210AA8FEF7A9FBF3
:1019E00001210804CDE9001000240294022504918D
:1019F000CDE907504FF4E01009906846FFF788F9E9
:101A000008B172B6FEE70F20CDE90A054FF48060F9
:101A1000CDE90C4002210AA80E94FFF797F80028A0
:101A200001D072B6FEE70FB030BD704710B5406A06
:101A30000021C185C184FFF710FB10BD01680C3186
:101A400051E8002F22F4907241E80023002BF5D1D9
:101A50000168143151E8002F22F0010241E800230F
:101A6000002BF5D1016B012909D101680C3151E836
:101A7000002F22F0100241E80023002BF5D1202195
:101A800080F8421000210163704708B590F84210B9
:101A9000222901D0022008BD82684FF480539A4267
:101AA00001D1016921B1816A9A421BD04AB10AE091
:101AB0000268816A5268C2F308020A80816A891C3E
:101AC00008E0026972B10268526802F07F020A708F
:101AD000816A491C8162C18D491E0904090CC185B6
:101AE00003D01BE002685268F1E70168CA6822F07F
:101AF0002002CA600168CA6822F48072CA60016864
:101B00004A6922F001024A61202180F84210002136
:101B10004163026B012A03D0FFF756FC002008BD89
:101B2000016301680C3151E8002F22F0100241E8F6
:101B30000023002BF5D101680A68D20602D50A6895
:101B400049680091818DFFF787FAE7E770B5044691
:101B500000680169E26821F4405111430161216983
:101B6000A0680843616908432168CA6841F20C63B0
:101B70009A430243CA6020684169A26921F4407116
:101B8000114341611E492068884202D1FFF78AF85B
:101B900001E0FFF777F800EBC00101EB001260688D
:101BA00064218000B2FBF0F3B3FBF1F36FF0180691
:101BB0007343B2FBF0F5B2FBF0F605EB830532237D
:101BC00003EB0515B5FBF1F5B6FBF1F605F0F005F5
:101BD00005EB0615B2FBF0F6B2FBF0F0B0FBF1F04E
:101BE0006FF01802504306EB800003EB0010B0FBCF
:101BF000F1F0216800F00F002844886070BD0000FB
:101C00000038014081628285C28500214164222121
:101C100080F84210016921B10168CA6842F48072FB
:101C2000CA6001684A6942F001024A610068C168FD
:101C300041F02001C160002070472DE9F84398462B
:101C400017460D460446089E24E0701C22D0FEF77D
:101C500027FCA0EB0800B0421AD8CEB12068C168BA
:101C6000490717D5802D15D0402D13D00168C943E1
:101C700009070FD401680025406800902046FFF74F
:101C8000DDFE0820606484F840500120BDE8F88340
:101C90000320FBE72068006835EA000004D000203C
:101CA000B842D2D00020F1E70120F9E70148FFF760
:101CB000D5B9000070000020FEE700000FB4054B0E
:101CC00010B503A9044A029800F028F810BC5DF88A
:101CD00014FB00008D1E0008180000200907090EE3
:101CE000002804DB00F1E02080F80014704700F0C9
:101CF0000F0000F1E02080F8141D704702E008C8D2
:101D0000121F08C1002AFAD170477047002001E075
:101D100001C1121F002AFBD1704700002DE9FF4FBF
:101D200089B09B460446002506E025280BD05A467C
:101D30000B999047641C6D1C20780028F5D10DB0DC
:101D40002846BDE8F08F0027B8460122474900E049
:101D5000074314F8013F203B02FA03F00842F7D191
:101D600020782E2819D114F8010F47F004072A28EB
:101D70000ED06FF02F022078A0F1300109290CD885
:101D800008EB880102EB410100EB0108641CF2E75B
:101D90000A98641C50F8048B0A9020780028CED052
:101DA000642808D0692806D075281ED05A460B9999
:101DB00090476D1C58E00A994FF00A0901C90A9131
:101DC000002802DA40422D2102E0390504D52B21FA
:101DD0008DF82010012103E0F90704D02021F7E756
:101DE0008A4608AE0DE00021FAE70A994FF00A0989
:101DF00001C90A91F7E74946FEF7A6F9303106F81E
:101E0000011D0028F7D1ADEB060000F1200978078D
:101E100001D44FF00108C84502DDA8EB090000E03D
:101E200000208046002706E008A85A46C05D0B99AE
:101E300090476D1C7F1C5745F6DB04E030205A4666
:101E40000B9990476D1CB8F10001A8F10108F5DC71
:101E500005E016F8010B5A460B9990476D1CB9F135
:101E60000001A9F10109F4DC641C65E709280100FF
:101E700010B5FEF701FF0349B0FBF1F0024908700D
:101E800010BD000040420F001400002013B54FF0B9
:101E9000FF33012269460248FFF7A6FA00981CBDED
:101EA00070000020FEF7C2FDFFF790FDFFF70EFD6A
:101EB000FFF76AFDFFF748FDFFF7DAFF12480068F9
:101EC000C16841F02001C160012210490E48FFF7AE
:101ED0006DFA0FA0FFF7F2FE124E4FF400554FF4CB
:101EE0007A77002000F04AF80446802000F051F88C
:101EF00021460DA0FFF7E2FE29463046FEF7C2FA62
:101F00003846FEF7BDF9ECE7700000200000002025
:101F1000696E69742066696E6973686564210D0A6B
:101F2000000000000010014025750D0A00000000AF
:101F30003EB54FF0FF3300920124CDE9014340004C
:101F40000A46014623460248FEF774FB00203EBDC8
:101F50001C00002017B583B04FF0FF34012305AA01
:101F60008DE81C0040000A4601460348FEF790FC3D
:101F700006B0002010BD00001C00002008B5C0B253
:101F800040F040016A464820FFF7D2FF9DF800006C
:101F900008BDC2B240214820FFF7DCBF01020203A6
:101FA0000405060708090A0B0C0D0E0F101000009F
:101FB00000000000000001020304060708090000F9
:101FC0000000010203040000E81F000800000020D8
:101FD0001C000000FC1C0008042000081C0000205D
:101FE0009C0400000C1D000800000000010000001F
:101FF000100000000000000000127A000000000045
:0420000000000000DC
:04000005080000ED02
:00000001FF
