:020000040800F2
:10000000480500200101000837290008C51800082C
:1000100035290008610900081B2B000800000000BA
:100020000000000000000000000000003B29000864
:100030006309000800000000392900083D29000874
:100040001B0100081B0100081B0100081B01000820
:100050001B0100081B0100081B0100081B01000810
:100060001B0100081B0100081B0100081B01000800
:100070001B0100081B0100081B0100081B010008F0
:100080001B0100081B0100081B0100081B010008E0
:100090001B0100081B0100081B010008650900087E
:1000A0001B0100081B0100081B0100081B010008C0
:1000B0001B0100081B0100081B0100081B010008B0
:1000C0001B0100081B0100081B0100081B010008A0
:1000D0001B0100081B0100081B0100081B01000890
:1000E0001B0100081B0100081B010008DFF80CD0F1
:1000F00000F024FC004800472D3D00084805002082
:100100000648804706480047FEE7FEE7FEE7FEE7B1
:10011000FEE7FEE7FEE7FEE7FEE7FEE79F290008B1
:10012000ED000008202A04DB203A00FA02F100204A
:1001300070479140C2F1200320FA03F31943904025
:100140007047202A04DB203A21FA02F00021704790
:1001500021FA02F3D040C2F120029140084319462F
:100160007047202A06DBCB17203A41FA02F043EA17
:10017000E07306E041FA02F3D040C2F12002914060
:10018000084319467047D2B201E000F8012B491E1E
:10019000FBD270470022F6E710B513460A46044624
:1001A0001946FFF7F0FF204610BDF0B480EA0102C7
:1001B000D40F4200B2EB410F02D20246084611466C
:1001C0004A0042D0C30DDDB2C1F3C752AD1A202D93
:1001D00035DAC1F3160141F4000204B15242C5F10F
:1001E000200602FA06F12A411044B3EBD05F23D077
:1001F000C4B1012DA0EBC35009DCF0BC4FF00042AC
:1002000002EAC352DBB200F5000000F0A3BA4000DE
:1002100000F1807000EBC350A0F1807040EAD17013
:10022000490009E0490841EAC071A0EBC35000F55C
:100230000000400800EBC350F0BC00F082BA6142FD
:10024000012202EB4101001BF6E7F0BC704781F090
:100250000041AAE780F00040A7E780EA010210B55C
:1002600002F00043400022D04A001FD0010E01EBF3
:100270001261C0F35600C2F3560240F4000042F48B
:100280000002A0FB022000047F39140400D0401CAF
:1002900050EA124001D44000491EC2B20C0604EBE1
:1002A000D010401C4008802A02D003E0002010BD7E
:1002B00020F00100002900DA0020184310BD4200A0
:1002C00005D0C0F3C7525242914201DC0020704772
:1002D00000EBC15070472DE9FE4F804681EA0300D4
:1002E000C00F0C46009021F0004123F00045B8EB10
:1002F0000200A94105D24046214690461C460B46C5
:10030000024623F00040104347D0270DC7F30A00F0
:10031000C3F30A510290401A019040286BDAC3F3EC
:10032000130040F4801B0098924620B10023D2EBCA
:10033000030A63EB0B0B01985946C0F1400250468B
:10034000FFF7F0FE06460D4650465946019AFFF764
:1003500008FF10EB08006141002487EA115284EA8B
:10036000E7731A4340D0009A62B3019A012A4FEA18
:10037000075215DC001B61EB02014FF0004202EA5C
:100380000752CDE90042001C41F5801132462B4650
:1003900000F01DFA03B0BDE8F08F40462146F9E7B2
:1003A000001B61EB0201001C41F5801300185B414A
:1003B0002018A2F5001747EB030140EAD570B619E3
:1003C0006D4111E06D084FEA360645EAC0754FEA07
:1003D0000752001B61EB0201001C41F58011490826
:1003E0004FEA30000019514132462B4603B0BDE8B8
:1003F000F04F00F0DDB90098012240000023D0EB5F
:10040000020263EBE073009821464FEAE074B8EB18
:10041000000061EB0401E9E783F000435BE781F052
:10042000004158E72DE9FE4F81EA030404F000443F
:1004300021F0004100944FF0000B23F0004350EAFC
:1004400001045ED052EA03045BD0C3F30A54C1F343
:100450000A552C44A4F2F3340194A0FB0254C1F3D6
:10046000130141F48011C3F3130343F4801301FB20
:10047000024400FB034E840A970A44EA815447EA87
:100480008357A4FB076802958D0A05FB07854FEA91
:10049000932C04FB0C542705029D4FEA065847EAAB
:1004A0001637B5EB08056EEB070C870E920E47EA80
:1004B000811742EA8312A7FB0201B6EB0B0164EB42
:1004C00000042B0D43EA0C335E1844EB1C50DA4653
:1004D0005146E7FB0201C5F313044FEA0B3343EA2D
:1004E00014534FEA0432019C43EA0603A4F10C04BE
:1004F0000294009CCDE900B400F069F903B0BDE8B6
:10050000F08F00200146F9E72DE9F04D81EA030460
:1005100004F0004B21F0004514464FF0000A23F090
:10052000004150EA050220D054EA01021DD0C5F373
:100530000A570246C5F31303C1F31300C1F30A5669
:1005400040F4801543F48013A7EB0608101BD64631
:1005500008F2FD3873EB050002D308F1010801E051
:1005600092185B41B8F1000F03DA00200146BDE8A4
:10057000F08D00204FF48011064684460EE0171BD4
:1005800073EB050705D3121B63EB050306434CEA27
:10059000010C49084FEA300092185B4150EA01070C
:1005A000EDD152EA030012D082EA040083EA050189
:1005B000084305D0101BAB4106D20122002306E000
:1005C00000224FF0004302E06FF0010253101AEBDB
:1005D00006004CEB085110EB0A0041EB0B01BDE8A3
:1005E000F04D00F0E5B870B521F0004303430CD0A6
:1005F000C1F30A550024D5EB040564EB0403D617B8
:10060000AD1AB34102DB0020014670BD201841EB5A
:10061000025170BDC10F80EAE0700844CA079623FA
:10062000002100F097B800F0004230F000400AD0FE
:10063000C10D01F56071C0F3160042EA0151C20814
:1006400040071143704700200146704730B5041E33
:1006500071F1000404DB4FF00044404264EB0101FF
:10066000141E73F1000405DB1C464FF00043524298
:1006700063EB0403994208BF904230BD01F0004390
:1006800030B421F0004150EA010206D00A0DA2F573
:100690006072C1F31301002A02DC30BC00207047F5
:1006A000440F44EAC104C100E01830BC00EBC25062
:1006B00000F047B830B50B46014600202022012447
:1006C00009E021FA02F59D4205D303FA02F5491B20
:1006D00004FA02F52844151EA2F10102F1DC30BD36
:1006E0002DE9F05F0546002092469B468846064667
:1006F000814640241BE02846414647462246FFF7F4
:1007000020FD53465A46C01A914110D3114618464F
:100710002246FFF707FD2D1A67EB01084F462246D8
:1007200001200021FFF7FEFC17EB00094E41201EBF
:10073000A4F10104DFDC484631462A464346BDE8C1
:10074000F09F0029A8BF7047401C490008BF20F057
:100750000100704710B4B0FA80FC00FA0CF050EAC7
:10076000010404BF10BC704749B1CCF1200421FA48
:1007700004F411FA0CF118BF012121430843A3EB43
:100780000C01CB1D4FEA00614FEA102042BF002050
:1007900010BC704700EBC35010440029A4BF10BC2C
:1007A0007047401C490008BF20F0010010BC704792
:1007B00010B5141E73F1000408DA401C41F1000169
:1007C00092185B411A4301D120F0010010BD2DE9C0
:1007D000F04D92469B4611B1B1FA81F202E0B0FAB7
:1007E00080F220329046FFF79DFC04460F4640EA17
:1007F0000A0041EA0B0153465A46084313D01146FA
:1008000053EA010019D0C8F140025046FFF799FCA5
:1008100005460E46504659464246FFF783FC0843BC
:1008200005D0012004E020463946BDE8F08D0020C7
:10083000054346EAE0762C4337430A986305E40A09
:10084000A0EB08000022FD0A44EA47540A3002D512
:1008500000200146E9E7010510196941DDE9084575
:1008600000196941BDE8F04DA2E72DE9F04D0023E4
:100870001A461B1A8A4103DB00200146BDE8F08DB1
:10088000C1F30A52C1F3130141F480154FF0000B7C
:10089000D10702D100186D41521E0027044640F2D4
:1008A000FF11384601EB620A3E46804602460020B0
:1008B0004FF48011FFF745FCC2197141BB1846EB9C
:1008C0000100B4EB030C75EB000C04D3E41A65EBE8
:1008D000000517460E46241908F101006D418046B7
:1008E0003428E3DDF91946EB0600091BA84103D2C1
:1008F0004FF0FF32134601E0002213461BEB0700C6
:1009000046EB0A51BDE8F04DFFF752BFC1F30A5262
:10091000C1F3130140F2FF3341F480119A4202DA2D
:1009200000200146704740F233439A42A2F233421C
:1009300002DC5242FFF705BCFFF7F4BB064C074D43
:1009400006E0E06840F0010394E80700984710349F
:10095000AC42F6D3FFF7CEFBB8410008D8410008FF
:10096000FEE770474FF4807000F01AB872B6FEE7E9
:1009700070B5044600F016F90546601C02D0044824
:100980000078044400F00EF9401BA042FAD370BD79
:1009900000000020B0F5807F01D103F09BB97047C3
:1009A000044910B50A68024202D00860FFF7F2FF5E
:1009B00010BD0000140401402DE9F84FDFF8B89194
:1009C0000024A9F1040B23460F2709F1040AABF117
:1009D000040EC9E00125A5402A40AA427DD1674EF8
:1009E000D1F804C0ACEB0608B44532D014DCBCF13D
:1009F000030F3AD009DCBCF1000F2AD0BCF1010F83
:100A00001CD0BCF1020F31D11DE0BCF1110F17D089
:100A1000BCF1120F2AD119E0B8F5881F19D006DCF5
:100A2000B8F5803F15D0B8F5801F1FD111E0B8F59B
:100A3000001F0ED0B8F5041F18D10AE0CB6815E0EE
:100A4000CB681B1D12E0CB6808330FE0CB680C337A
:100A50000CE08B682BB1012B4FF0080303D04561EC
:100A600004E0042302E0056100E00023FF2A01D82E
:100A7000064601E000F104064FEA840501D9A5F11C
:100A80002005D6F8008007FA05FC28EA0C0803FACE
:100A900005F548EA0508C6F800804D68ED0062D506
:100AA000374DAE6946F00106AE61AD6924F003062C
:100AB00005F001050095334D06EB050CDCF80850F8
:100AC000A607360F07FA06F825EA0805DFF8B8800A
:100AD000404503D14FF0000817E044E0DFF8AC8058
:100AE000404502D14FF001080FE0DFF8A4804045F7
:100AF00002D14FF0020808E0DFF89880404502D1AB
:100B00004FF0030801E04FF0040808FA06F848EA3D
:100B10000508CCF808804D68D9F80060ED024D4614
:100B200001D5164300E096432E604D68DAF8006068
:100B3000AD02554601D5164300E096432E604D6840
:100B4000DBF80060AD035D4601D5164300E0964337
:100B50002E604D68DEF80060ED03754601D5164342
:100B600000E096432E60641C0D682A46E5407FF441
:100B700031AFBDE8F88F00000804014000001110FB
:100B8000001002400000014000080140000C01403C
:100B900000100140001401400AB1016170470904CE
:100BA000FBE700000148806870470000000000205B
:100BB00070B5040025D094F83D00002520B984F8D4
:100BC0003C50204600F07EFA242084F83D00206846
:100BD000016821F0010101602068016841F40041D1
:100BE00001602068016821F40041016000F0C6FB4B
:100BF0004D4A6168914201D84C4900E04C49884215
:100C000001D2012070BD4B492368B0FBF1F15E6851
:100C100026F03F060E435E606368934206D94FF4A8
:100C2000967359434FF47A73B1FBF3F12368491C6F
:100C30001E6A26F03F06314319626168914210D85E
:100C40004900401EB0FBF1F2521CC2F30B02042A11
:100C500001D2042022E0B0FBF1F0401CC0F30B00F5
:100C60001CE0A268F2B301EBC10303EB0116431EC3
:100C7000B3FBF6F35B1C43F480431B0549D092B3EE
:100C800001EBC10202EB0111401EB0FBF1F0401C70
:100C9000C0F30B0040F4804040F400402168CA6972
:100CA0004CF6FF739A431043C861D4E9071001431F
:100CB0002068026822F0C00211430160D4E90301F8
:100CC00001432068826848F2FF339A4311438160F0
:100CD000D4E9050108432168CA6822F0FF021043E5
:100CE000C86001E00EE016E02068016841F00101F3
:100CF00001602564202084F83D00256384F83E507F
:100D0000002070BD01EB4106431EB3FBF6F35B1CF4
:100D1000B3E70120C2E701EB4101401EB0FBF1F057
:100D2000401CC0F30B00B7E7A086010080841E00C2
:100D300000093D0040420F002DE9FF4F83B0002520
:100D4000DDE910799A4693460446DDF8488000951F
:100D5000FFF728FF064694F83D0020287CD1192390
:100D6000012288492046009600F0C2FE0028F5D1F5
:100D700094F83C0001286FD0012084F83C002068E2
:100D80000168C90703D1016841F0010101602068D1
:100D9000016821F400610160222084F83D004020B8
:100DA00084F83E0025646762A4F82A90608D20854F
:100DB0007548E062CDE9008653465A4620460499BC
:100DC00000F098FD00287CD1208DDFF8C09120270D
:100DD00068B1012814D00228206801681ED041F4AF
:100DE000806101602068416980690090BCE02068F2
:100DF000416981690091016841F400710160B3E0CB
:100E00002068016821F48061016072B62068416940
:100E100081690091016841F400710AE041F40061C8
:100E2000016072B62068416981690091016821F40E
:100E30008061016062B697E0032865D801280CD074
:100E4000022843464FF000024946204600960BD048
:100E500000F04EFEA8BB0CE091E032464146204631
:100E600000F0ECFE68BB72E000F042FE48BB72B6D8
:100E700033E02068016821F48061016072B6206867
:100E80000069616A0870606A401C6062208D401EC3
:100E90002085608D401E60853D4846F2A81100689F
:100EA000B0FBF1F0C0EBC00000EB80000090401EF2
:100EB000009007D020684069C04340070DD50098D6
:100EC000F5E727E044F8305F6773A573206940F0C9
:100ED0002000206162B625731CE02068016841F49F
:100EE0000071016020680069616A0870606A401CD6
:100EF0006062218D491E2185618D491E618562B622
:100F000021680969017026E032464146204600F01A
:100F100095FE18B1012007B0BDE8F08F2068006988
:100F2000616A0870606A401C6062208D401E81B258
:100F30002185608D401E608520684269D24352073A
:100F400012D4032903D1016821F480610160206873
:100F50000069616A0870606A401C6062208D401EF2
:100F60002085608D401E6085208D00287FF464AF51
:100F700084F83D7084F83E5084F83C50CBE7022062
:100F8000C9E70000020010000000FFFF040001009C
:100F90000C0000202DE9FF4F83B09A46DDE9119740
:100FA00093460446DDF84080FFF7FCFD054694F8C3
:100FB0003D0020287FD11923012240492046009579
:100FC00000F096FD002876D194F83C00012872D0FC
:100FD000012084F83C0020680168C90703D101683A
:100FE00041F0010101602068016821F400610160A5
:100FF000212084F83D00402084F83E00002626642D
:10100000C4F82480A4F82A90608D20852C48E062E2
:10101000CDE9007553465A462046049900F0E8FC95
:1010200070B930E02A463946204600F03FFE58B1FC
:10103000206C042804D12068016841F4007101602B
:10104000012007B0BDE8F08F606A21680078086170
:10105000606A401C6062218D491E89B22185628DC3
:10106000521E628522685369DB435B070BD469B16A
:1010700000781061606A401C6062208D401E2085EF
:10108000608D401E6085208D0028CBD12A463946D0
:10109000204600F001FD0028CAD154F83D0B01683C
:1010A00041F400710160202004F81E09E67766779C
:1010B0000020C6E7FFE70220C3E70000020010009F
:1010C0000000FFFF10B586B0002100910191029150
:1010D000039100680F4988421AD10F4CA06940F073
:1010E0000800A061A069694600F008000490C020D3
:1010F000009012200190032003900848FFF75CFC49
:10110000E06940F40010E061E06900F40010049030
:1011100006B010BD0054004000100240000C014019
:101120000248816802781144816070470000002005
:10113000074810B5016841F010010160032000F07C
:1011400075F80F2000F006F800F024F8002010BD1C
:101150000020024070B50D4D04464FF47A71287896
:10116000B1FBF0F00A490968B1FBF0F000F0DCFADD
:1011700048B9102C07D200222146501E00F036F844
:1011800000206C6070BD012070BD000000000020D8
:101190000C0000200C4808B5816941F00101816113
:1011A000816901F001010091C16941F08051C16183
:1011B000C06900F0805000900448416821F0E0616F
:1011C00041F00071416008BD001002400000014084
:1011D000002809DB00F01F02012191404009800036
:1011E00000F1E020C0F8001170470000F0B40E4B91
:1011F0001B680C46C3F30223C3F10705042D00D975
:101200000425191D072901D2002300E0DB1E012659
:1012100006FA05F1491E214099409E40761E16406F
:101220003143F0BC01F09EBC0CED00E0064900F03B
:10123000070208684FF6FF03184040EA0220034AFD
:1012400010430860704700000CED00E00000FA0554
:101250002DE9F0470F46050061D0434E306800F09D
:101260000700B84209D2306820F0070038433060E8
:10127000306800F00700B84251D128683B4C810724
:1012800012D5400703D5606840F4E06060602878BC
:10129000000703D5606840F4605060606068A9682A
:1012A00020F0F000084360602878C00728D0686804
:1012B000012810D02168022810D0890700292EDAD1
:1012C000616821F0030101436160FFF76BFC804618
:1012D00041F288390DE021688903EFE78901EDE7E4
:1012E000FFF760FCA0EB0801494502D90320BDE8E7
:1012F000F0876068696800F00C00B0EB810FEFD1F7
:10130000306800F00700B8420BD9306820F00700C1
:1013100038433060306800F00700B84201D0012047
:10132000E5E72878400705D56068E96820F4E060C3
:10133000084360602878000706D56068296920F4B2
:10134000605040EAC100606000F038F86168084A07
:10135000C1F30311515CC8400649086006480068A3
:10136000FFF7F8FE0020C2E7002002400010024014
:10137000AA4000080C000020040000200448054991
:1013800000684968044AC1F30221515CC8407047B3
:101390000C00002000100240BA4000080448054933
:1013A00000684968044AC1F3C221515CC8407047D3
:1013B0000C00002000100240BA4000080E4A51689C
:1013C0000E4801F00C03042B11D0082B0FD10C4850
:1013D000C1F38343C903C05C0AD55168084AC1F30D
:1013E0004041921E515C054A5043B0FBF1F07047FA
:1013F00004494843704700000010024000127A0080
:101400009A40000800093D002DE9F84F040070D013
:101410002078C04DC00749D06868C0F3810001281A
:1014200007D06868C0F38100022809D16868C0034A
:1014300006D52868800339D560680028E7D035E0F4
:101440006068B0F5803F0BD010B1B0F5A02F11D07F
:10145000286820F480302860286820F4802002E08A
:10146000286840F480302860606890B1FFF79AFBEC
:1014700006460AE0286840F480202860F0E700BFB4
:10148000FFF790FB801B642873D828688003F7D58A
:101490000CE0FFF787FB064605E000BFFFF782FB85
:1014A000801B6428F0D828688003F7D420789A4EEF
:1014B00080074FF001094FF0000839D5686810F037
:1014C0000C0F07D06868C0F38100022809D1686852
:1014D000C00306D42868800714D52069012808D1E4
:1014E00010E02069B0B1C6F80090FFF75BFB07463B
:1014F00005E00AE1FFF756FBC01B0228C4D82868A4
:101500008007F7D52868616920F0F80040EAC1003B
:1015100028600DE0C6F80080FFF744FB074604E0B2
:10152000FFF740FBC01B022823D828688007F7D4A8
:10153000207800072CD57948A169D9B1C0F800906E
:10154000FFF730FB074604E0FFF72CFBC01B022827
:101550000FD8686A8007F7D571484FF4FA510068D0
:10156000B0FBF1F0009000BF0098411E0091FAD24C
:101570000EE080E0C0F80080FFF714FB074604E0AF
:10158000FFF710FBC01B022875D8686A8007F7D4E4
:101590002078400760D5E8690027C00008D4E869D2
:1015A00040F08050E861E869012700F08050009029
:1015B0005C480168C90513D40168834641F4807111
:1015C0000160FFF7EFFA824606E000BFFFF7EAFA94
:1015D000A0EB0A0064284ED8DBF80000C005F5D562
:1015E000E06801280AD008B1052813D0286A20F045
:1015F00001002862286A20F0040002E0286A40F016
:1016000001002862E06841F2883B98B1FFF7CAFA0E
:1016100082460BE0286A40F004002862EEE700BF33
:10162000FFF7C0FAA0EB0A0159455AD8286A80078B
:10163000F6D50CE0FFF7B6FA824605E0FFF7B2FAFE
:10164000A0EB0A0159454CD8286A8007F6D41FB18F
:10165000E86920F08050E861E06988B36968C1F307
:101660008101022944D00228C6F8608004D0FFF727
:1016700099FA044638E034E0FFF794FA074604E0AC
:10168000FFF790FAC01B02282BD828688001F7D4F6
:10169000206AB0F5803F05D16868A16820F4003069
:1016A00008436860D4E908010843696821F47411AB
:1016B00008436860C6F86090FFF774FA044606E0D5
:1016C00025E000BFFFF76EFA001B022809D8286842
:1016D0008001F7D51BE000BFFFF764FA001B02286A
:1016E00002D90320BDE8F88F28688001F4D40EE009
:1016F0000128F7D06868226A00F48031914204D151
:10170000616A00F47010884201D00120EAE70020ED
:10171000E8E700000010024000004242800442421C
:101720000C0000200070004010B5401EB0F1807F1A
:1017300001D3012010BD4FF0E02460610F2160173C
:1017400001F010FA0020A06107202061002010BDE8
:1017500070B5040004D094F84100002510B106E0F3
:10176000012070BD84F84050204600F023F824206A
:1017700084F841002068C16821F40051C16020460E
:1017800001F036F92068016921F490410161206877
:10179000416921F02A0141612068C16841F400518A
:1017A000C1606564202084F8410084F842006563CC
:1017B000002070BD30B585B00024009401940294DF
:1017C000039400681449884224D11448816941F483
:1017D00080418161816901F480410491816941F016
:1017E0000401816180690E4D00F0040004904FF403
:1017F0000070009002200190032003906946284663
:10180000FFF7DAF82815CDE9000469462846029466
:10181000FFF7D2F805B030BD00380140001002409B
:10182000000801402DE9F843044690F8410098462D
:1018300016460D46202802D00220BDE8F88385B167
:101840007EB100206064212084F84100FFF7AAF9EE
:10185000A6848146E684A0682027B0F5805F02D088
:1018600003E00120E9E7206910B12E4600250EE0D3
:1018700000260CE08021204601F016F9A8B9C6B177
:1018800016F8010B21684860E08C401EE084E08C73
:101890004B464FF00002CDF800800028EAD14FF00F
:1018A0004001204601F000F940B184F84170032066
:1018B000C3E735F8020BC0F30800E3E784F8417092
:1018C0000020BAE7FEE701684A69D24352050FD407
:1018D0006FF480624A61002140F8301F2022427379
:1018E0008173026942F004020261017301207047B2
:1018F000002070472DE9F84F0446006889460B9D8B
:1019000001689846174641F48061016020680168CB
:1019100041F48071016000954FF0011B002259468F
:1019200020460A9B00F0E4F84FF4007A40B12068AA
:101930000068C00501D5C4F840A00320BDE8F88FB9
:10194000216809F0FE0008612B46284920460A9AC2
:1019500000F016F9F0BB20684169806900902A46C2
:1019600020460A9900F0A2F940B1206C04283AD12F
:101970002068016841F40071016034E0FEB2B8F102
:10198000010F09D02168380A08612A4620460A99C1
:1019900000F08CF90028E8D1206806612A4620462C
:1019A0000A9900F083F90028DFD12068016841F42A
:1019B0008071016000950022594620460A9B00F084
:1019C00097F80028B3D1216809F0FF0040F001002A
:1019D000086100E007E02B46044920460A9A00F01F
:1019E000CFF80028AAD00120A8E7000002000100DB
:1019F0002DE9F843044600680D46DDE908970168C3
:101A00009846164641F4807101604B4600224FF023
:101A100001112046009700F06BF848B1206800687B
:101A2000C00502D54FF4007020640320BDE8F883A0
:101A3000216805F0FE0008613B464A4615492046EC
:101A400000F09EF888B920684169806900903A46A4
:101A50004946204600F02AF948B1206C042804D1F8
:101A60002068016841F4007101600120DEE7F5B2F1
:101A7000B8F1010F09D02168300A08613A46494699
:101A8000204600F013F90028E7D120680561002006
:101A9000CCE700000200010070B516460D46044672
:101AA0001EE02046FFF70FFF08B1012070BD681C43
:101AB00016D0FFF777F8801BA84200D885B92068B8
:101AC0004069C04340070BD5002044F8300F202167
:101AD0006173A073216941F0200121612073E4E763
:101AE00020684069C0434007DBD4002070BD00007F
:101AF0002DE9F047984617460D460446C1F30746C0
:101B0000DDF820902AE000BFB8F1FF3F26D0FFF7B4
:101B100049F8A0EB0901414502D8B8F1000F1DD1E9
:101B20002068012E16D0806925EA00000004000C10
:101B300012D00020B84211D1002044F8300F2021EB
:101B40006173A073216941F020012161207301209C
:101B5000BDE8F0874069E7E70120EBE72068012E48
:101B60000AD0806925EA00000004000C06D000209D
:101B7000B842C9D00020EBE74069F3E70120F7E75E
:101B80002DE9F047984616460D4604464FF00009E9
:101B90004FF0200AC1F3074723E020684069C043A3
:101BA000400515D42068016841F400710160216886
:101BB0006FF480604861C4F8309084F83DA084F8E8
:101BC0003E90216C41F00401216484F83C9021E0B6
:101BD000701C06D0FEF7E6FFA0EB0800B04203D869
:101BE00016B1012F1FD021E02068012F15D0806988
:101BF00025EA00000004000C18D000BF44F8309F14
:101C000084F80DA084F80E90216941F02001216133
:101C100084F80C900120BDE8F087406925EA0000B7
:101C20000004000CEAD12068406901E02068806966
:101C300025EA00000004000CAFD1ECE72DE9F041EB
:101C4000002590460E460446202728E04069C04300
:101C5000C0060CD454F8301B6FF01000486144F8F3
:101C600010596777A577206A2062257714E0FEF780
:101C700099FFA0EB0800B04200D886B920684069FF
:101C8000C04340060BD544F8305F6773A5732069E5
:101C900040F02000206125730120BDE8F08120681C
:101CA0004169C9434906D1D40020F6E770B516460C
:101CB0000D4604461EE02046FFF705FE08B1012050
:101CC00070BD681C16D0FEF76DFF801BA84200D8BF
:101CD00085B920684069C04300060BD5002044F850
:101CE000300F20216173A073216941F0200121612F
:101CF0002073E4E720684069C0430006DBD400207D
:101D000070BD000030B585B00020009001900290B9
:101D100003902248816941F010018161816901F0DD
:101D200010010491816941F020018161816901F014
:101D300020010491816941F004018161816901F010
:101D400004010491816941F00801816180690122E7
:101D500000F00800124D5403049021462846FEF777
:101D60001BFF0094012401940294694628460394C1
:101D7000FEF722FE200200900A48CDE901046946E0
:101D80000948FEF719FE002201211720FFF72EFA5D
:101D90001720FFF71DFA05B030BD0000001002400B
:101DA0000010014000001110000C01400D4810B55A
:101DB0000B4901600C49416000214FF48042816071
:101DC000C0E9031241618161C1610162FEF7F0FE69
:101DD000002803D0BDE81040FEF7C8BD10BD0000CC
:101DE0000054004040000020801A06000C4810B546
:101DF0000A4901604FF4E1314160002181600C2209
:101E0000C160C0E904128161C161FFF7A1FC002833
:101E100003D0BDE81040FEF7A9BD10BD0038014059
:101E2000940000202DE9FF4F91B08246DDE9200BA0
:101E3000DDE91E74239E98461546894610F0FF4F33
:101E400006D11BF0FF4F03D1229810F0FF4F03D0B3
:101E500018F0FF4F0FD108E00097CDE9014650463A
:101E600000F036FB15B0BDE8F08F17F0FF4F02D140
:101E700014F0FF4F7ED021462046FEF7EEF939469A
:101E800000900846FEF7E9F9414602900846FEF741
:101E9000E4F90299FEF789F90099FEF786F901F055
:101EA0002BFF014600904046FEF7D7F914903846C4
:101EB0000099FEF7D2F91E9020460099FEF7CDF961
:101EC00022991F900846FEF7C8F90746594608466A
:101ED000FEF7C3F9209904460846FEF7BEF92146ED
:101EE000FEF763F93946FEF760F901F005FF044695
:101EF00001462098FEF7B1F9209021465846FEF79A
:101F0000ACF9219021462298FEF7A7F9FE4C2290C9
:101F1000A168A068FEF7A1F90E90E168A068FEF73D
:101F20009CF906902169A068FEF797F90590616910
:101F3000A068FEF792F90790E168E068FEF78DF976
:101F400010902169E068FEF788F900906169E06807
:101F5000FEF783F9049021692069FEF77EF903906A
:101F600061692069FEF779F9029061696069FEF79D
:101F700074F900E060E10190DDE90401FEF715F974
:101F80000B902299FEF769F9804607990098FEF7B1
:101F90005EF90C902199FEF760F907464FF07C50EE
:101FA0000399FEF754F90199FEF751F90D90209924
:101FB000FEF753F93946FEF7F8F84146FEF7F5F813
:101FC0000121FEF77CF9074606990298FEF73FF9D2
:101FD0002299FEF742F983464FF07C501099FEF7A4
:101FE00036F90A900199FEF732F92199FEF735F991
:101FF000804607990098FEF7D8F82099FEF72DF94A
:102000004146FEF7D2F85946FEF7CFF80121FEF718
:1020100056F90146FEF721F9804639460846FEF793
:102020001CF94146FEF7C1F8FEF7FDFA01F0DAFFB0
:10203000FEF724FB804603990A98FEF708F90890FA
:102040002299FEF70AF9074606990298FEF7ADF8BD
:1020500009902199FEF701F98346DDE90401FEF7B5
:10206000F6F807902099FEF7F8F85946FEF79DF824
:102070003946FEF79AF80121FEF721F983460798C1
:102080000590099804904FF07C510E98FEF7DFF808
:102090000199FEF78AF8069059460798FEF7DDF891
:1020A000074641460D98FEF7D8F83946FEF77DF809
:1020B000079059460998FEF7D0F8074641460C9814
:1020C000FEF7CBF83946FEF770F8039059460898AA
:1020D000FEF7C3F8074641460B98FEF7BEF83946AF
:1020E000FEF763F8074603992298FEF7B6F8804694
:1020F00039462198FEF7B1F84146FEF7A8F8804628
:1021000004991F98FEF7A9F8834606991E98FEF7D2
:10211000A4F85946FEF79BF84146FEF746F80890AA
:1021200039462098FEF799F8074607992298FEF756
:1021300094F83946FEF78BF8074606991498FEF78F
:102140008CF8804605991F98FEF787F84146FEF700
:102150007EF83946FEF729F8834607992198FEF75D
:102160007CF8074603992098FEF777F83946FEF782
:102170006EF8074605991E98FEF76FF88046049999
:102180001498FEF76AF84146FEF761F83946FEF703
:102190000CF880466068B0F5000F31DB0899606884
:1021A000FEF75BF8594F3946FEF757F8A169FDF77E
:1021B000FCFFA06159466068FEF74FF83946FEF70C
:1021C0004CF8E169FDF7F1FFE06141466068FEF718
:1021D00044F83946FEF741F8216AFDF7E6FF206230
:1021E000A1695046FDF7E1FFE16982464846FDF7E7
:1021F000DCFF216A81462846FDF7D7FF054603E04C
:102200000020A061E061206208992068FEF725F8AF
:102210005146FDF7CAFF824659462068FEF71DF871
:102220004946FDF7C2FF814641462068FEF715F892
:102230002946FDF7BAFF0546354C50462146FEF7C4
:102240000CF8834621464846FEF707F812902146CF
:102250002846FEF702F82C4C1390D4F80880E56865
:10226000276901466069FDF7F8FF824638461299F2
:10227000FDF7F3FF814685F000405946FDF7EDFF7D
:102280004946FDF7E4FF5146FDF7E1FFA168FDF780
:102290008CFFA06012996069FDF7DFFF8246384627
:1022A0001399FDF7DAFF814641465846FDF7D5FF01
:1022B0004946FDF77AFF5146FDF7C9FFE168FDF792
:1022C00074FFE06061695846FDF7C7FF8246284603
:1022D0001399FDF7C2FF814640461299FDF7BDFFF5
:1022E0004946FDF7B4FF5146FDF75FFF2169FDF751
:1022F0005CFF206139465846FDF7AFFF0746284688
:102300001299FDF7AAFF05E0100000200AD7233C30
:102310000AD7A33B054640461399FDF79EFF294681
:10232000FDF743FF3946FDF792FF6169FDF73DFF79
:10233000606161696069FDF790FF216980462069ED
:10234000FDF78BFFE1680746E068FDF786FFA168AF
:102350000546A068FDF781FF2946FDF726FF3946AF
:10236000FDF723FF4146FDF720FF01F0C5FC0546C0
:102370000146A068FDF771FFA0602946E068FDF7FF
:102380006CFFE06029462069FDF767FF2061294660
:102390006069FDF762FF606101212069FDF78FFF31
:1023A0002169FDF75AFF05464FF040494946E0686C
:1023B000FDF753FFE168FDF750FF2946FDF747FFA2
:1023C0004FF07E51FDF7F1FEFEF72DF907460D4661
:1023D0000121A068FDF773FFE168FDF73EFF80462D
:1023E00001212069FDF76BFF6169FDF736FF41466A
:1023F000FDF7DBFEFEF717F93A462B4601F0E4FA4B
:10240000DFF8C8A04FF0663842465346FEF70AF898
:10241000FEF734F930600121A068FDF750FF216913
:10242000FDF71BFF05464946E068FDF716FF6169A9
:10243000FDF713FF2946FDF7B8FEFEF7F4F801F0AB
:102440007BF842465346FDF7EDFFFEF717F9706043
:1024500061696069FDF701FF216981462069FDF727
:10246000FCFEE1680746E068FDF7F7FEA168054657
:10247000A068FDF7F2FE2946FDF797FE3946FDF705
:10248000E6FE4946FDF7E3FEFEF7CDF80F4621696B
:102490000546E068FDF7E1FE61698146A068FDF749
:1024A000DCFE4946FDF781FE0121FDF708FFFEF73E
:1024B000BAF82A463B4601F087FA42465346FDF7F2
:1024C000B1FFFEF7DBF8B060CCE4000066A64C403C
:1024D0002DE9FF4F83B0DFF84C94DDE91145109EE4
:1024E000984692468B4613F0FF4F05D116F0FF4FEA
:1024F00002D114F0FF4F7CD021462046FDF7ADFEFF
:10250000314600900846FDF7A8FE074641460846BA
:10251000FDF7A3FE3946FDF748FE0099FDF745FE9D
:1025200001F0EAFB074601464046FDF796FE06909D
:1025300039463046FDF791FE109039462046FDF7AA
:102540008CFE1190D9F810104C46D9F80800FDF710
:1025500084FE61690646E068FDF77FFE3146FDF7BF
:1025600076FE616980462069FDF777FEE1680646E0
:10257000A068FDF772FE3146FDF717FE6169074658
:102580006069FDF76AFEA1680646A068FDF765FE72
:102590004FF07C51FDF75BFE3146FDF706FE064627
:1025A00039461198FDF759FE009031461098FDF715
:1025B00054FE0099FDF74BFE019031460698FDF759
:1025C0004CFE064641461198FDF747FE3146FDF7A1
:1025D0003EFE009041461098FDF73FFE0646394604
:1025E0000698FDF73AFE3146FDF731FE0646606873
:1025F00000E050E0B0F5000F31DB01996068FDF7B5
:102600002CFEC94F3946FDF728FEA169FDF7CDFD27
:10261000A06100996068FDF720FE3946FDF71DFEB8
:10262000E169FDF7C2FDE06131466068FDF715FE26
:102630003946FDF712FE216AFDF7B7FD2062A16958
:102640000398FDF7B2FD0390E1695846FDF7ADFD33
:10265000216A83465046FDF7A8FD824603E000202C
:10266000A061E061206201992068FDF7F6FD039901
:10267000FDF79BFD039000992068FDF7EEFD59469C
:10268000FDF793FD834631462068FDF7E6FD514690
:10269000FDF78BFD8246A54C03982146FDF7DDFD35
:1026A000039021465846FDF7D8FD04902146504638
:1026B000FDF7D3FDD9F8088083464C46D9F80C6065
:1026C000D9F810705946D9F81400FDF7C6FD8246B6
:1026D00038460499FDF7C1FD814686F00040039914
:1026E000FDF7BBFD4946FDF7B2FD5146FDF7AFFDD5
:1026F000A168FDF75AFDA06004996069FDF7ADFD82
:10270000824659463846FDF7A8FD81464146039862
:10271000FDF7A3FD4946FDF748FD5146FDF797FD3E
:10272000E168FDF742FDE06061690398FDF795FD02
:10273000814659463046FDF790FD82464046049951
:10274000FDF78BFD5146FDF782FD4946FDF72DFD56
:102750002169FDF72AFD206139460398FDF77DFDCB
:10276000074630460499FDF778FD0646594640462F
:10277000FDF773FD3146FDF718FD3946FDF767FD9E
:102780006169FDF712FD606161696069FDF765FDD2
:10279000216980462069FDF760FDE1680746E06831
:1027A000FDF75BFDA1680646A068FDF756FD3146C2
:1027B000FDF7FBFC3946FDF7F8FC4146FDF7F5FC5B
:1027C00001F09AFA06460146A068FDF746FDA060B2
:1027D0003146E068FDF741FDE06031462069FDF7D4
:1027E0003CFD206131466069FDF737FD60610121E4
:1027F0002069FDF764FD2169FDF72FFD06464FF0C6
:10280000404A5146E068FDF728FDE168FDF725FDE7
:102810003146FDF71CFD4FF07E51FDF7C6FCFDF77C
:1028200002FF06460F460121A068FDF748FDE1685A
:10283000FDF713FD804601212069FDF740FD616928
:10284000FDF70BFD4146FDF7B0FCFDF7ECFE32460F
:102850003B4601F0B9F8DFF8D8804FF066394A46B8
:102860004346FDF7DFFDFDF709FF28600121A06861
:10287000FDF725FD2169FDF7F0FC06465146E068AD
:10288000FDF7EBFC6169FDF7E8FC3146FDF78DFCD7
:10289000FDF7C9FE00F050FE4A464346FDF7C2FD73
:1028A000FDF7ECFE686061696069FDF7D6FC21699F
:1028B00082462069FDF7D1FCE1680746E068FDF734
:1028C000CCFCA1680646A068FDF7C7FC3146FDF7C1
:1028D0006CFC3946FDF7BBFC5146FDF7B8FCFDF733
:1028E000A2FE0F4621690646E068FDF7B6FC616965
:1028F0008246A068FDF7B1FC5146FDF756FC012168
:10290000FDF7DDFCFDF78FFE32463B4601F05CF83B
:102910004A464346FDF786FDFDF7B0FEA86007B0C6
:10292000BDE8F08F100000200AD7233C0AD7A33B54
:1029300066A64C40FEE7FEE770477047FEF7F0BB27
:1029400030B58FB028216846FDF724FC14210AA871
:10295000FDF720FC01210804CDE9001000240294B9
:1029600002250491CDE907504FF4E0100990684624
:10297000FEF74AFD08B172B6FEE70F20CDE90A0561
:102980004FF48060CDE90C4002210AA80E94FEF7B6
:102990005FFC002801D072B6FEE70FB030BD704773
:1029A00001680C3151E8002F22F4907241E80023B5
:1029B000002BF5D10168143151E8002F22F00102FB
:1029C00041E80023002BF5D1016B012909D10168F1
:1029D0000C3151E8002F22F0100241E80023002BB7
:1029E000F5D1202180F842100021016370470000DA
:1029F00070B5044600680169E26821F44051114352
:102A000001612169A0680843616908432168CA68B7
:102A100041F20C639A430243CA6020684169A2698B
:102A200021F44071114341611E492068884202D15E
:102A3000FEF7B4FC01E0FEF7A1FC00EBC00101EBE6
:102A40000012606864218000B2FBF0F3B3FBF1F385
:102A50006FF018067343B2FBF0F5B2FBF0F605EB2E
:102A60008305322303EB0515B5FBF1F5B6FBF1F653
:102A700005F0F00505EB0615B2FBF0F6B2FBF0F041
:102A8000B0FBF1F06FF01802504306EB800003EB4F
:102A90000010B0FBF1F0216800F00F0028448860BE
:102AA00070BD0000003801402DE9F84398461746F4
:102AB0000D460446089E24E0701C22D0FEF772F8F2
:102AC000A0EB0800B0421AD8CEB12068C16849070F
:102AD00017D5802D15D0402D13D00168C9430907A3
:102AE0000FD401680025406800902046FFF758FF8A
:102AF0000820606484F840500120BDE8F88303207A
:102B0000FBE72068006835EA000004D00020B842E6
:102B1000D2D00020F1E70120F9E7FEE70FB4054B22
:102B200010B503A9044A029800F06CF910BC5DF8D6
:102B300014FB0000E13C000838000020490050EA86
:102B4000C12018BF04204A0D18BF40F0010040F218
:102B5000FF72B2EB515F08BF40F00200012808BFCE
:102B6000052070470907090E002804DB00F1E0206A
:102B700080F80014704700F00F0000F1E02080F8AA
:102B8000141D70472DE9F0414F1E00EBC7010446AC
:102B9000D1E9000115461E4637F006020DD02A463F
:102BA0003346FDF73FFC7F1E04EBC703D3E9002348
:102BB000FDF791FB37F00602F1D1022F25D0042F4B
:102BC00013D0062F18BFBDE8F0812A463346FDF723
:102BD00029FCD4E90A23FDF77EFB2A463346FDF79C
:102BE00021FCD4E90823FDF776FB2A463346FDF79E
:102BF00019FCD4E90623FDF76EFB2A463346FDF7A0
:102C000011FCD4E90423FDF766FB2A463346FDF7A1
:102C100009FCD4E90223FDF75EFB2A463346FDF7A3
:102C200001FCD4E90023BDE8F041FDF754BB0122CB
:102C3000FDF7D9BCFDF74FBB0022134610461146E5
:102C4000FDF762BC024A00201107FDF7CCBC000072
:102C500001FDFFFF02E008C8121F08C1002AFAD1D7
:102C600070477047002001E001C1121F002AFBD10C
:102C70007047000001490860704700003C000020D8
:102C80002DE9FF5F82B00021DDE90430020DDDF89F
:102C900040B0034318D044F61050A2F2FF32424332
:102CA0001514119801281FD0A5EB0B00401C5FEAFA
:102CB000000A4FF000064E4FDFF83891B0465046FC
:102CC00015D5CAF1000413E0119801244AA3012884
:102CD00001D16FEA0B010298119AC0E90031C0E9F5
:102CE000024206B0BDE8F09FCBF10000DFE70446EA
:102CF0000021404A491842EB0450CDE9001012E08F
:102D0000E00707D032463B4640464946FDF78AFB7E
:102D10008046894632463B4610461946FDF782FBFF
:102D200006460F466410002CEAD1DDE90401DDE916
:102D30000023BAF1000F06DAFDF774FB42464B465A
:102D4000FDF770FB05E0FDF7DFFB42464B46FDF764
:102D5000DBFB04460E460022284BFDF777FC03D828
:102D60004FF0FF30014607E00022254B2046314658
:102D7000FDF7B1FAFDF7CAFD102409E0002C0ADBCB
:102D80000A220023FDF7ACFC039B30321A55641E67
:102D900050EA0102F2D1641C039AC4F111031444F5
:102DA000119A012A03D0012208430DD10AE00843F9
:102DB00004D000204FF0110B119072E7A3EB0B052C
:102DC0006D1E0DE05B4504DD4FF0000205F10105CD
:102DD00004E003DA4FF00002A5F10105002AECD06F
:102DE00002981199C0E90231C0E9004579E7000075
:102DF000000014400000F03F300000000000F043ED
:102E00000000E03F2DE9FF4F95B09B4689460646FE
:102E100000250FE2252877D100242746F84A012112
:102E2000059400E0044316F8013F203B01FA03F04B
:102E30001042F7D130782A2811D06FF02F03307864
:102E4000A0F13002092A16D8059A44F0020402EBD8
:102E5000820203EB42021044761C0590EFE759F81A
:102E6000042B0592002A03DA504244F400540590E2
:102E700044F00204761C30782E2816D116F8010F83
:102E800044F004042A280DD06FF02F023078A0F10E
:102E90003003092B09D807EB870302EB4303C7185C
:102EA000761CF3E759F8047B761C30786C280FD039
:102EB00006DC4C2817D068280DD06A2814D104E00D
:102EC000742810D07A280FD10DE044F400140AE0E1
:102ED00044F4801401E044F440147278824202D138
:102EE00004F58014761C761C307866280BD013DC31
:102EF000582877D009DC002875D04528F6D0462818
:102F0000F4D047281AD19DE118E0632835D0642811
:102F100079D0652812D195E1702873D008DC672834
:102F2000F1D069286FD06E280DD06F2806D1B5E09A
:102F300073282CD0752875D0782874D05A461799E4
:102F400090476D1C75E1C4F30250022809D0032894
:102F50000DD0D9F8001004280DD00D6009F1040936
:102F600067E1D9F80010EA17C1E90052F6E7D9F88D
:102F700000100D80F2E70D70F0E719F8041B8DF8D2
:102F8000001000208DF80100EA46012003E059F806
:102F900004AB4FF0FF3061074FF0000102D40DE0A9
:102FA00008F101018846B9420FDA8045F8DB1AF8CA
:102FB00008100029F4D108E008F101018846814297
:102FC000FADB1AF808100029F6D105985B46A0EB49
:102FD000080721463846179A00F094FA284400EB77
:102FE000080507E04DE029E10DE01AF8010B5A460B
:102FF00017999047B8F10108F7D25B462146384649
:10300000179A13E142E00A220092C4F302524FF0F1
:10301000000A022A08D059F804CB032A4FEAEC71BF
:103020000AD00DE029E02AE009F1070121F00702AA
:10303000F2E802C1914609E00FFA8CFC4FEAEC710C
:10304000042A03D14FFA8CFC4FEAEC71002907DA0D
:103050000A460021DCF1000C61EB02012D2202E0A6
:10306000220504D52B228DF80420012203E0E2077B
:1030700001D02022F7E7904659E00A2102E0102211
:103080000DE010214FF0000A00910BE010224FF0EC
:10309000000A44F004040827009203E008224FF0DD
:1030A000000A0092C4F30252022A05D059F804CB58
:1030B0000021032A08D009E009F1070121F00702E5
:1030C000F2E802C1914605E01FFA8CFC042A01D106
:1030D0000CF0FF0C4FF00008220728D5702806D00E
:1030E000009B83F0100353EA0A0305D00EE0402250
:1030F0008DF80420012208E05CEA010206D03022AB
:103100008DF804208DF8050002229046009B83F084
:10311000080353EA0A030AD15CEA010201D16207FB
:1031200005D530228DF804204FF001087F1E582865
:1031300004D034A003900EA802900DE036A0F9E769
:1031400053466046009AFDF7CBFA84460398825CAA
:103150000298401E029002705CEA0100F0D10298D1
:1031600006A9081A00F1200A600702D524F4803469
:1031700000E00127574502DDA7EB0A0000E0002030
:1031800000EB0A01009005984144401A0590E003C5
:1031900006D45B462146179A059800F0B3F905441A
:1031A000002706E001A85A46C05D179990476D1C9C
:1031B0007F1C4745F6DBE0030CD55B462146179A9A
:1031C000059800F09FF9054404E030205A4617990D
:1031D00090476D1C0099481E00900029F5DC08E01E
:1031E000029802995A460078491C02911799904713
:1031F0006D1CBAF10001AAF1010AF1DC65E10000E1
:1032000009280100303132333435363738396162BC
:103210006364656600000000303132333435363780
:1032200038394142434445460000000000F058F957
:103230000544761C307800287FF4ECAD19B02846A0
:10324000BDE8F08F620700D4062709F1070222F0DB
:10325000070CFCE80223E14603F000485FEA080C93
:1032600002D00FF2702C0DE05FEA045C02D50FF281
:10327000682C07E05FEAC47C02D00FF2602C01E00A
:10328000AFF2700C4FF0FF3823F00043CDF850C080
:1032900065280CD006DC452809D046281DD04728D3
:1032A0003DD13DE0662818D067287ED138E0002166
:1032B000112F01DB112000E0781CCDE9000106A9E7
:1032C0000EA8FFF7DDFCDDE90F010E9A0391002146
:1032D000009207F1010A04914DE04FF00040009781
:1032E000CDE9011006A90EA8FFF7CAFCDDE90F021F
:1032F00003920E9B11990022DDF80CA0009304921A
:1033000011B9791C00EB010AB7EB0A0004D4C0F133
:10331000FF3007F1010A0490AAEB0700019044E096
:10332000012F00DA01270021112F01DD112000E01B
:103330003846CDE9000106A90EA8FFF7A1FCDDE99A
:103340000F010E9A0391002104910092BA462107C1
:103350000CD40399514500DA8A46BAF1010F05DD14
:10336000009AAAF10101515C302908D0B84202DA72
:1033700010F1040F06DA0121CDE9011015E0AAF1E0
:103380000101E9E7002805DC049901440491AAEB56
:10339000000102E0411C514500DD8A460499401AB3
:1033A000401C01904FF000400290200704D4019887
:1033B000504501DBCDF8048000208DF84F000298C5
:1033C0000DF14F07B0F1004F25D02B200E90029841
:1033D0004FF0020800280CDA404202902D200E9097
:1033E00007E00A210298FDF765F93031029007F8ED
:1033F000011DB8F10001A8F10108F2DC02980028D3
:10340000EFD1791E0E980870307800F0200040F05F
:10341000450007F8020D12A8C01B00F10708149818
:10342000007800B1012000EB0A01019801EBE07186
:1034300005984144401A401E0590E00306D45B46BF
:103440002146179A059800F05DF805441498007815
:1034500018B15A46179990476D1CE00324D55B4676
:103460002146179A059800F04DF805441CE0049891
:10347000002807DBDDE90301884203DD0098405C9A
:10348000179901E0179930205A469047049805F1A2
:103490000105401C04900198401E019004D12E208B
:1034A0005A46179990476D1CBAF10001AAF1010A1A
:1034B000DDDC05E017F8010B5A46179990476D1CA3
:1034C000B8F10001A8F10108F4DC5B462146179A27
:1034D0000598ABE62D0000002B0000002000000046
:1034E0002DE9F041044600251E461746880404D401
:1034F00005E039462020B0476D1C641EF9D52846EA
:10350000BDE8F0812DE9F041044600251E469046B5
:10351000C80301D5302700E02027880404D505E042
:1035200041463846B0476D1C641EF9D52846BDE8B3
:10353000F08100F009FB00002DE9F04D8D4F21F0E6
:10354000004A86B005460C46BA452ADBAAEB0700BE
:1035500028430AD08848824501DC1AD1CDB106B093
:103560002846BDE8F04DFFF762BB844A844B2846ED
:10357000FCF758FF07460E46824A834B28462146F1
:10358000FCF750FF06B03A463346BDE8F04DFCF775
:10359000A2BE0120FFF76EFB06B0BDE8F04DFFF7BD
:1035A0004BBB7A48824542DABAF1795F0BDA28469A
:1035B000FFF7C4FA042808BFFFF744FB284606B00B
:1035C0002146BDE8F08D2A460B461046FCF72AFF3F
:1035D000834602466E480E460B4606217844FFF7A6
:1035E000D1FA5A463346FCF71DFF804669488A46A1
:1035F0005A46334604217844FFF7C4FA5A46334604
:10360000FCF710FF00223B46FCF765FE02460B4626
:1036100040465146FCF778FF2A462346FCF702FF56
:1036200006B02A462346BDE8F04DFCF754BE2846B6
:1036300024F0004100223D463B46FCF7F0FE4FF0EF
:10364000FF32FCF7D0FF0646024653480F460B46B2
:1036500006217844FFF796FA32463B46FCF7E2FE35
:10366000CDE900014D4832463B4604217844FFF73E
:1036700089FA32463B46FCF7D5FE00222B46FCF782
:103680002AFE834602913046394600F0ABFC804664
:1036900043480D46504517DCDDE900015A46029BC0
:1036A000FCF732FF42462B46FCF7BCFE42462B4657
:1036B000FCF711FE0122FCF796FF304A304BFCF775
:1036C000ABFE304A304B4CE04FF0000A52460B46FE
:1036D0004046FCF700FECDE9031052462B4610464B
:1036E0001946FCF79FFE32463B46FCF798FEDDE9A3
:1036F0000332FCF709FF06460F46DDE900015A4692
:10370000029BFCF701FF83460091012230463946B7
:10371000FCF769FF194A1A4BFCF781FE06460F4673
:10372000012240462946FCF75EFF5A46009BFCF703
:1037300079FE32463B46FCF76FFE06460F460122F5
:1037400050462946FCF74FFF0E4DDFF858802A46B9
:103750004346FCF764FE32463B46FCF760FE2A46D1
:103760004346FCF75CFE002CD8BF81F0004106B058
:10377000BDE8F08D0000F03F0000F07F075C1433DF
:1037800026A6913C182D4454FB21F93F0000E03F50
:10379000E80A0000FE0A0000720A0000880A000021
:1037A0003333EF3FFB21E93F2DE9F84F04460D4647
:1037B00021F0004000917349814211DC7249884236
:1037C00001DC06D12CB120462946BDE8F84FFFF7B1
:1037D0002EBA6E48002DCCBF6D496E49BDE8F88FFA
:1037E0006D49814211DD6D498142D8BF4FF0FF36EE
:1037F0006DDD20462946FFF7A1F9042808BFFFF731
:1038000021FA20462946BDE8F88F6549654F25F025
:103810000045814233DD6449814219DD002632468C
:103820004FF0804320462946FCF755FD80468A46E6
:10383000012220462946FCF7D6FE00223B46FCF733
:10384000EBFD42465346FCF75FFE04460D463EE064
:1038500001260022BA463B4620462946FCF73BFD9E
:1038600080460F460022534620462946FCF7D4FDE9
:1038700042463B46FCF748FE04460D4627E04B49CE
:1038800081421BDDDFF828A1022600225346204694
:103890002946FCF7C7FD00223B46FCF71CFD80468D
:1038A0000F460022534620462946FCF7B5FD424606
:1038B0003B46FCF729FE04460D4608E00326224657
:1038C0002B4600203B49FCF71FFE04460D462246CE
:1038D0002B4610461946FCF7A5FD8B46824602464C
:1038E0000B46FCF79FFD07460246334888460B46C9
:1038F00006217844FFF746F952465B46FCF792FDF5
:1039000082462E488B463A46434605217844FFF7C7
:1039100039F93A464346FCF785FD02460B46002E30
:10392000504659460CDAFCF7D6FC22462B46FCF7EB
:1039300079FD01B022462B46BDE8F04FFCF76FBD84
:10394000FCF7C9FC22462B46FCF76CFD1C4A7A4466
:1039500002EBC603D3E90023FCF75EFD22462B46AB
:10396000FCF75AFD174A7A4402EBC603D3E9002359
:10397000FCF755FD009A002AB8BF81F00041BDE870
:10398000F88F0000000010440000F07F182D445410
:10399000FB21F93FFB21F9BF0000DC3F0000203E86
:1039A0000000F33F0000F03F0000E63F00800340CE
:1039B0000000F83F0000F0BF8A080000480800003F
:1039C000E6070000AE0700002DE9F04D9446CCF16B
:1039D000000423F000464CEA0404524F46EAD47433
:1039E0009A46884621F00042BC4206D8454240EA49
:1039F000050442EAD474BC4204D9BDE8F04D6246E5
:103A0000FFF718B9AAF14055A5F17F6555EA0C04F6
:103A10000BD0022404EAAA74434DDFF810E144EA13
:103A2000D87452EA000B04D00CE0BDE8F04DFFF76B
:103A3000BBBE002C14BF012CBDE8F08D022C30D091
:103A4000032C32D056EA0C0B0AD0BE4220D1BA4227
:103A500009D126F0804622F080423346114617E015
:103A600000291ADB25E0DFF8C8B0FB44002C04BFB6
:103A7000DBE90001BDE8F08D012C02BFDBE90001AC
:103A800081F00041BDE8F08D022C0AD0032C0CD04F
:103A9000BA4212D1B8F1000F0BDA23482549BDE82C
:103AA000F08D28462449BDE8F08D28467146BDE8D2
:103AB000F08D1D482149BDE8F08D921B12153C2A5E
:103AC000C4BF19481D490EDCBAF1000FBEBF12F188
:103AD0003C0F0020014606DB6246FCF715FD21F095
:103AE0000041FFF761FE002C08BFBDE8F08D012CFE
:103AF00004BF81F00041BDE8F08D114A114B022C4A
:103B000007D0FCF789FC2A46BDE8F04D0A4BFCF7CC
:103B100083BCFCF781FC2A46BDE8F04D064BFCF760
:103B20007EBC00000000F07F182D4454FB2109C02A
:103B300042070000FB21F9BFFB210940FB21F93FAF
:103B4000075C143326A6A13C96B0002500F05EF970
:103B5000584C04F14C000F90801E0E90801E0D906A
:103B60000A300C90801E0B90801E0A900A3009903B
:103B7000801E0890801E0790243806900A20FCF7CB
:103B8000F7FE0DAB93E8070000F0FCF80AAB93E8F2
:103B9000070000F0D8F807AB93E8070000F011F930
:103BA000B4F948001834FCF735FD434E3146FCF7B4
:103BB00054FB44F80C0C1390B4F93200FCF72AFDC6
:103BC0003146FCF74AFB44F8080C1290B4F9340073
:103BD000FCF720FD3146FCF740FB44F8040C83461B
:103BE000B4F93600FCF716FD344E3146FCF735FBD0
:103BF00082462060B4F93800FCF70CFD3146FCF732
:103C00002CFB81466060B4F93A00FCF703FD3146B5
:103C1000FCF723FB8046A060B4F93C00FCF7FAFCFB
:103C20002749FCF71AFB0746E060B4F93E00FCF7B1
:103C3000F1FC2349FCF711FB06462061B4F9400072
:103C4000FCF7E8FC1E49FCF708FB60610699CDE92A
:103C50000276CDE90401CDE90098DDE91210534662
:103C60005A46FEF7DFF864216D1CA66995FBF1F258
:103C70006662E069A0628246206A01FB1251E0623E
:103C8000183C00297FF47AAFFCF7CDFC0746884644
:103C90003046FCF7C8FC064689465046FCF7C3FC94
:103CA000CDE90069CDE9027802460B4605A0FEF792
:103CB00035FF63E7E800002058A08B3ACDCC1C3AD2
:103CC0009A99193E25662C2025662C2025660D0A1A
:103CD00000000000014901200870704734000020F6
:103CE00013B54FF0FF33012269460248FDF79AFDF4
:103CF00000981CBD9400002010B504464FF0FF3121
:103D0000FCF7DDFA0849A1EB64042146FCF7A5FAAB
:103D10002146FCF7A2FA4FF07F51FCF79BFA2146AF
:103D2000BDE81040FCF799BADF59375FFDF700FA9C
:103D3000FEF706FEFDF7E6FFFEF738F8FEF756F849
:103D4000FFF7F7FBFEE77CB514460D46060017D0DB
:103D5000B5B1ACB16B4606223B21682000F0B8F843
:103D600010F0FF000BD1BDF8001049BA3180BDF84A
:103D7000021049BA2980BDF8041049BA21807CBDDF
:103D800002207CBD7CB514460D46060017D0B5B1A7
:103D9000ACB16B4606224321682000F099F810F080
:103DA000FF000BD1BDF8001049BA3180BDF80210F8
:103DB00049BA2980BDF8041049BA21807CBD02208F
:103DC0007CBD2DE9FC4115460E4607000BD056B1CF
:103DD0004DB16B46062203210C2000F079F810F05B
:103DE000FF0403D00BE00220BDE8FC81BDF8000019
:103DF0003880BDF802003080BDF804002880112210
:103E00000A210C2000F0B9F82046EDE708B50020A3
:103E10008DF8000080226B21682000F0AEF864204D
:103E2000FCF7A6FD00226B21682000F0A6F8032015
:103E300000F064F8002000F058F8642000F085F8E5
:103E400000223821682000F098F800226A216820BA
:103E500000F093F800222321682000F08EF88222DF
:103E60003721682000F089F86A467521682000F043
:103E700037F89DF80000712801D0732815D1012270
:103E80006B21682000F079F800226C21682000F096
:103E900074F8642000F059F86A4600210C2000F004
:103EA0001FF89DF80000482801D0012008BD01221C
:103EB0000B210C2000F061F83220FCF759FD112293
:103EC0000A210C2000F059F800F05EF8002008BD2F
:103ED00010B51C461346224600F0BCF8002010BD69
:103EE00010B500F0A5F8002010BDC00610B5020EF8
:103EF0001C21682000F041F8C0B210BD032101EB85
:103F0000C00010B5C2B21B21682000F036F8C0B264
:103F100010BD10B5BC2801D3012210E0622801D3E6
:103F200002220CE02A2801D3032208E0142801D33E
:103F3000042204E00A2801D3052200E006221A2107
:103F4000682000F01AF8C0B210BD10B504464FF456
:103F50007A70844201D9044602E0042C00D2042481
:103F6000B0FBF4F0401EC2B21921682000F005F841
:103F70006008BDE81040FFF7CCBF07B502AA00F00B
:103F800079F800200EBD0000FEB500273E463D46F4
:103F90003C4602AA01A96846FFF7F4FEBDF90000FD
:103FA0000744BDF904000644BDF9080005440A2091
:103FB000FCF7DEFC641C642CEBDB642497FBF4F060
:103FC000FCF728FB064F386096FBF4F0FCF722FB69
:103FD000786095FBF4F0FCF71DFBB860FEBD0000B7
:103FE000DC0000202DE9F04106460F46FCF73DFCC1
:103FF000041E0D4618BF0120284320F00040C0F1E8
:104000007F6000F1E040C00F0ED0301C18BF0120CF
:10401000384320F00040C0F17F6000F1E040C00F65
:1040200004BF0120FEF726FE20462946BDE8F081A8
:104030003EB54FF0FF3300920124CDE9014340002B
:104040000A46014623460248FCF776FE3EBD0000C4
:10405000400000203EB54FF0FF348DE81C004000CA
:104060000A46014601230248FCF766FE3EBD0000F9
:10407000400000203EB54FF0FF3300920124CDE90F
:10408000014340000A46014623460248FCF782FFEE
:104090003EBD0000400000200102020304050607A7
:1040A00008090A0B0C0D0E0F101000000000000094
:1040B00000000102030406070809000000000102D5
:1040C0000304000000000000555555555555C53FE7
:1040D0007D6FEB0312D6D4BF5544880E55C1C93F3E
:1040E0003B8F68B52882A4BF88B20175E0EF493FD5
:1040F00009F7FD0DE13D023F4B2D8A1C273A03C015
:10410000C88A599CE52A004059018D1B6C06E6BF00
:1041100082922EB1C5B8B33F4FBB610567ACDD3F9E
:10412000182D4454FB21E93F9BF681D20B73EF3FDE
:10413000182D4454FB21F93FE2652F227F2B7A3C56
:10414000075C143326A6813CBDCBF07A8807703C0F
:10415000075C143326A6913CC4EB98999999C9BF82
:10416000711623FEC671BCBF6D9A74AFF2B0B3BFB7
:104170009AFDDE522DDEADBF2F6C6A2C44B4A2BF77
:104180000D5555555555D53FFF8300922449C23FE3
:104190006E204CC5CD45B73F513DD0A0660DB13F17
:1041A000EB0D76244B7BA93F11DA22E33AAD903F29
:1041B0000000000000000000D841000800000020BE
:1041C00040000000542C0008184200084000002065
:1041D00008050000642C0008010000001000000029
:1041E0000000000000127A000000204200000000E1
:1041F0000000803F00000000000000000000000000
:1042000000000000000000000000000000000000AE
:084210000000000000000000A6
:04000005080000ED02
:00000001FF
