:020000040800F2
:10000000A0040020010100084F120008811100081F
:100010004D1200087D07000833140008000000009E
:100020000000000000000000000000005312000863
:10003000E5070008000000005112000855120008F2
:100040001B0100081B0100081B0100081B01000820
:100050001B0100081B0100081B0100081B01000810
:100060001B0100081B0100081B0100081B01000800
:100070001B0100081B0100081B0100081B010008F0
:100080001B0100081B0100081B0100081B010008E0
:100090001B0100081B0100081B0100081B010008D0
:1000A0001B0100081B0100081B0100081B010008C0
:1000B0001B0100081B0100081B0100081B010008B0
:1000C0001B0100081B0100081B0100081B010008A0
:1000D0001B0100081B0100081B0100081B01000890
:1000E0001B0100081B0100081B010008DFF80CD0F1
:1000F00000F032FB004800473D1E0008A00400202D
:100100000648804706480047FEE7FEE7FEE7FEE7B1
:10011000FEE7FEE7FEE7FEE7FEE7FEE7B7120008B0
:10012000ED000008202A04DB203A21FA02F0002129
:10013000704721FA02F3D040C2F1200291400843F7
:1001400019467047D2B201E000F8012B491EFBD2DC
:1001500070470022F6E710B513460A4604461946D2
:10016000FFF7F0FF204610BD420005D0C0F3C75294
:100170005242914201DC0020704700EBC1507047B1
:100180002DE9FE4F804681EA0300C00F0C46009027
:1001900021F0004123F00045B8EB0200A94105D24F
:1001A0004046214690461C460B46024623F000403E
:1001B000104347D0270DC7F30A00C3F30A5102903A
:1001C000401A019040286BDAC3F3130040F4801BFF
:1001D0000098924620B10023D2EB030A63EB0B0B8D
:1001E00001985946C0F14002504600F061F90646B8
:1001F0000D4650465946019A00F069F910EB080087
:100200006141002487EA115284EAE7731A4340D01F
:10021000009A62B3019A012A4FEA075215DC001BCB
:1002200061EB02014FF0004202EA0752CDE90042C1
:10023000001C41F5801132462B4600F0A0F903B0B6
:10024000BDE8F08F40462146F9E7001B61EB020153
:10025000001C41F5801300185B412018A2F500171F
:1002600047EB030140EAD570B6196D4111E06D0806
:100270004FEA360645EAC0754FEA0752001B61EBAC
:100280000201001C41F5801149084FEA30000019B5
:10029000514132462B4603B0BDE8F04F00F060B943
:1002A0000098012240000023D0EB020263EBE073D0
:1002B000009821464FEAE074B8EB000061EB0401BE
:1002C000E9E783F000435BE781F0004158E72DE95F
:1002D000FE4F81EA030404F0004421F00041009441
:1002E0004FF0000B23F0004350EA01045ED052EAC5
:1002F00003045BD0C3F30A54C1F30A552C44A4F29F
:10030000F3340194A0FB0254C1F3130141F48011B2
:10031000C3F3130343F4801301FB024400FB034EB9
:10032000840A970A44EA815447EA8357A4FB076882
:1003300002958D0A05FB07854FEA932C04FB0C54AC
:100340002705029D4FEA065847EA1637B5EB080520
:100350006EEB070C870E920E47EA811742EA831272
:10036000A7FB0201B6EB0B0164EB00042B0D43EA83
:100370000C335E1844EB1C50DA465146E7FB020191
:10038000C5F313044FEA0B3343EA14534FEA043224
:10039000019C43EA0603A4F10C040294009CCDE9FD
:1003A00000B400F0ECF803B0BDE8F08F0020014687
:1003B000F9E7C10F80EAE0700844CA0796230021DC
:1003C00000F0A0B800F0004230F000400AD0C10DAB
:1003D00001F56071C0F3160042EA0151C2084007FE
:1003E0001143704700200146704701F0004330B4CC
:1003F00021F0004150EA010206D00A0DA2F5607218
:10040000C1F31301002A02DC30BC00207047440F06
:1004100044EAC104C100E01830BC00EBC25000F057
:1004200068B830B50B46014600202022012409E0BF
:1004300021FA02F59D4205D303FA02F5491B04FA9D
:1004400002F52844151EA2F10102F1DC30BD2DE9B0
:10045000F05F0546002092469B4688460646814648
:1004600040241BE02846414647462246FFF75AFEF5
:1004700053465A46C01A914110D311461846224697
:1004800000F016F82D1A67EB01084F4622460120AE
:10049000002100F00DF817EB00094E41201EA4F1D9
:1004A0000104DFDC484631462A464346BDE8F09F5A
:1004B000202A04DB203A00FA02F100207047914024
:1004C000C2F1200320FA03F3194390407047202A19
:1004D00006DBCB17203A41FA02F043EAE07306E06C
:1004E00041FA02F3D040C2F120029140084319467C
:1004F00070470029A8BF7047401C490008BF20F082
:100500000100704710B4B0FA80FC00FA0CF050EA19
:10051000010404BF10BC704749B1CCF1200421FA9A
:1005200004F411FA0CF118BF012121430843A3EB95
:100530000C01CB1D4FEA00614FEA102042BF0020A2
:1005400010BC704700EBC35010440029A4BF10BC7E
:100550007047401C490008BF20F0010010BC7047E4
:1005600010B5141E73F1000408DA401C41F10001BB
:1005700092185B411A4301D120F0010010BD2DE912
:10058000F04D92469B4611B1B1FA81F202E0B0FA09
:1005900080F220329046FFF78BFF04460F4640EA78
:1005A0000A0041EA0B0153465A46084313D011464C
:1005B00053EA010019D0C8F140025046FFF7B2FDDE
:1005C00005460E46504659464246FFF771FF08431E
:1005D00005D0012004E020463946BDE8F08D00201A
:1005E000054346EAE0762C4337430A986305E40A5C
:1005F000A0EB08000022FD0A44EA47540A3002D565
:1006000000200146E9E7010510196941DDE90845C7
:1006100000196941BDE8F04DA2E72DE9F04D81EAEE
:10062000030404F0004B21F0004514464FF0000A8B
:1006300023F0004150EA050220D054EA01021DD007
:10064000C5F30A570246C5F31303C1F31300C1F300
:100650000A5640F4801543F48013A7EB0608101BDC
:10066000D64608F2FD3873EB050002D308F1010805
:1006700001E092185B41B8F1000F03DA0020014657
:10068000BDE8F08D00204FF48011064684460EE050
:10069000171B73EB050705D3121B63EB050306431A
:1006A0004CEA010C49084FEA300092185B4150EACD
:1006B0000107EDD152EA030012D082EA040083EA76
:1006C0000501084305D0101BAB4106D201220023CF
:1006D00006E000224FF0004302E06FF001025310E9
:1006E0001AEB06004CEB085110EB0A0041EB0B0132
:1006F000BDE8F04DFFF734BFC1F30A52C1F3130157
:1007000040F2FF3341F480119A4202DA00200146A0
:10071000704740F233439A42A2F2334202DC524223
:10072000FFF700BDFFF7C4BE30B5041E71F1000431
:1007300004DB4FF00044404264EB0101141E73F1EE
:10074000000405DB1C464FF00043524263EB0403F8
:10075000994208BF904230BD064C074D06E0E06864
:1007600040F0010394E8070098471034AC42F6D3F8
:10077000FFF7C0FC1421000834210008FEE7000048
:100780000648016841F08071016005480021416020
:10079000016841F00101016070470000FCED00E0DC
:1007A000001000E070B504464FF47A7502E0284668
:1007B00000F004F8641EFAD270BD000070B5074C5A
:1007C0000546666800F032FA0549B0FBF1F169436D
:1007D0006068801B8842FBD370BD0000001000E001
:1007E00040420F00704772B6FEE700002DE9F84F57
:1007F000DFF8B8910024A9F1040B23460F2709F173
:10080000040AABF1040EC9E00125A5402A40AA4222
:100810007DD1674ED1F804C0ACEB0608B44532D0A8
:1008200014DCBCF1030F3AD009DCBCF1000F2AD074
:10083000BCF1010F1CD0BCF1020F31D11DE0BCF1A5
:10084000110F17D0BCF1120F2AD119E0B8F5881F8B
:1008500019D006DCB8F5803F15D0B8F5801F1FD140
:1008600011E0B8F5001F0ED0B8F5041F18D10AE04A
:10087000CB6815E0CB681B1D12E0CB6808330FE096
:10088000CB680C330CE08B682BB1012B4FF00803C5
:1008900003D0456104E0042302E0056100E0002389
:1008A000FF2A01D8064601E000F104064FEA84055C
:1008B00001D9A5F12005D6F8008007FA05FC28EA41
:1008C0000C0803FA05F548EA0508C6F800804D68EB
:1008D000ED0062D5374DAE6946F00106AE61AD69F7
:1008E00024F0030605F001050095334D06EB050CD9
:1008F000DCF80850A607360F07FA06F825EA0805BF
:10090000DFF8B880404503D14FF0000817E044E01D
:10091000DFF8AC80404502D14FF001080FE0DFF86E
:10092000A480404502D14FF0020808E0DFF898802B
:10093000404502D14FF0030801E04FF0040808FAE7
:1009400006F848EA0508CCF808804D68D9F8006038
:10095000ED024D4601D5164300E096432E604D68EA
:10096000DAF80060AD02554601D5164300E0964323
:100970002E604D68DBF80060AD035D4601D516437F
:1009800000E096432E604D68DEF80060ED0375468A
:1009900001D5164300E096432E60641C0D682A467C
:1009A000E5407FF431AFBDE8F88F00000804014056
:1009B000000011100010024000000140000801403A
:1009C000000C014000100140001401408068084004
:1009D00000D0012070470AB1016170470904FBE7AC
:1009E00001488068704700000C00002002488168C0
:1009F00002781144816070470C000020074810B550
:100A0000016841F010010160032000F067F80F2039
:100A100000F006F800F024F8002010BD002002408D
:100A200070B50D4D04464FF47A712878B1FBF0F0A3
:100A30000A490968B1FBF0F000F0D4FA48B9102C6B
:100A400007D200222146501E00F028F800206C60DA
:100A500070BD012070BD00000C00002018000020B7
:100A60000C4808B5816941F001018161816901F09B
:100A700001010091C16941F08051C161C06900F07C
:100A8000805000900448416821F0E06141F000711D
:100A9000416008BD0010024000000140F0B40E4B60
:100AA0001B680C46C3F30223C3F10705042D00D9CC
:100AB0000425191D072901D2002300E0DB1E0126B1
:100AC00006FA05F1491E214099409E40761E1640C7
:100AD0003143F0BC00F0BEBC0CED00E0064900F074
:100AE000070208684FF6FF03184040EA0220034A55
:100AF00010430860704700000CED00E00000FA05AC
:100B00002DE9F0470F46050061D0434E306800F0F4
:100B10000700B84209D2306820F00700384330603F
:100B2000306800F00700B84251D128683B4C81077B
:100B300012D5400703D5606840F4E0606060287813
:100B4000000703D5606840F4605060606068A96881
:100B500020F0F000084360602878C00728D068685B
:100B6000012810D02168022810D0890700292EDA28
:100B7000616821F0030101436160FFF731FF8046A6
:100B800041F288390DE021688903EFE78901EDE73B
:100B9000FFF726FFA0EB0801494502D90320BDE875
:100BA000F0876068696800F00C00B0EB810FEFD14E
:100BB000306800F00700B8420BD9306820F0070019
:100BC00038433060306800F00700B84201D001209F
:100BD000E5E72878400705D56068E96820F4E0601B
:100BE000084360602878000706D56068296920F40A
:100BF000605040EAC100606000F03EF86168084A59
:100C0000C1F30311515CC8400649086006480068FA
:100C1000FFF706FF0020C2E700200240001002405C
:100C2000FA20000818000020100000200148006889
:100C30007047000018000020044805490068496812
:100C4000044AC1F30221515CC840704718000020DB
:100C5000001002400A21000804480549006849685C
:100C6000044AC1F3C221515CC840704718000020FB
:100C7000001002400A2100080E4A51680E4801F097
:100C80000C03042B11D0082B0FD10C48C1F3834364
:100C9000C903C05C0AD55168084AC1F34041921E9D
:100CA000515C054A5043B0FBF1F07047044948439A
:100CB000704700000010024000127A00EA2000088D
:100CC00000093D002DE9F84F040070D02078C04D98
:100CD000C00749D06868C0F38100012807D0686860
:100CE000C0F38100022809D16868C00306D52868CE
:100CF000800339D560680028E7D035E06068B0F53A
:100D0000803F0BD010B1B0F5A02F11D0286820F48F
:100D100080302860286820F4802002E0286840F4B1
:100D200080302860606890B1FFF75AFE06460AE0FE
:100D3000286840F480202860F0E700BFFFF750FEED
:100D4000801B642873D828688003F7D50CE0FFF770
:100D500047FE064605E000BFFFF742FE801B642801
:100D6000F0D828688003F7D420789A4E80074FF097
:100D700001094FF0000839D5686810F00C0F07D052
:100D80006868C0F38100022809D16868C00306D4EE
:100D90002868800714D52069012808D110E020694F
:100DA000B0B1C6F80090FFF71BFE074605E00AE168
:100DB000FFF716FEC01B0228C4D828688007F7D5A5
:100DC0002868616920F0F80040EAC10028600DE061
:100DD000C6F80080FFF704FE074604E0FFF700FEB8
:100DE000C01B022823D828688007F7D42078000782
:100DF0002CD57948A169D9B1C0F80090FFF7F0FD72
:100E0000074604E0FFF7ECFDC01B02280FD8686A14
:100E10008007F7D571484FF4FA510068B0FBF1F044
:100E2000009000BF0098411E0091FAD20EE080E0D1
:100E3000C0F80080FFF7D4FD074604E0FFF7D0FDBF
:100E4000C01B022875D8686A8007F7D4207840074D
:100E500060D5E8690027C00008D4E86940F08050F8
:100E6000E861E869012700F0805000905C48016863
:100E7000C90513D40168834641F480710160FFF70E
:100E8000AFFD824606E000BFFFF7AAFDA0EB0A0017
:100E900064284ED8DBF80000C005F5D5E0680128CD
:100EA0000AD008B1052813D0286A20F00100286272
:100EB000286A20F0040002E0286A40F0010028625D
:100EC000E06841F2883B98B1FFF78AFD82460BE06B
:100ED000286A40F004002862EEE700BFFFF780FDBB
:100EE000A0EB0A0159455AD8286A8007F6D50CE0CC
:100EF000FFF776FD824605E0FFF772FDA0EB0A01E1
:100F000059454CD8286A8007F6D41FB1E86920F00B
:100F10008050E861E06988B36968C1F38101022902
:100F200044D00228C6F8608004D0FFF759FD04467B
:100F300038E034E0FFF754FD074604E0FFF750FDCA
:100F4000C01B02282BD828688001F7D4206AB0F58E
:100F5000803F05D16868A16820F4003008436860CC
:100F6000D4E908010843696821F4741108436860F2
:100F7000C6F86090FFF734FD044606E025E000BFA8
:100F8000FFF72EFD001B022809D828688001F7D53D
:100F90001BE000BFFFF724FD001B022802D903203D
:100FA000BDE8F88F28688001F4D40EE00128F7D05E
:100FB0006868226A00F48031914204D1616A00F4C9
:100FC0007010884201D00120EAE70020E8E7000025
:100FD00000100240000042428004424218000020FB
:100FE0000070004010B5401EB0F1807F01D3012099
:100FF00010BD4FF0E02460610F21601700F02AFA65
:101000000020A06107202061002010BD70B5040001
:1010100004D094F84100002510B106E0012070BD15
:1010200084F84050204600F023F8242084F8410042
:101030002068C16821F40051C160204600F064F9C5
:101040002068016921F4904101612068416921F023
:101050002A0141612068C16841F40051C1606564A2
:10106000202084F8410084F842006563002070BDB0
:1010700030B585B000240094019402940394006874
:101080001449884224D11448816941F48041816126
:10109000816901F480410491816941F00401816119
:1010A00080690E4D00F0040004904FF40070009031
:1010B000022001900320039069462846FFF796FB23
:1010C0002815CDE90004694628460294FFF78EFBF7
:1010D00005B030BD0038014000100240000801405A
:1010E0002DE9F843044690F84100984616460D460F
:1010F000202802D00220BDE8F88385B17EB100200F
:101100006064212084F84100FFF76AFCA6848146D0
:10111000E684A0682027B0F5805F02D003E00120BC
:10112000E9E7206910B12E4600250EE000260CE00C
:101130008021204600F044F9A8B9C6B116F8010B89
:1011400021684860E08C401EE084E08C4B464FF004
:101150000002CDF800800028EAD14FF0400120467F
:1011600000F02EF940B184F841700320C3E735F850
:10117000020BC0F30800E3E784F841700020BAE7EF
:10118000FEE7000070B586B000200090019002904C
:1011900003901D48816941F010018161816901F06E
:1011A00010010491816941F020018161816901F0A0
:1011B00020010491816941F004018161806901226B
:1011C00000F00400114D5403049021462846FFF717
:1011D00002FC0F4E012211463046FFF7FCFB009443
:1011E000012401940294694628460394FFF7FEFA0D
:1011F0000320CDE902400094694601943046FFF790
:10120000F5FA06B070BD0000001002400010014069
:10121000000801400C4810B50A4901604FF4E13163
:101220004160002181600C22C160C0E9041281612B
:10123000C161FFF7EBFE002803D0BDE81040FFF7C7
:10124000D2BA10BD0038014048000020FEE7FEE79A
:1012500070477047FFF7CABB30B58FB0282168468A
:10126000FEF777FF14210AA8FEF773FF0121080497
:10127000CDE900100024029402250491CDE9075025
:101280004FF4E01009906846FFF71CFD08B172B6F4
:10129000FEE70F20CDE90A054FF48060CDE90C4050
:1012A00002210AA80E94FFF72BFC002801D072B689
:1012B000FEE70FB030BD704701680C3151E8002FD8
:1012C00022F4907241E80023002BF5D1016814311B
:1012D00051E8002F22F0010241E80023002BF5D154
:1012E000016B012909D101680C3151E8002F22F06E
:1012F000100241E80023002BF5D1202180F8421094
:10130000002101637047000070B504460068016960
:10131000E26821F44051114301612169A06808434A
:10132000616908432168CA6841F20C639A43024329
:10133000CA6020684169A26921F44071114341618A
:101340001E492068884202D1FFF786FC01E0FFF7C2
:1013500073FC00EBC00101EB0012606864218000A7
:10136000B2FBF0F3B3FBF1F36FF018067343B2FB7B
:10137000F0F5B2FBF0F605EB8305322303EB051520
:10138000B5FBF1F5B6FBF1F605F0F00505EB06153A
:10139000B2FBF0F6B2FBF0F0B0FBF1F06FF0180228
:1013A000504306EB800003EB0010B0FBF1F0216826
:1013B00000F00F002844886070BD00000038014034
:1013C0002DE9F843984617460D460446089E24E04A
:1013D000701C22D0FFF704FBA0EB0800B0421AD823
:1013E000CEB12068C168490717D5802D15D0402D92
:1013F00013D00168C94309070FD40168002540686C
:1014000000902046FFF758FF0820606484F84050A1
:101410000120BDE8F8830320FBE72068006835EA77
:10142000000004D00020B842D2D00020F1E7012013
:10143000F9E7FEE70FB4054B10B503A9044A02987B
:1014400000F0EAF810BC5DF814FB0000551D000820
:10145000440000200907090E002804DB00F1E02009
:1014600080F80014704700F00F0000F1E02080F8D1
:10147000141D704702E008C8121F08C1002AFAD1E3
:1014800070477047002001E001C1121F002AFBD104
:10149000704700002DE9FF5F82B00021DDE90430D4
:1014A000020DDDF840B0034318D044F61050A2F20C
:1014B000FF3242431514119801281FD0A5EB0B00F1
:1014C000401C5FEA000A4FF000064E4FDFF83891EB
:1014D000B046504615D5CAF1000413E01198012416
:1014E0004AA3012801D16FEA0B010298119AC0E9C1
:1014F0000031C0E9024206B0BDE8F09FCBF1000028
:10150000DFE704460021404A491842EB0450CDE988
:10151000001012E0E00707D032463B4640464946FD
:10152000FEF7D5FE8046894632463B4610461946B0
:10153000FEF7CDFE06460F466410002CEAD1DDE929
:101540000401DDE90023BAF1000F06DAFEF7BFFE61
:1015500042464B46FEF7BBFE05E0FFF75EF842460B
:101560004B46FFF75AF804460E460022284BFFF779
:10157000DBF803D84FF0FF30014607E00022254B8F
:1015800020463146FEF7FCFDFFF7B6F8102409E0CF
:10159000002C0ADB0A220023FEF759FF039B30329E
:1015A0001A55641E50EA0102F2D1641C039AC4F178
:1015B00011031444119A012A03D0012208430DD1CA
:1015C0000AE0084304D000204FF0110B119072E79D
:1015D000A3EB0B056D1E0DE05B4504DD4FF0000233
:1015E00005F1010504E003DA4FF00002A5F1010561
:1015F000002AECD002981199C0E90231C0E90045F7
:1016000079E70000000014400000F03F30000000C7
:101610000000F0430000E03F2DE9FF4F95B09B46EE
:101620008946064600250FE2252877D10024274663
:10163000F84A0121059400E0044316F8013F203BDD
:1016400001FA03F01042F7D130782A2811D06FF058
:101650002F033078A0F13002092A16D8059A44F0F9
:10166000020402EB820203EB42021044761C059056
:10167000EFE759F8042B0592002A03DA504244F4AC
:101680000054059044F00204761C30782E2816D1C0
:1016900016F8010F44F004042A280DD06FF02F0231
:1016A0003078A0F13003092B09D807EB870302EB50
:1016B0004303C718761CF3E759F8047B761C30788F
:1016C0006C280FD006DC4C2817D068280DD06A286B
:1016D00014D104E0742810D07A280FD10DE044F41E
:1016E00000140AE044F4801401E044F440147278D9
:1016F000824202D104F58014761C761C307866286C
:101700000BD013DC582877D009DC002875D0452889
:10171000F6D04628F4D047281AD19DE118E0632876
:1017200035D0642879D0652812D195E1702873D01E
:1017300008DC6728F1D069286FD06E280DD06F289B
:1017400006D1B5E073282CD0752875D0782874D0D0
:101750005A46179990476D1C75E1C4F30250022850
:1017600009D003280DD0D9F8001004280DD00D6041
:1017700009F1040967E1D9F80010EA17C1E900523C
:10178000F6E7D9F800100D80F2E70D70F0E719F8D0
:10179000041B8DF8001000208DF80100EA4601209E
:1017A00003E059F804AB4FF0FF3061074FF0000140
:1017B00002D40DE008F101018846B9420FDA8045F4
:1017C000F8DB1AF808100029F4D108E008F101014B
:1017D00088468142FADB1AF808100029F6D10598EC
:1017E0005B46A0EB080721463846179A00F094FAAA
:1017F000284400EB080507E04DE029E10DE01AF868
:10180000010B5A4617999047B8F10108F7D25B4689
:1018100021463846179A13E142E00A220092C4F3A7
:1018200002524FF0000A022A08D059F804CB032ACA
:101830004FEAEC710AD00DE029E02AE009F1070136
:1018400021F00702F2E802C1914609E00FFA8CFC90
:101850004FEAEC71042A03D14FFA8CFC4FEAEC7189
:10186000002907DA0A460021DCF1000C61EB0201D5
:101870002D2202E0220504D52B228DF8042001221E
:1018800003E0E20701D02022F7E7904659E00A2161
:1018900002E010220DE010214FF0000A00910BE051
:1018A00010224FF0000A44F004040827009203E0DD
:1018B00008224FF0000A0092C4F30252022A05D017
:1018C00059F804CB0021032A08D009E009F10701E7
:1018D00021F00702F2E802C1914605E01FFA8CFCF4
:1018E000042A01D10CF0FF0C4FF00008220728D584
:1018F000702806D0009B83F0100353EA0A0305D03A
:101900000EE040228DF80420012208E05CEA01028A
:1019100006D030228DF804208DF805000222904672
:10192000009B83F0080353EA0A030AD15CEA010230
:1019300001D1620705D530228DF804204FF001084F
:101940007F1E582804D034A003900EA802900DE00A
:1019500036A0F9E753466046009AFEF778FD8446C4
:101960000398825C0298401E029002705CEA0100BB
:10197000F0D1029806A9081A00F1200A600702D5E2
:1019800024F4803400E00127574502DDA7EB0A006C
:1019900000E0002000EB0A01009005984144401A45
:1019A0000590E00306D45B462146179A059800F09F
:1019B000B3F90544002706E001A85A46C05D17990F
:1019C00090476D1C7F1C4745F6DBE0030CD55B465A
:1019D0002146179A059800F09FF9054404E030204D
:1019E0005A46179990476D1C0099481E009000298F
:1019F000F5DC08E0029802995A460078491C0291E9
:101A0000179990476D1CBAF10001AAF1010AF1DCA7
:101A100065E10000092801003031323334353637B2
:101A2000383961626364656600000000303132332A
:101A300034353637383941424344454600000000CA
:101A400000F058F90544761C307800287FF4ECAD9E
:101A500019B02846BDE8F08F620700D4062709F1C7
:101A6000070222F0070CFCE80223E14603F00048DD
:101A70005FEA080C02D00FF2702C0DE05FEA045C04
:101A800002D50FF2682C07E05FEAC47C02D00FF2A7
:101A9000602C01E0AFF2700C4FF0FF3823F00043F0
:101AA000CDF850C065280CD006DC452809D0462862
:101AB0001DD047283DD13DE0662818D067287ED14B
:101AC00038E00021112F01DB112000E0781CCDE966
:101AD000000106A90EA8FFF7DDFCDDE90F010E9A53
:101AE00003910021009207F1010A04914DE04FF0AB
:101AF00000400097CDE9011006A90EA8FFF7CAFC27
:101B0000DDE90F0203920E9B11990022DDF80CA073
:101B10000093049211B9791C00EB010AB7EB0A009B
:101B200004D4C0F1FF3007F1010A0490AAEB0700CA
:101B3000019044E0012F00DA01270021112F01DD7F
:101B4000112000E03846CDE9000106A90EA8FFF7F4
:101B5000A1FCDDE90F010E9A03910021049100928E
:101B6000BA4621070CD40399514500DA8A46BAF1E6
:101B7000010F05DD009AAAF10101515C302908D05E
:101B8000B84202DA10F1040F06DA0121CDE90110A2
:101B900015E0AAF10101E9E7002805DC04990144F8
:101BA0000491AAEB000102E0411C514500DD8A4688
:101BB0000499401A401C01904FF000400290200709
:101BC00004D40198504501DBCDF8048000208DF845
:101BD0004F0002980DF14F07B0F1004F25D02B2098
:101BE0000E9002984FF0020800280CDA4042029052
:101BF0002D200E9007E00A210298FEF712FC3031EA
:101C0000029007F8011DB8F10001A8F10108F2DC0B
:101C100002980028EFD1791E0E980870307800F0F5
:101C2000200040F0450007F8020D12A8C01B00F18B
:101C300007081498007800B1012000EB0A01019810
:101C400001EBE07105984144401A401E0590E00305
:101C500006D45B462146179A059800F05DF80544C6
:101C60001498007818B15A46179990476D1CE003F4
:101C700024D55B462146179A059800F04DF8054497
:101C80001CE00498002807DBDDE90301884203DD3E
:101C90000098405C179901E0179930205A46904708
:101CA000049805F10105401C04900198401E019024
:101CB00004D12E205A46179990476D1CBAF10001A5
:101CC000AAF1010ADDDC05E017F8010B5A46179965
:101CD00090476D1CB8F10001A8F10108F4DC5B46E7
:101CE0002146179A0598ABE62D0000002B00000056
:101CF000200000002DE9F041044600251E4617464D
:101D0000880404D405E039462020B0476D1C641EC9
:101D1000F9D52846BDE8F0812DE9F04104460025BB
:101D20001E469046C80301D5302700E020278804CE
:101D300004D505E041463846B0476D1C641EF9D510
:101D40002846BDE8F0810000014800F0ABB8000073
:101D50002800002013B54FF0FF33012269460248E6
:101D6000FFF7BEF900981CBD480000202DE9F041A6
:101D70000D46060033D08DB32A4800F0E7F8294815
:101D800000F02EF901224421264800F034F94FF4E6
:101D90007A70FEF707FD234800F0D8F821490C3986
:101DA0000870204800F01CF90022BE211D4800F0F8
:101DB00022F91D4C0027E1191A4800F085F87F1C14
:101DC000FFB2092FF7D32179B4F9000011F06001B7
:101DD00009D020290AD040290BD00CE0FFE74FF0B2
:101DE000FF30BDE8F08120F0070004E020F00300A0
:101DF00001E020F00100FEF7DCFA6FF00301FEF7CE
:101E0000B3F93060FEF7DEFA084A094BFEF75FFAD5
:101E10000022084BFEF7B4F9FEF7E7FA286000202D
:101E2000DFE700002800002090000020CDCCCCCCC3
:101E3000CCCCFC3F00004040002070471CB5FEF7B2
:101E4000DDFDFFF709FAFFF79DF9FFF7E3F9FEF76C
:101E500097FCFFF779FF0B4C0A49091D081FFFF794
:101E600085FFA0606068FEF7ADFA05460E46206863
:101E7000FEF7A8FACDE9005602460B4602A0FFF78E
:101E8000D9FAE9E70000002063656C736975733A5D
:101E900025662C66616872656E686569743A2566A8
:101EA0000D0A000010B5040008D0206880472046C5
:101EB00000F086F8401C04D0002010BD4FF0FF3029
:101EC00010BD6FF0010010BDF8B50D46060013D02F
:101ED000ADB10020287001246946304600F012F8A8
:101EE0009DF8000010B1287820432870600010F0A1
:101EF000FF04F1D10020F8BD4FF0FF30F8BD6FF0C6
:101F00000100F8BD70B50D46040019D0DDB172B600
:101F1000002061688847A168002088470320FEF7F9
:101F20004DFC6168012088470A20FEF747FCE06805
:101F30008047287062B63520FEF740FC002070BD57
:101F40004FF0FF3070BD6FF0010070BD70B5040040
:101F50004FF07D052DD072B601206168884762B6CA
:101F60006D1E15F0FF0527D00220FEF727FCE06864
:101F700080470028F4D072B60020A16888476168C5
:101F80000020884762B64FF4F070FEF717FC72B677
:101F90000120616888474620FEF710FCE068804712
:101FA00060B1002462B64FF4CD70FEF707FC204606
:101FB00070BD4FF0FF3070BD002070BD0124F1E70F
:101FC00048B10022027682764276072143181A74BD
:101FD00021B1491EFAE74FF0FF30704700207047EB
:101FE00010B528B10022CC2100F005F8002010BD6A
:101FF0004FF0FF3010BD2DE9F04117460E460500A9
:1020000004D00124344205D0012104E04FF0FF3018
:10201000BDE8F0810021284600F00FF8600010F0C4
:10202000FF04EFD13FB972B6012069688847A968FB
:102030000020884762B60020EAE710B5040012D0FD
:10204000C80772B6A1684FF000000FD088476168DA
:10205000002088470A20FEF7B1FBA16801208847CD
:1020600062B637200EE04FF0FF3010BD8847616840
:10207000002088474120FEF7A1FBA1680120884786
:1020800062B60520FEF79AFB002010BD0121014831
:10209000FEF79CBC000801400B49012801D040B16B
:1020A0000FE0086820F00F000860086840F00800A2
:1020B00006E0086820F00F000860086840F00300A0
:1020C000086000207047000000080140012110B1A5
:1020D000012802D004E0034801E00248001F01602B
:1020E000002070471408014001020203040506079E
:1020F00008090A0B0C0D0E0F101000000000000064
:1021000000000102030406070809000000000102A4
:1021100003040000342100080000002048000000F3
:10212000741400087C2100084800002058040000B6
:1021300084140008000000000000000000000000FF
:1021400001000000100000000000000000127A00F2
:10215000000000000000000000000000391E000820
:1021600099200008CD2000088D2000080000000004
:0C21700000000000000000000000000063
:04000005080000ED02
:00000001FF
