:020000040800F2
:10000000B804002001010008830D0008810C0008DD
:10001000810D00086D0100081B11000800000000A0
:10002000000000000000000000000000B510000803
:100030006F01000800000000C50F0008B71000089D
:100040001B0100081B0100081B0100081B01000820
:100050001B0100081B0100081B0100081B01000810
:100060001B0100081B0100081B0100081B01000800
:100070001B0100081B0100081B0100081B010008F0
:100080001B0100081B0100081B0100081B010008E0
:100090001B0100081B0100081B0100081B010008D0
:1000A0001B0100081B0100081B0100081B010008C0
:1000B0001B0100081B0100081B0100081B010008B0
:1000C0001B0100081B0100081B0100081B010008A0
:1000D0001B0100081B0100081B0100081B01000890
:1000E0001B0100081B0100081B010008DFF80CD0F1
:1000F00000F02AF8004800475D110008B80400200D
:100100000648804706480047FEE7FEE7FEE7FEE7B1
:10011000FEE7FEE7FEE7FEE7FEE7FEE7191100084F
:10012000ED000008D2B201E000F8012B491EFBD21D
:1001300070470022F6E710B513460A4604461946F2
:10014000FFF7F0FF204610BD064C074D06E0E068C3
:1001500040F0010394E8070098471034AC42F6D30E
:10016000FFF7C8FF2412000844120008FEE770479A
:1001700072B6FEE770B5044600F008F90546601C4B
:1001800002D004480078044400F000F9401BA0426B
:10019000FAD370BD040000202DE9F84FDFF8B891C4
:1001A0000024A9F1040B23460F2709F1040AABF13F
:1001B000040EC9E00125A5402A40AA427DD1674E20
:1001C000D1F804C0ACEB0608B44532D014DCBCF165
:1001D000030F3AD009DCBCF1000F2AD0BCF1010FAB
:1001E0001CD0BCF1020F31D11DE0BCF1110F17D0B2
:1001F000BCF1120F2AD119E0B8F5881F19D006DC1E
:10020000B8F5803F15D0B8F5801F1FD111E0B8F5C3
:10021000001F0ED0B8F5041F18D10AE0CB6815E016
:10022000CB681B1D12E0CB6808330FE0CB680C33A2
:100230000CE08B682BB1012B4FF0080303D0456114
:1002400004E0042302E0056100E00023FF2A01D856
:10025000064601E000F104064FEA840501D9A5F144
:100260002005D6F8008007FA05FC28EA0C0803FAF6
:1002700005F548EA0508C6F800804D68ED0062D52E
:10028000374DAE6946F00106AE61AD6924F0030654
:1002900005F001050095334D06EB050CDCF8085020
:1002A000A607360F07FA06F825EA0805DFF8B88032
:1002B000404503D14FF0000817E044E0DFF8AC8080
:1002C000404502D14FF001080FE0DFF8A48040451F
:1002D00002D14FF0020808E0DFF89880404502D1D3
:1002E0004FF0030801E04FF0040808FA06F848EA66
:1002F0000508CCF808804D68D9F80060ED024D463D
:1003000001D5164300E096432E604D68DAF8006090
:10031000AD02554601D5164300E096432E604D6868
:10032000DBF80060AD035D4601D5164300E096435F
:100330002E604D68DEF80060ED03754601D516436A
:1003400000E096432E60641C0D682A46E5407FF469
:1003500031AFBDE8F88F0000080401400000111023
:10036000001002400000014000080140000C014064
:1003700000100140001401408068084000D00120B6
:1003800070470AB1016170470904FBE701488068C2
:100390007047000004000020024881680278114480
:1003A0008160704704000020074810B5016841F0E3
:1003B00010010160032000F067F80F2000F006F83C
:1003C00000F024F8002010BD0020024070B50D4D53
:1003D00004464FF47A712878B1FBF0F00A490968B5
:1003E000B1FBF0F000F038FC48B9102C07D2002225
:1003F0002146501E00F028F800206C6070BD0120DE
:1004000070BD000004000020100000200C4808B55A
:10041000816941F001018161816901F0010100916F
:10042000C16941F08051C161C06900F08050009005
:100430000448416821F0E06141F00071416008BD6D
:100440000010024000000140F0B40E4B1B680C4647
:10045000C3F30223C3F10705042D00D90425191D98
:10046000072901D2002300E0DB1E012606FA05F170
:10047000491E214099409E40761E16403143F0BCF3
:1004800000F04CBE0CED00E0064900F007020868E1
:100490004FF6FF03184040EA0220034A1043086069
:1004A000704700000CED00E00000FA052DE9F04770
:1004B0000F46050061D0434E306800F00700B84297
:1004C00009D2306820F0070038433060306800F00F
:1004D0000700B84251D128683B4C810712D540072C
:1004E00003D5606840F4E06060602878000703D5B9
:1004F000606840F4605060606068A96820F0F000B7
:10050000084360602878C00728D06868012810D0A8
:100510002168022810D0890700292EDA616821F0AD
:10052000030101436160FFF731FF804641F28839E2
:100530000DE021688903EFE78901EDE7FFF726FF6A
:10054000A0EB0801494502D90320BDE8F0876068A7
:10055000696800F00C00B0EB810FEFD1306800F05B
:100560000700B8420BD9306820F0070038433060EC
:10057000306800F00700B84201D00120E5E7287894
:10058000400705D56068E96820F4E06008436060D2
:100590002878000706D56068296920F4605040EA91
:1005A000C100606000F018F86168084AC1F30311E7
:1005B000515CC8400649086006480068FFF706FF1E
:1005C0000020C2E700200240001002400A1200088A
:1005D00010000020080000200E4A51680E4801F06B
:1005E0000C03042B11D0082B0FD10C48C1F383430B
:1005F000C903C05C0AD55168084AC1F34041921E44
:10060000515C054A5043B0FBF1F070470449484340
:10061000704700000010024000127A00FA11000832
:1006200000093D002DE9F84F040070D02078C04D3E
:10063000C00749D06868C0F38100012807D0686806
:10064000C0F38100022809D16868C00306D5286874
:10065000800339D560680028E7D035E06068B0F5E0
:10066000803F0BD010B1B0F5A02F11D0286820F436
:1006700080302860286820F4802002E0286840F458
:1006800080302860606890B1FFF780FE06460AE07F
:10069000286840F480202860F0E700BFFFF776FE6E
:1006A000801B642873D828688003F7D50CE0FFF717
:1006B0006DFE064605E000BFFFF768FE801B64285C
:1006C000F0D828688003F7D420789A4E80074FF03E
:1006D00001094FF0000839D5686810F00C0F07D0F9
:1006E0006868C0F38100022809D16868C00306D495
:1006F0002868800714D52069012808D110E02069F6
:10070000B0B1C6F80090FFF741FE074605E00AE1E8
:10071000FFF73CFEC01B0228C4D828688007F7D525
:100720002868616920F0F80040EAC10028600DE007
:10073000C6F80080FFF72AFE074604E0FFF726FE12
:10074000C01B022823D828688007F7D42078000728
:100750002CD57948A169D9B1C0F80090FFF716FEF1
:10076000074604E0FFF712FEC01B02280FD8686A94
:100770008007F7D571484FF4FA510068B0FBF1F0EB
:10078000009000BF0098411E0091FAD20EE080E078
:10079000C0F80080FFF7FAFD074604E0FFF7F6FD1A
:1007A000C01B022875D8686A8007F7D420784007F4
:1007B00060D5E8690027C00008D4E86940F080509F
:1007C000E861E869012700F0805000905C4801680A
:1007D000C90513D40168834641F480710160FFF7B5
:1007E000D5FD824606E000BFFFF7D0FDA0EB0A0072
:1007F00064284ED8DBF80000C005F5D5E068012874
:100800000AD008B1052813D0286A20F00100286218
:10081000286A20F0040002E0286A40F00100286203
:10082000E06841F2883B98B1FFF7B0FD82460BE0EB
:10083000286A40F004002862EEE700BFFFF7A6FD3B
:10084000A0EB0A0159455AD8286A8007F6D50CE072
:10085000FFF79CFD824605E0FFF798FDA0EB0A013B
:1008600059454CD8286A8007F6D41FB1E86920F0B2
:100870008050E861E06988B36968C1F381010229A9
:1008800044D00228C6F8608004D0FFF77FFD0446FC
:1008900038E034E0FFF77AFD074604E0FFF776FD25
:1008A000C01B02282BD828688001F7D4206AB0F535
:1008B000803F05D16868A16820F400300843686073
:1008C000D4E908010843696821F474110843686099
:1008D000C6F86090FFF75AFD044606E025E000BF29
:1008E000FFF754FD001B022809D828688001F7D5BE
:1008F0001BE000BFFFF74AFD001B022802D90320BE
:10090000BDE8F88F28688001F4D40EE00128F7D004
:100910006868226A00F48031914204D1616A00F46F
:100920007010884201D00120EAE70020E8E70000CB
:1009300000100240000042428004424210000020A9
:100940000070004070B5040009D0606A002540B115
:1009500025616561A56294F8510040B10CE0012069
:1009600070BD6068B0F5827FF4D0E561F2E784F88D
:100970005050204600F040F8022084F851002068D2
:10098000016821F040010160A088218900F4827093
:1009900001F404410843A18901F400610843217C6A
:1009A00001F002010843217D01F001010843218B80
:1009B00001F400710843217F01F03801084394F8E5
:1009C000201001F080010843218D01F400510843FB
:1009D00021680860A069042101EA1040216848608C
:1009E0002068C16921F40061C1616565012084F856
:1009F0005100002070BD000030B585B00024009487
:100A000001940294039400681449884223D1144845
:100A1000816941F480518161816901F480510491BF
:100A2000816941F00401816180690E4D00F004008C
:100A30000490A020009002200190032003906946BA
:100A40002846FFF7A9FB4020CDE900046946284667
:100A50000294FFF7A1FB05B030BD0000003001405B
:100A600000100240000801402DE9FF4F81B01D46F3
:100A7000934604464FF001090E9EFFF787FC074698
:100A800094F851006168012806D0B1F5827F3CD10D
:100A9000A168C9BB042838D10298002871D0BBF1E5
:100AA000000FFBD0002DF9D094F8500001282CD075
:100AB0004FF0010A84F850A094F85100042802D0A5
:100AC000052084F851004FF00008C4F85480C4F8A1
:100AD00038B0E587A58702992163E586A586C4F825
:100AE0004080C4F8448020680168490603D4016846
:100AF00041F040010160E068B0F5006F606808D027
:100B0000F0B3012D49D081E0FFE7022005B0BDE838
:100B1000F08F08B1012D39D1206B21680088C860A1
:100B2000206B801C2063E08E401EE0862EE0206853
:100B3000816889070FD5E18E69B1B9F1010F0AD13A
:100B4000216B0988C160206B801C2063E08E401EF1
:100B5000E0864FF0000920688168C9070CD0E18F5A
:100B600051B1C068A16B0880A06B801CA063E08FAE
:100B7000401EE0874FF00109FFF708FCC01B01E0B1
:100B80000BE067E0B04201D3701C50D1E08E00282A
:100B9000CDD1E08F0028CAD13EE0206B21680078DB
:100BA0000873206B401C2063E08E401EE0862DE021
:100BB0002068816889070FD5E18E69B1B9F1010F0D
:100BC0000AD1216B09780173206B401C2063E08EF1
:100BD000401EE0864FF0000920688168C9070CD0EC
:100BE000E18F51B1C068A16B0870A06B401CA0637D
:100BF000E08F401EE0874FF00109FFF7C7FBC01BE5
:100C0000B04202D3701C01D011E086B1E08E002802
:100C1000CED1E08F0028CBD13A463146204600F0B5
:100C2000D2F950B12020606584F8508012E084F839
:100C300051A084F85080032068E7A06818B92068A4
:100C4000C1688068009084F851A084F85080606D7D
:100C50000028F1D0012059E710B5401EB0F1807F87
:100C600001D3012010BD4FF0E02460610F21601717
:100C700000F054FA0020A06107202061002010BD80
:100C8000FEE70000F0B585B00025274800950195E6
:100C900002950395816941F010018161816901F03C
:100CA00010010491816941F020018161816901F0A5
:100CB00020010491816941F004018161816901F0A1
:100CC00004010491816941F0080181618069012278
:100CD00000F00800154E5403049021463046FFF7FB
:100CE00050FB134F002203213846FFF74AFB0094C4
:100CF000012401940294694630460394FFF74CFAAC
:100D00001020CDE90005694602940A48FFF744FA2D
:100D10000320CDE90004CDE9024069463846FFF7DB
:100D20003BFA05B0F0BD0000001002400010014089
:100D3000000C014000080140104810B50E49016048
:100D40004FF48271416000218160C1604FF40072F4
:100D50000161C0E905121822C0E9072141628162E0
:100D60000A21C162FFF7EEFD002803D0BDE8104064
:100D7000FFF7FEB910BD0000003001405C0000200C
:100D8000FEE7FEE710B505220B49302000F0ECF835
:100D900005220949102000F047F8074900200A5CA5
:100DA000AA2A03D1401CC0B20528F8D3052801D0D7
:100DB000012010BD002010BD1400002010B500203F
:100DC00000F002FA012000F00BFAFFF7DBFF044607
:100DD00000F002F8204610BD10B5002000F0F4F934
:100DE000052210492A2000F0BFF80121212000F03F
:100DF000D7F80121222000F0D3F82821252000F087
:100E0000CFF82021312000F0CBF80F21262000F070
:100E1000C7F80F21202000F0C3F8BDE810400120E2
:100E200000F0D2B91F1200082DE9F0410446154622
:100E30000F46002000F0D4F9204600F0B5F9064630
:100E4000002405E0FF2000F0AFF93855641CE4B23F
:100E5000AC42F7D3012000F0C3F93046BDE8F08181
:100E600010B50446002000F0BBF9204600F09CF9C4
:100E7000FF2000F099F90446012000F0B1F9204666
:100E800010BD70B505460720FFF7EAFF044601468E
:100E9000272000F085F860060AD520222946612027
:100EA000FFF7C2FFFF21E22000F07AF8002070BDBA
:100EB000012070BD10B5002000F086F9052213490D
:100EC000302000F051F811490522491D2A2000F078
:100ED0004BF80121212000F063F80121222000F0CD
:100EE0005FF81A21242000F05BF82821252000F06B
:100EF00057F80F21262000F053F80E21202000F093
:100F00004FF8BDE81040012000F05EB91A12000849
:100F100010B50446002000F057F920222146A020F9
:100F200000F022F8012000F04FF90E4C102120466D
:100F3000FFF722FA0028F9D10720FFF791FF0446B6
:100F40000146272000F02CF8E00605D5FF21E1201E
:100F500000F026F8102010BDA00601D5202010BDFD
:100F6000FF2010BD000801402DE9F041044616465F
:100F70000D46002000F034F9204600F015F9074630
:100F8000002405E015F8010B00F00EF9641CE4B232
:100F9000B442F7D3012000F023F93846BDE8F081D0
:100FA00070B504460D46002000F01AF9204600F006
:100FB000FBF80446284600F0F7F8012000F010F98D
:100FC000204670BD7047F8B515460E460B46009298
:100FD00004460122022100F011F840B933460022F4
:100FE00080212046009500F009F8002804D0606DAB
:100FF00040F0200060650320F8BD00002DE9F843B3
:101000001E46914688460446089DFFF7BFF9401BDF
:10101000351AFFF7BBF9074625480068C0F3CB3007
:10102000684338E0701C37D0FFF7B0F9C01BA84206
:1010300003D215B1009860B32CE02068416821F01C
:10104000E00141606068B0F5827F0BD1A068B0F527
:10105000004F02D0B0F5806F04D12068016821F004
:1010600040010160A06AB0F5005F09D12068016805
:1010700021F4005101602068016841F400510160D1
:10108000012084F85100002084F850000320BDE8BE
:10109000F8830025401E00902068816838EA01002E
:1010A00004D000214945BDD10020F0E70121F9E736
:1010B000100000207047FFF76FB930B58FB02821BE
:1010C0006846FFF736F814210AA8FFF732F8012125
:1010D0000804CDE900100024029402250491CDE912
:1010E00007504FF4E01009906846FFF79BFA08B1EB
:1010F00072B6FEE70F20CDE90A054FF48060CDE916
:101100000C4002210AA80E94FFF7D0F9002801D064
:1011100072B6FEE70FB030BD7047FEE70907090E53
:10112000002804DB00F1E02080F80014704700F094
:101130000F0000F1E02080F8141D704702E008C89D
:10114000121F08C1002AFAD170477047002001E041
:1011500001C1121F002AFBD170470000FFF724F9DC
:10116000FFF7ABFFFFF78EFDFFF7E6FDFFF726FE6B
:101170000B490880FFF730FE0A4C0A482038FFF779
:1011800080FE48B9FFF796FE2078401C2070054885
:10119000FFF7BEFEFFF720FE3220FEF7EBFFECE785
:1011A000000000203C00002001B582B04FF47A70AE
:1011B0000090012301AA02A90248FFF755FC9DF8FF
:1011C00004000EBD5C000020044B20B1012202216E
:1011D0001846FFF7D6B80022F9E70000000C0140DE
:1011E000044B20B1012201211846FFF7CAB80022A2
:1011F000F9E70000000C01400102020304050607A4
:1012000008090A0B0C0D0E0F101000000000000062
:101210000000010203040607080911223344551196
:101220002233445544120008000000201C00000036
:101230003C110008601200081C0000209C04000003
:101240004C11000800000000010000001000000028
:101250000000000000127A00AAAAAAAAAA000000B0
:04000005080000ED02
:00000001FF
